{
  "contractName": "Authentication",
  "abi": [
    {
      "constant": false,
      "inputs": [],
      "name": "kill",
      "outputs": [],
      "payable": false,
      "stateMutability": "nonpayable",
      "type": "function"
    },
    {
      "constant": true,
      "inputs": [],
      "name": "owner",
      "outputs": [
        {
          "name": "",
          "type": "address"
        }
      ],
      "payable": false,
      "stateMutability": "view",
      "type": "function"
    },
    {
      "constant": false,
      "inputs": [
        {
          "name": "newOwner",
          "type": "address"
        }
      ],
      "name": "transferOwnership",
      "outputs": [],
      "payable": false,
      "stateMutability": "nonpayable",
      "type": "function"
    },
    {
      "constant": true,
      "inputs": [],
      "name": "login",
      "outputs": [
        {
          "name": "",
          "type": "bytes32"
        }
      ],
      "payable": false,
      "stateMutability": "view",
      "type": "function"
    },
    {
      "constant": false,
      "inputs": [
        {
          "name": "name",
          "type": "bytes32"
        }
      ],
      "name": "signup",
      "outputs": [
        {
          "name": "",
          "type": "bytes32"
        }
      ],
      "payable": true,
      "stateMutability": "payable",
      "type": "function"
    },
    {
      "constant": false,
      "inputs": [
        {
          "name": "name",
          "type": "bytes32"
        }
      ],
      "name": "update",
      "outputs": [
        {
          "name": "",
          "type": "bytes32"
        }
      ],
      "payable": true,
      "stateMutability": "payable",
      "type": "function"
    }
  ],
  "bytecode": "0x608060405260008054600160a060020a0319163317905561028d806100256000396000f3006080604052600436106100775763ffffffff7c010000000000000000000000000000000000000000000000000000000060003504166341c0e1b5811461007c5780635c1397de146100935780638b147245146100b05780638da5cb5b146100bb578063b34e97e8146100ec578063f2fde38b14610101575b600080fd5b34801561008857600080fd5b50610091610122565b005b61009e600435610145565b60408051918252519081900360200190f35b61009e600435610199565b3480156100c757600080fd5b506100d06101d5565b60408051600160a060020a039092168252519081900360200190f35b3480156100f857600080fd5b5061009e6101e4565b34801561010d57600080fd5b50610091600160a060020a0360043516610213565b600054600160a060020a031633141561014357600054600160a060020a0316ff5b565b600081151561015357600080fd5b336000908152600160205260409020541515610182575033600090815260016020526040902081905580610194565b50336000908152600160205260409020545b919050565b60008115156101a757600080fd5b3360009081526001602052604090205415610077575033600090815260016020526040902081905580610194565b600054600160a060020a031681565b3360009081526001602052604081205415156101ff57600080fd5b503360009081526001602052604090205490565b600054600160a060020a031633141561025e57600160a060020a0381161561025e576000805473ffffffffffffffffffffffffffffffffffffffff1916600160a060020a0383161790555b505600a165627a7a72305820ef27caf43204c9772b4443ea5872abd910e79546e5d9a1b51716781890def2390029",
  "source": "pragma solidity ^0.4.2;\n\nimport './zeppelin/lifecycle/Killable.sol';\n\ncontract Authentication is Killable {\n  struct User {\n    bytes32 name;\n  }\n\n  mapping (address => User) private users;\n\n  uint private id; // Stores user id temporarily\n\n  function login() public constant returns (bytes32)  {\n    // Check if user exists.\n    // If yes, return user.\n    // If no, throw.\n\n    require(users[msg.sender].name != 0x0); \n\n    // if (users[msg.sender].name == 0x0)\n    // {\n    //     throw;\n    // }\n\n    return (users[msg.sender].name);\n  }\n\n  function signup(bytes32 name) public payable returns (bytes32) {\n    // Check if user exists.\n    // If yes, return user name.\n    // If no, check if name was sent.\n    // If yes, create and return user.\n    // If no, throw.\n\n    require(name != 0x0);\n    \n    // if (name == 0x0)\n    // {\n    //     throw;\n    // }\n\n    if (users[msg.sender].name == 0x0)\n    {\n        users[msg.sender].name = name;\n\n        return (users[msg.sender].name);\n    }\n\n    return (users[msg.sender].name);\n  }\n\n  function update(bytes32 name) public payable returns (bytes32) {\n    // Update user name.\n\n    require (name != 0x0);\n\n    // if (name == 0x0)\n    // {\n    //     throw;\n    // }\n\n    if (users[msg.sender].name != 0x0)\n    {\n        users[msg.sender].name = name;\n\n        return (users[msg.sender].name);\n    }    \n    throw;\n  }\n}\n",
  "sourcePath": "/root/intuition-machine/colonyNetwork/contracts/Authentication.sol",
  "compiler": {
    "name": "solc",
    "version": "0.4.24+commit.e67f0147.Emscripten.clang"
  },
  "schemaVersion": "2.0.0",
  "updatedAt": "2018-06-20T09:03:18.808Z"
}