{
  "contractName": "ColonyFunding",
  "abi": [
    {
      "constant": false,
      "inputs": [
        {
          "name": "owner_",
          "type": "address"
        }
      ],
      "name": "setOwner",
      "outputs": [],
      "payable": false,
      "stateMutability": "nonpayable",
      "type": "function"
    },
    {
      "constant": true,
      "inputs": [
        {
          "name": "",
          "type": "uint256"
        }
      ],
      "name": "taskWorkRatings",
      "outputs": [
        {
          "name": "count",
          "type": "uint256"
        },
        {
          "name": "timestamp",
          "type": "uint256"
        }
      ],
      "payable": false,
      "stateMutability": "view",
      "type": "function"
    },
    {
      "constant": true,
      "inputs": [
        {
          "name": "",
          "type": "uint256"
        }
      ],
      "name": "domains",
      "outputs": [
        {
          "name": "skillId",
          "type": "uint256"
        },
        {
          "name": "potId",
          "type": "uint256"
        }
      ],
      "payable": false,
      "stateMutability": "view",
      "type": "function"
    },
    {
      "constant": false,
      "inputs": [
        {
          "name": "authority_",
          "type": "address"
        }
      ],
      "name": "setAuthority",
      "outputs": [],
      "payable": false,
      "stateMutability": "nonpayable",
      "type": "function"
    },
    {
      "constant": true,
      "inputs": [],
      "name": "owner",
      "outputs": [
        {
          "name": "",
          "type": "address"
        }
      ],
      "payable": false,
      "stateMutability": "view",
      "type": "function"
    },
    {
      "constant": true,
      "inputs": [],
      "name": "authority",
      "outputs": [
        {
          "name": "",
          "type": "address"
        }
      ],
      "payable": false,
      "stateMutability": "view",
      "type": "function"
    },
    {
      "anonymous": false,
      "inputs": [
        {
          "indexed": true,
          "name": "id",
          "type": "uint256"
        }
      ],
      "name": "RewardPayoutCycleStarted",
      "type": "event"
    },
    {
      "anonymous": false,
      "inputs": [
        {
          "indexed": true,
          "name": "id",
          "type": "uint256"
        }
      ],
      "name": "RewardPayoutCycleEnded",
      "type": "event"
    },
    {
      "anonymous": false,
      "inputs": [
        {
          "indexed": true,
          "name": "authority",
          "type": "address"
        }
      ],
      "name": "LogSetAuthority",
      "type": "event"
    },
    {
      "anonymous": false,
      "inputs": [
        {
          "indexed": true,
          "name": "owner",
          "type": "address"
        }
      ],
      "name": "LogSetOwner",
      "type": "event"
    },
    {
      "constant": true,
      "inputs": [],
      "name": "getFeeInverse",
      "outputs": [
        {
          "name": "",
          "type": "uint256"
        }
      ],
      "payable": false,
      "stateMutability": "pure",
      "type": "function"
    },
    {
      "constant": true,
      "inputs": [],
      "name": "getRewardInverse",
      "outputs": [
        {
          "name": "",
          "type": "uint256"
        }
      ],
      "payable": false,
      "stateMutability": "pure",
      "type": "function"
    },
    {
      "constant": false,
      "inputs": [
        {
          "name": "_id",
          "type": "uint256"
        },
        {
          "name": "_token",
          "type": "address"
        },
        {
          "name": "_amount",
          "type": "uint256"
        }
      ],
      "name": "setTaskManagerPayout",
      "outputs": [],
      "payable": false,
      "stateMutability": "nonpayable",
      "type": "function"
    },
    {
      "constant": false,
      "inputs": [
        {
          "name": "_id",
          "type": "uint256"
        },
        {
          "name": "_token",
          "type": "address"
        },
        {
          "name": "_amount",
          "type": "uint256"
        }
      ],
      "name": "setTaskEvaluatorPayout",
      "outputs": [],
      "payable": false,
      "stateMutability": "nonpayable",
      "type": "function"
    },
    {
      "constant": false,
      "inputs": [
        {
          "name": "_id",
          "type": "uint256"
        },
        {
          "name": "_token",
          "type": "address"
        },
        {
          "name": "_amount",
          "type": "uint256"
        }
      ],
      "name": "setTaskWorkerPayout",
      "outputs": [],
      "payable": false,
      "stateMutability": "nonpayable",
      "type": "function"
    },
    {
      "constant": true,
      "inputs": [
        {
          "name": "_id",
          "type": "uint256"
        },
        {
          "name": "_role",
          "type": "uint256"
        },
        {
          "name": "_token",
          "type": "address"
        }
      ],
      "name": "getTaskPayout",
      "outputs": [
        {
          "name": "",
          "type": "uint256"
        }
      ],
      "payable": false,
      "stateMutability": "view",
      "type": "function"
    },
    {
      "constant": false,
      "inputs": [
        {
          "name": "_id",
          "type": "uint256"
        },
        {
          "name": "_role",
          "type": "uint256"
        },
        {
          "name": "_token",
          "type": "address"
        }
      ],
      "name": "claimPayout",
      "outputs": [],
      "payable": false,
      "stateMutability": "nonpayable",
      "type": "function"
    },
    {
      "constant": true,
      "inputs": [
        {
          "name": "_potId",
          "type": "uint256"
        },
        {
          "name": "_token",
          "type": "address"
        }
      ],
      "name": "getPotBalance",
      "outputs": [
        {
          "name": "",
          "type": "uint256"
        }
      ],
      "payable": false,
      "stateMutability": "view",
      "type": "function"
    },
    {
      "constant": false,
      "inputs": [
        {
          "name": "_fromPot",
          "type": "uint256"
        },
        {
          "name": "_toPot",
          "type": "uint256"
        },
        {
          "name": "_amount",
          "type": "uint256"
        },
        {
          "name": "_token",
          "type": "address"
        }
      ],
      "name": "moveFundsBetweenPots",
      "outputs": [],
      "payable": false,
      "stateMutability": "nonpayable",
      "type": "function"
    },
    {
      "constant": false,
      "inputs": [
        {
          "name": "_token",
          "type": "address"
        }
      ],
      "name": "claimColonyFunds",
      "outputs": [],
      "payable": false,
      "stateMutability": "nonpayable",
      "type": "function"
    },
    {
      "constant": true,
      "inputs": [
        {
          "name": "_token",
          "type": "address"
        }
      ],
      "name": "getNonRewardPotsTotal",
      "outputs": [
        {
          "name": "",
          "type": "uint256"
        }
      ],
      "payable": false,
      "stateMutability": "view",
      "type": "function"
    },
    {
      "constant": true,
      "inputs": [],
      "name": "getGlobalRewardPayoutCount",
      "outputs": [
        {
          "name": "",
          "type": "uint256"
        }
      ],
      "payable": false,
      "stateMutability": "view",
      "type": "function"
    },
    {
      "constant": true,
      "inputs": [
        {
          "name": "_user",
          "type": "address"
        }
      ],
      "name": "getUserRewardPayoutCount",
      "outputs": [
        {
          "name": "",
          "type": "uint256"
        }
      ],
      "payable": false,
      "stateMutability": "view",
      "type": "function"
    },
    {
      "constant": false,
      "inputs": [
        {
          "name": "_token",
          "type": "address"
        }
      ],
      "name": "startNextRewardPayout",
      "outputs": [],
      "payable": false,
      "stateMutability": "nonpayable",
      "type": "function"
    },
    {
      "constant": false,
      "inputs": [
        {
          "name": "_payoutId",
          "type": "uint256"
        },
        {
          "name": "_squareRoots",
          "type": "uint256[7]"
        },
        {
          "name": "_userReputation",
          "type": "uint256"
        },
        {
          "name": "_totalReputation",
          "type": "uint256"
        }
      ],
      "name": "claimRewardPayout",
      "outputs": [],
      "payable": false,
      "stateMutability": "nonpayable",
      "type": "function"
    },
    {
      "constant": false,
      "inputs": [
        {
          "name": "_numPayouts",
          "type": "uint256"
        }
      ],
      "name": "waiveRewardPayouts",
      "outputs": [],
      "payable": false,
      "stateMutability": "nonpayable",
      "type": "function"
    },
    {
      "constant": false,
      "inputs": [
        {
          "name": "_payoutId",
          "type": "uint256"
        }
      ],
      "name": "finalizeRewardPayout",
      "outputs": [],
      "payable": false,
      "stateMutability": "nonpayable",
      "type": "function"
    },
    {
      "constant": true,
      "inputs": [
        {
          "name": "_payoutId",
          "type": "uint256"
        }
      ],
      "name": "getRewardPayoutInfo",
      "outputs": [
        {
          "name": "",
          "type": "bytes32"
        },
        {
          "name": "",
          "type": "uint256"
        },
        {
          "name": "",
          "type": "uint256"
        },
        {
          "name": "",
          "type": "address"
        },
        {
          "name": "",
          "type": "uint256"
        }
      ],
      "payable": false,
      "stateMutability": "view",
      "type": "function"
    }
  ],
  "bytecode": "0x6080604081905260018054600160a060020a03191633908117909155907fce241d7ca1f669fee44b6fc00b8eba2df3bb514eed0f6f668f8f89096e81ed9490600090a26122a1806100516000396000f3006080604052600436106101245763ffffffff60e060020a60003504166313af403581146101295780632714a7fd1461014c5780632cf62b391461017d5780632ee88715146101a457806334fa7aa2146101f35780633644a3fd14610226578063440f4419146102725780634cb164c71461029c57806351c38cd9146102b157806366cf8fab146102c95780636aaf4a77146102e15780636fb0794f146103085780637a9e5e4b1461032f57806389224a1e146103505780638da5cb5b14610371578063a55a8e8a146103a2578063bf7e214f146103c3578063c2a2e9d6146103d8578063d98648f9146103ed578063ed5923b614610405578063ed8b4eb11461042c578063ef63c3801461029c578063f409a8c414610450578063fda2574614610477575b600080fd5b34801561013557600080fd5b5061014a600160a060020a0360043516610498565b005b34801561015857600080fd5b50610164600435610516565b6040805192835260208301919091528051918290030190f35b34801561018957600080fd5b5061014a600435600160a060020a036024351660443561052f565b3480156101b057600080fd5b506040805160e081810190925261014a9160048035923692610104919060249060079083908390808284375093965050833594505050602090910135905061054d565b3480156101ff57600080fd5b50610214600160a060020a0360043516610d6f565b60408051918252519081900360200190f35b34801561023257600080fd5b5061023e600435610d8a565b60408051958652602086019490945284840192909252600160a060020a031660608401526080830152519081900360a00190f35b34801561027e57600080fd5b5061014a600435602435604435600160a060020a0360643516610e00565b3480156102a857600080fd5b50610214611093565b3480156102bd57600080fd5b5061014a600435611098565b3480156102d557600080fd5b50610164600435611286565b3480156102ed57600080fd5b5061014a600435600160a060020a036024351660443561129f565b34801561031457600080fd5b5061014a600435600160a060020a03602435166044356112e9565b34801561033b57600080fd5b5061014a600160a060020a0360043516611302565b34801561035c57600080fd5b5061014a600160a060020a036004351661137c565b34801561037d57600080fd5b506103866115d6565b60408051600160a060020a039092168252519081900360200190f35b3480156103ae57600080fd5b5061014a600160a060020a03600435166115e5565b3480156103cf57600080fd5b506103866119bb565b3480156103e457600080fd5b506102146119ca565b3480156103f957600080fd5b5061014a6004356119d0565b34801561041157600080fd5b5061014a600435602435600160a060020a0360443516611a81565b34801561043857600080fd5b50610214600435600160a060020a0360243516611eb8565b34801561045c57600080fd5b50610214600435602435600160a060020a0360443516611ee2565b34801561048357600080fd5b50610214600160a060020a0360043516611f15565b6104ae33600035600160e060020a031916611f30565b15156104b957600080fd5b6001805473ffffffffffffffffffffffffffffffffffffffff1916600160a060020a0383811691909117918290556040519116907fce241d7ca1f669fee44b6fc00b8eba2df3bb514eed0f6f668f8f89096e81ed9490600090a250565b600e602052600090815260409020805460019091015482565b30331461053b57600080fd5b6105488360028484612032565b505050565b610555612207565b506000848152600960209081526040808320815160a081018352815481526001820154938101939093526002810154918301919091526003810154600160a060020a031660608301526004015460808201819052909190819081908190624f1a0042919091031115610611576040805160e560020a62461bcd02815260206004820152601f60248201527f636f6c6f6e792d7265776172642d7061796f75742d6e6f742d61637469766500604482015290519081900360640190fd5b336000908152600c6020526040902054890360011461067a576040805160e560020a62461bcd02815260206004820152601b60248201527f636f6c6f6e792d7265776172642d7061796f75742d6261642d69640000000000604482015290519081900360640190fd5b60048054604080517f70a08231000000000000000000000000000000000000000000000000000000008152339381019390935251600160a060020a03909116916370a08231916024808301926020929190829003018186803b1580156106df57600080fd5b505afa1580156106f3573d6000803e3d6000fd5b505050506040513d602081101561070957600080fd5b505193506000861161078b576040805160e560020a62461bcd02815260206004820152602d60248201527f636f6c6f6e792d7265776172642d7061796f75742d696e76616c69642d746f7460448201527f616c2d72657075746174696f6e00000000000000000000000000000000000000606482015290519081900360840190fd5b60008411610809576040805160e560020a62461bcd02815260206004820152602860248201527f636f6c6f6e792d7265776172642d7061796f75742d696e76616c69642d75736560448201527f722d746f6b656e73000000000000000000000000000000000000000000000000606482015290519081900360840190fd5b60008711610887576040805160e560020a62461bcd02815260206004820152602c60248201527f636f6c6f6e792d7265776172642d7061796f75742d696e76616c69642d75736560448201527f722d72657075746174696f6e0000000000000000000000000000000000000000606482015290519081900360840190fd5b8751879061089d908a60005b60200201516120e8565b1115610907576040805160e560020a62461bcd028152602060048201526036602482015260008051602061225683398151915260448201527f616d657461722d757365722d72657075746174696f6e00000000000000000000606482015290519081900360840190fd5b8361091b89600160200201518a6001610893565b1115610985576040805160e560020a62461bcd028152602060048201526031602482015260008051602061225683398151915260448201527f616d657461722d757365722d746f6b656e000000000000000000000000000000606482015290519081900360840190fd5b8561099989600260200201518a6002610893565b1115610a03576040805160e560020a62461bcd028152602060048201526037602482015260008051602061225683398151915260448201527f616d657461722d746f74616c2d72657075746174696f6e000000000000000000606482015290519081900360840190fd5b60208501516060890151610a19908a6003610893565b1115610a83576040805160e560020a62461bcd028152602060048201526033602482015260008051602061225683398151915260448201527f616d657461722d746f74616c2d746f6b656e7300000000000000000000000000606482015290519081900360840190fd5b604085015160c0890151610a99908a6006610893565b1115610b03576040805160e560020a62461bcd02815260206004820152602d602482015260008051602061225683398151915260448201527f616d657461722d616d6f756e7400000000000000000000000000000000000000606482015290519081900360840190fd5b8751610b1190896001610893565b9250610b268860026020020151896003610893565b915082610b3c89600460200201518a6004610893565b1115610ba6576040805160e560020a62461bcd028152602060048201526030602482015260008051602061225683398151915260448201527f616d657461722d6e756d657261746f7200000000000000000000000000000000606482015290519081900360840190fd5b81610bba89600560200201518a6005610893565b1115610c24576040805160e560020a62461bcd028152602060048201526032602482015260008051602061225683398151915260448201527f616d657461722d64656e6f6d696e61746f720000000000000000000000000000606482015290519081900360840190fd5b60a0880151608089015160029160010190610c41908b6006610893565b811515610c4a57fe5b60008080526008602090815260608a0151600160a060020a03168252600080516020612236833981519152905260409020549190049190910a9150610c8f9082612110565b600080805260086020908152606088018051600160a060020a039081168452600080516020612236833981519152835260408085209590955533808552600c845285852080546001019055915185517fa9059cbb000000000000000000000000000000000000000000000000000000008152600481019390935260248301879052945194169363a9059cbb93604480840194938390030190829087803b158015610d3857600080fd5b505af1158015610d4c573d6000803e3d6000fd5b505050506040513d6020811015610d6257600080fd5b5050505050505050505050565b600160a060020a03166000908152600d602052604090205490565b6000806000806000610d9a612207565b5050506000938452505060096020908152604092839020835160a0810185528154808252600183015493820184905260028301549582018690526003830154600160a060020a031660608301819052600490930154608090920182905295929493509091565b6000806000806000610e1e33600035600160e060020a031916611f30565b1515610e2957600080fd5b60008911610ea7576040805160e560020a62461bcd02815260206004820152602b60248201527f636f6c6f6e792d66756e64696e672d63616e6e6f742d6d6f76652d66756e647360448201527f2d66726f6d2d706f742d30000000000000000000000000000000000000000000606482015290519081900360840190fd5b601154881115610f01576040805160e560020a62461bcd02815260206004820152601e60248201527f636f6c6f6e792d66756e64696e672d6e6f6e6578697374656e742d706f740000604482015290519081900360640190fd5b6000898152600860205260408120600101541115610fbc57600089815260086020908152604080832060010154835260079091529020600281015490955060ff161580610f665750600160a060020a0386166000908152600a86016020526040902054155b1515610fbc576040805160e560020a62461bcd02815260206004820152601860248201527f636f6c6f6e792d66756e64696e672d6261642d73746174650000000000000000604482015290519081900360640190fd5b6000898152600860208181526040808420600160a060020a038b16808652908352818520548d86529383528185209085529091529091205490945092506110038488612110565b60008a8152600860209081526040808320600160a060020a038b1684529091529020556110308388612120565b6000898152600860208181526040808420600160a060020a038c168552808352818520959095558d84529190528120600190810154918b905290910154909250905061107d818785612130565b611088828786612130565b505050505050505050565b606490565b6110a0612207565b600b548211156110fa576040805160e560020a62461bcd02815260206004820152601e60248201527f636f6c6f6e792d7265776172642d7061796f75742d6e6f742d666f756e640000604482015290519081900360640190fd5b506000818152600960209081526040808320815160a081018352815481526001820154818501526002820154818401526003820154600160a060020a0316606082018190526004909201546080820152908452600a9092529091205460ff1615156111d5576040805160e560020a62461bcd02815260206004820152602560248201527f636f6c6f6e792d7265776172642d7061796f75742d746f6b656e2d6e6f742d6160448201527f6374697665000000000000000000000000000000000000000000000000000000606482015290519081900360840190fd5b624f1a0081608001514203111515611237576040805160e560020a62461bcd02815260206004820152601b60248201527f636f6c6f6e792d7265776172642d7061796f75742d6163746976650000000000604482015290519081900360640190fd5b6060810151600160a060020a03166000908152600a6020526040808220805460ff191690555183917f8aa457dc24eb80b30e61923c2bf5419661d15e9bd79361de3aa7136606f8a55091a25050565b600f602052600090815260409020805460019091015482565b60008381526007602090815260408083208380526009810190925290912054849190600160a060020a031633146112d557600080fd5b6112e28560008686612032565b5050505050565b3033146112f557600080fd5b6105488360018484612032565b61131833600035600160e060020a031916611f30565b151561132357600080fd5b6000805473ffffffffffffffffffffffffffffffffffffffff1916600160a060020a03838116919091178083556040519116917f1abebea81bfa2637f28358c371278fb15ede7ea8dd28d2e03b112ff6d936ada491a250565b6000808080600160a060020a03851615156113ec57600160a060020a0385166000908152600d60205260409020546113e5906113ba90303190612110565b600160a060020a03871660009081526000805160206122368339815191526020526040902054612110565b935061149b565b8490506114986113ba82600160a060020a03166370a08231306040518263ffffffff1660e060020a0281526004018082600160a060020a0316600160a060020a0316815260200191505060206040518083038186803b15801561144e57600080fd5b505afa158015611462573d6000803e3d6000fd5b505050506040513d602081101561147857600080fd5b5051600160a060020a0388166000908152600d6020526040902054612110565b93505b6114a3611093565b848115156114ad57fe5b6004549190049350600160a060020a03868116911614156114cd57600092505b6114d78484612110565b600160a060020a0386166000908152600d60205260409020549092506114fd9083612120565b600160a060020a0386166000908152600d60209081526040808320939093557fad67d757c34507f157cacfa2e3153e9f260a2244f30428821be7be64587ac55f9052205461154b9083612120565b600160a060020a03861660009081527fad67d757c34507f157cacfa2e3153e9f260a2244f30428821be7be64587ac55f6020908152604080832093909355600080516020612236833981519152905220546115a69084612120565b600160a060020a039095166000908152600080516020612236833981519152602052604090209490945550505050565b600154600160a060020a031681565b60006115fd33600035600160e060020a031916611f30565b151561160857600080fd5b600160a060020a0382166000908152600a602052604090205460ff161561169f576040805160e560020a62461bcd02815260206004820152602160248201527f636f6c6f6e792d7265776172642d7061796f75742d746f6b656e2d616374697660448201527f6500000000000000000000000000000000000000000000000000000000000000606482015290519081900360840190fd5b6117b5600460009054906101000a9004600160a060020a0316600160a060020a03166318160ddd6040518163ffffffff1660e060020a02815260040160206040518083038186803b1580156116f357600080fd5b505afa158015611707573d6000803e3d6000fd5b505050506040513d602081101561171d57600080fd5b505160048054604080517f70a08231000000000000000000000000000000000000000000000000000000008152309381019390935251600160a060020a03909116916370a08231916024808301926020929190829003018186803b15801561178457600080fd5b505afa158015611798573d6000803e3d6000fd5b505050506040513d60208110156117ae57600080fd5b5051612110565b905060008111611835576040805160e560020a62461bcd02815260206004820152602960248201527f636f6c6f6e792d7265776172642d7061796f75742d696e76616c69642d746f7460448201527f616c2d746f6b656e730000000000000000000000000000000000000000000000606482015290519081900360840190fd5b600160a060020a038083166000908152600a6020908152604091829020805460ff19166001908117909155600b80549091019055815160a081018084526003547f97824c3f0000000000000000000000000000000000000000000000000000000090915292519093849316916397824c3f9160a4808601929190818703018186803b1580156118c357600080fd5b505afa1580156118d7573d6000803e3d6000fd5b505050506040513d60208110156118ed57600080fd5b505181526020808201849052600160a060020a03858116600081815260008051602061223683398151915284526040808220548187015260608087019390935242608096870152600b8054835260098652818320885181559588015160018701558782015160028701559287015160038601805473ffffffffffffffffffffffffffffffffffffffff1916919095161790935594909301516004909201919091559054905190917f8d6b4c51eefb20b9dfd08426b6dda769b4e63a966eee3f221b93d602bb11249b91a25050565b600054600160a060020a031681565b600b5490565b600b54336000908152600c60205260409020546119ed9083612120565b1115611a69576040805160e560020a62461bcd02815260206004820152602860248201527f636f6c6f6e792d7265776172642d7061796f75742d696e76616c69642d6e756d60448201527f2d7061796f757473000000000000000000000000000000000000000000000000606482015290519081900360840190fd5b336000908152600c6020526040902080549091019055565b6000838152600760205260408120600201548190819081908190819081908a9060ff161515611aaf57600080fd5b60008b81526007602090815260408083208d84526009810190925290912054909850600160a060020a03163314611b56576040805160e560020a62461bcd02815260206004820152602160248201527f636f6c6f6e792d636c61696d2d7061796f75742d6163636573732d64656e696560448201527f6400000000000000000000000000000000000000000000000000000000000000606482015290519081900360840190fd5b60008a8152600b890160209081526040808320600160a060020a038d1684528252808320805490849055600a8c0190925290912054909750611b989088612110565b600160a060020a038a166000818152600a8b01602090815260408083209490945560058c0154825260088152838220928252919091522054611bda9088612110565b60058901546000908152600860209081526040808320600160a060020a038e168452825280832093909355600d90522054611c159088612110565b600160a060020a038a166000908152600d6020526040902055611c36611093565b87811515611c4057fe5b049550611c4d8787612110565b9450600160a060020a0389161515611d655760008a8152600989016020526040808220549051600160a060020a039091169187156108fc02918891818181858888f19350505050158015611ca5573d6000803e3d6000fd5b50600360009054906101000a9004600160a060020a0316935083600160a060020a031663731bc22f6040518163ffffffff1660e060020a02815260040160206040518083038186803b158015611cfa57600080fd5b505afa158015611d0e573d6000803e3d6000fd5b505050506040513d6020811015611d2457600080fd5b5051604051909350600160a060020a0384169087156108fc029088906000818181858888f19350505050158015611d5f573d6000803e3d6000fd5b50610d62565b60008a815260098901602090815260408083205481517fa9059cbb000000000000000000000000000000000000000000000000000000008152600160a060020a039182166004820152602481018a905291518d96509086169363a9059cbb93604480850194919392918390030190829087803b158015611de457600080fd5b505af1158015611df8573d6000803e3d6000fd5b505050506040513d6020811015611e0e57600080fd5b5050600354604080517fa9059cbb000000000000000000000000000000000000000000000000000000008152600160a060020a0392831660048201526024810189905290519184169163a9059cbb916044808201926020929091908290030181600087803b158015611e7f57600080fd5b505af1158015611e93573d6000803e3d6000fd5b505050506040513d6020811015611ea957600080fd5b50505050505050505050505050565b6000828152600860209081526040808320600160a060020a03851684529091529020545b92915050565b6000928352600760209081526040808520938552600b9093018152828420600160a060020a039290921684525290205490565b600160a060020a03166000908152600c602052604090205490565b6000600160a060020a038316301415611f4b57506001611edc565b600154600160a060020a0384811691161415611f6957506001611edc565b600054600160a060020a03161515611f8357506000611edc565b600054604080517fb7009613000000000000000000000000000000000000000000000000000000008152600160a060020a038681166004830152306024830152600160e060020a0319861660448301529151919092169163b7009613916064808301926020929190829003018186803b158015611fff57600080fd5b505afa158015612013573d6000803e3d6000fd5b505050506040513d602081101561202957600080fd5b50519050611edc565b600080600086601054811115151561204957600080fd5b600088815260076020526040902060020154889060ff161561206a57600080fd5b60008981526007602090815260408083208b8452600b81018352818420600160a060020a038c16855283528184208054908b9055600a8201909352922054919650945092506120c26120bc8486612110565b87612120565b600160a060020a0388166000908152600a870160205260409020556110888988856121aa565b600081158061210557505080820282828281151561210257fe5b04145b1515611edc57600080fd5b80820382811115611edc57600080fd5b80820182811015611edc57600080fd5b6000838152600760209081526040808320600160a060020a038616808552600a82018452828520546005830154865260088552838620918652935292205481841061218e57818110156121895760048301805460010190555b6121a2565b8181106121a2576004830180546000190190555b505050505050565b6000838152600760209081526040808320600160a060020a038616808552600a82018452828520546005830154865260088552838620918652935292205483811061218e57818110156121895760048301805460010190556121a2565b6040805160a0810182526000808252602082018190529181018290526060810182905260808101919091529056005eff886ea0ce6ca488a3d6e336d6c0f75f46d19b42c06ce5ee98e42c96d256c7636f6c6f6e792d7265776172642d7061796f75742d696e76616c69642d706172a165627a7a7230582031e167143866400561302809dc70cb8d9c90020f2061c3ee5445ffe9e31b87350029",
  "source": "/*\n  This file is part of The Colony Network.\n\n  The Colony Network is free software: you can redistribute it and/or modify\n  it under the terms of the GNU General Public License as published by\n  the Free Software Foundation, either version 3 of the License, or\n  (at your option) any later version.\n\n  The Colony Network is distributed in the hope that it will be useful,\n  but WITHOUT ANY WARRANTY; without even the implied warranty of\n  MERCHANTABILITY or FITNESS FOR A PARTICULAR PURPOSE.  See the\n  GNU General Public License for more details.\n\n  You should have received a copy of the GNU General Public License\n  along with The Colony Network. If not, see <http://www.gnu.org/licenses/>.\n*/\n\npragma solidity ^0.4.23;\npragma experimental \"v0.5.0\";\n\nimport \"../lib/dappsys/math.sol\";\nimport \"./SafeMath.sol\";\nimport \"./ERC20Extended.sol\";\nimport \"./IColonyNetwork.sol\";\nimport \"./ColonyStorage.sol\";\n\n\ncontract ColonyFunding is ColonyStorage, DSMath {\n  event RewardPayoutCycleStarted(uint256 indexed id);\n  event RewardPayoutCycleEnded(uint256 indexed id);\n\n  function getFeeInverse() public pure returns (uint256) {\n    // TODO: refer to ColonyNetwork\n    return 100;\n  }\n\n  function getRewardInverse() public pure returns (uint256) {\n    // TODO: Make settable by colony\n    return 100;\n  }\n\n  function setTaskManagerPayout(uint256 _id, address _token, uint256 _amount) public isManager(_id) {\n    setTaskPayout(_id, MANAGER, _token, _amount);\n  }\n\n  function setTaskEvaluatorPayout(uint256 _id, address _token, uint256 _amount) public self {\n    setTaskPayout(_id, EVALUATOR, _token, _amount);\n  }\n\n  function setTaskWorkerPayout(uint256 _id, address _token, uint256 _amount) public self {\n    setTaskPayout(_id, WORKER, _token, _amount);\n  }\n\n  // To get all payouts for a task iterate over roles.length\n  function getTaskPayout(uint256 _id, uint256 _role, address _token) public view\n  returns (uint256)\n  {\n    Task storage task = tasks[_id];\n    return task.payouts[_role][_token];\n  }\n\n  function claimPayout(uint256 _id, uint256 _role, address _token) public\n  taskFinalized(_id)\n  {\n    Task storage task = tasks[_id];\n    require(task.roles[_role].user == msg.sender, \"colony-claim-payout-access-denied\");\n    uint payout = task.payouts[_role][_token];\n    task.payouts[_role][_token] = 0;\n    task.totalPayouts[_token] = sub(task.totalPayouts[_token], payout);\n    pots[task.potId].balance[_token] = sub(pots[task.potId].balance[_token], payout);\n    nonRewardPotsTotal[_token] = sub(nonRewardPotsTotal[_token], payout);\n    uint fee = payout / getFeeInverse();\n    uint remainder = sub(payout, fee);\n    if (_token == 0x0) {\n      // Payout ether\n      task.roles[_role].user.transfer(remainder);\n      // Fee goes directly to Meta Colony\n      IColonyNetwork colonyNetworkContract = IColonyNetwork(colonyNetworkAddress);\n      address metaColonyAddress = colonyNetworkContract.getMetaColony();\n      metaColonyAddress.transfer(fee);\n    } else {\n      // Payout token\n      // TODO: If it's a whitelisted token, it goes straight to the metaColony\n      // If it's any other token, goes to the colonyNetwork contract first to be auctioned.\n      ERC20Extended payoutToken = ERC20Extended(_token);\n      payoutToken.transfer(task.roles[_role].user, remainder);\n      payoutToken.transfer(colonyNetworkAddress, fee);\n    }\n  }\n\n  function getPotBalance(uint256 _potId, address _token) public view returns (uint256) {\n    return pots[_potId].balance[_token];\n  }\n\n  function moveFundsBetweenPots(uint256 _fromPot, uint256 _toPot, uint256 _amount, address _token) public\n  auth\n  {\n    // Prevent people moving funds from the pot for paying out token holders\n    require(_fromPot > 0, \"colony-funding-cannot-move-funds-from-pot-0\");\n    // TODO Only allow sending from created pots - perhaps not necessary explicitly, but if not, note as such here.\n    require(_toPot <= potCount, \"colony-funding-nonexistent-pot\"); // Only allow sending to created pots\n    if (pots[_fromPot].taskId > 0) {\n      Task storage task = tasks[pots[_fromPot].taskId];\n      require(task.finalized == false || task.totalPayouts[_token] == 0, \"colony-funding-bad-state\");\n      // i.e. if this pot is associated with a task, prevent money being taken from the pot if the task\n      // has been finalized, unless everyone has been paid out.\n    }\n    // TODO: At some point, funds have to be unable to be removed from tasks (until everyone's been paid and\n    // extra funds can be reclaimed)\n    uint fromPotPreviousAmount = pots[_fromPot].balance[_token];\n    uint toPotPreviousAmount = pots[_toPot].balance[_token];\n    pots[_fromPot].balance[_token] = sub(fromPotPreviousAmount, _amount);\n    pots[_toPot].balance[_token] = add(toPotPreviousAmount, _amount);\n    uint fromTaskId = pots[_fromPot].taskId;\n    uint toTaskId = pots[_toPot].taskId;\n    updateTaskPayoutsWeCannotMakeAfterPotChange(toTaskId, _token, toPotPreviousAmount);\n    updateTaskPayoutsWeCannotMakeAfterPotChange(fromTaskId, _token, fromPotPreviousAmount);\n  }\n\n  function claimColonyFunds(address _token) public {\n    uint toClaim;\n    uint feeToPay;\n    uint remainder;\n    if (_token == 0x0) {\n      // It's ether\n      toClaim = sub(sub(address(this).balance, nonRewardPotsTotal[_token]), pots[0].balance[_token]);\n    } else {\n      // Assume it's an ERC 20 token.\n      ERC20Extended targetToken = ERC20Extended(_token);\n      toClaim = sub(sub(targetToken.balanceOf(this), nonRewardPotsTotal[_token]), pots[0].balance[_token]);\n    }\n    feeToPay = toClaim / getRewardInverse();\n    if (token == _token) { // Well this line isn't easy to understand\n      // Basically, if we're using our own tokens, then we don't siphon off a chunk for rewards\n      feeToPay = 0;\n    }\n    remainder = sub(toClaim, feeToPay);\n    nonRewardPotsTotal[_token] = add(nonRewardPotsTotal[_token], remainder);\n    pots[1].balance[_token] = add(pots[1].balance[_token], remainder);\n    pots[0].balance[_token] = add(pots[0].balance[_token], feeToPay);\n  }\n\n  function getNonRewardPotsTotal(address _token) public view returns (uint256) {\n    return nonRewardPotsTotal[_token];\n  }\n\n  function getGlobalRewardPayoutCount() public view returns (uint256) {\n    return globalRewardPayoutCount;\n  }\n\n  function getUserRewardPayoutCount(address _user) public view returns (uint256) {\n    return userRewardPayoutCount[_user];\n  }\n\n  function startNextRewardPayout(address _token) public auth {\n    require(!activeRewardPayouts[_token], \"colony-reward-payout-token-active\");\n\n    uint256 totalTokens = sub(token.totalSupply(), token.balanceOf(address(this)));\n    require(totalTokens > 0, \"colony-reward-payout-invalid-total-tokens\");\n\n    activeRewardPayouts[_token] = true;\n    globalRewardPayoutCount += 1;\n\n    //TODO: Lock everyones tokens\n\n    rewardPayoutCycles[globalRewardPayoutCount] = RewardPayoutCycle(\n      IColonyNetwork(colonyNetworkAddress).getReputationRootHash(),\n      totalTokens,\n      pots[0].balance[_token],\n      _token,\n      block.timestamp\n    );\n\n    emit RewardPayoutCycleStarted(globalRewardPayoutCount);\n  }\n\n  function claimRewardPayout(uint256 _payoutId, uint256[7] _squareRoots, uint256 _userReputation, uint256 _totalReputation) public {\n    RewardPayoutCycle memory payout = rewardPayoutCycles[_payoutId];\n    require(block.timestamp - payout.blockTimestamp <= 60 days, \"colony-reward-payout-not-active\");\n    require(_payoutId - userRewardPayoutCount[msg.sender] == 1, \"colony-reward-payout-bad-id\");\n\n    //TODO: Prove that userReputation and totalReputation in reputationState are correct\n\n    uint256 userTokens = token.balanceOf(msg.sender);\n\n    require(_totalReputation > 0, \"colony-reward-payout-invalid-total-reputation\");\n    require(userTokens > 0, \"colony-reward-payout-invalid-user-tokens\");\n    require(_userReputation > 0, \"colony-reward-payout-invalid-user-reputation\");\n\n    // squareRoots[0] - square root of _userReputation\n    // squareRoots[1] - square root of userTokens\n    // squareRoots[2] - square root of _totalReputation\n    // squareRoots[3] - square root of totalTokens\n    // squareRoots[4] - square root of numerator\n    // squareRoots[5] - square root of denominator\n    // squareRoots[6] - square root of payout.amount\n\n    require(mul(_squareRoots[0], _squareRoots[0]) <= _userReputation, \"colony-reward-payout-invalid-parametar-user-reputation\");\n    require(mul(_squareRoots[1], _squareRoots[1]) <= userTokens, \"colony-reward-payout-invalid-parametar-user-token\");\n    require(mul(_squareRoots[2], _squareRoots[2]) <= _totalReputation, \"colony-reward-payout-invalid-parametar-total-reputation\");\n    require(mul(_squareRoots[3], _squareRoots[3]) <= payout.totalTokens, \"colony-reward-payout-invalid-parametar-total-tokens\");\n    require(mul(_squareRoots[6], _squareRoots[6]) <= payout.amount, \"colony-reward-payout-invalid-parametar-amount\");\n    uint256 numerator = mul(_squareRoots[0], _squareRoots[1]);\n    uint256 denominator = mul(_squareRoots[2], _squareRoots[3]);\n\n    require(mul(_squareRoots[4], _squareRoots[4]) <= numerator, \"colony-reward-payout-invalid-parametar-numerator\");\n    require(mul(_squareRoots[5], _squareRoots[5]) <= denominator, \"colony-reward-payout-invalid-parametar-denominator\");\n\n    uint256 reward = (mul(_squareRoots[4], _squareRoots[6]) / (_squareRoots[5] + 1)) ** 2;\n\n    pots[0].balance[payout.tokenAddress] = sub(pots[0].balance[payout.tokenAddress], reward);\n\n    userRewardPayoutCount[msg.sender] += 1;\n\n    // TODO: Unlock user tokens\n\n    ERC20Extended(payout.tokenAddress).transfer(msg.sender, reward);\n  }\n\n  function waiveRewardPayouts(uint256 _numPayouts) public {\n    require(add(userRewardPayoutCount[msg.sender], _numPayouts) <= globalRewardPayoutCount, \"colony-reward-payout-invalid-num-payouts\");\n\n    userRewardPayoutCount[msg.sender] += _numPayouts;\n\n    //TODO unlock user tokens\n  }\n\n  function finalizeRewardPayout(uint256 _payoutId) public {\n    require(_payoutId <= globalRewardPayoutCount, \"colony-reward-payout-not-found\");\n\n    RewardPayoutCycle memory payout = rewardPayoutCycles[_payoutId];\n\n    require(activeRewardPayouts[payout.tokenAddress], \"colony-reward-payout-token-not-active\");\n    require(block.timestamp - payout.blockTimestamp > 60 days, \"colony-reward-payout-active\");\n\n    activeRewardPayouts[payout.tokenAddress] = false;\n\n    emit RewardPayoutCycleEnded(_payoutId);\n  }\n\n  function getRewardPayoutInfo(uint256 _payoutId) public view returns (bytes32, uint256, uint256, address, uint256) {\n    RewardPayoutCycle memory rewardPayoutInfo = rewardPayoutCycles[_payoutId];\n    return (rewardPayoutInfo.reputationState, rewardPayoutInfo.totalTokens, rewardPayoutInfo.amount, rewardPayoutInfo.tokenAddress, rewardPayoutInfo.blockTimestamp);\n  }\n\n  function updateTaskPayoutsWeCannotMakeAfterPotChange(uint256 _id, address _token, uint _prev) internal {\n    Task storage task = tasks[_id];\n    uint totalTokenPayout = task.totalPayouts[_token];\n    uint tokenPot = pots[task.potId].balance[_token];\n    if (_prev >= totalTokenPayout) {                                   // If the old amount in the pot was enough to pay for the budget\n      if (tokenPot < totalTokenPayout) {                               // And the new amount in the pot is not enough to pay for the budget...\n        task.payoutsWeCannotMake += 1;                                  // Then this is a set of payouts we cannot make that we could before.\n      }\n    } else {                                                            // If this 'else' is running, then the old amount in the pot could not pay for the budget\n      if (tokenPot >= totalTokenPayout) {                             // And the new amount in the pot can pay for the budget\n        task.payoutsWeCannotMake -= 1;                                  // Then this is a set of payouts we can make that we could not before.\n      }\n    }\n  }\n\n  function updateTaskPayoutsWeCannotMakeAfterBudgetChange(uint256 _id, address _token, uint _prev) internal {\n    Task storage task = tasks[_id];\n    uint totalTokenPayout = task.totalPayouts[_token];\n    uint tokenPot = pots[task.potId].balance[_token];\n    if (tokenPot >= _prev) {                                          // If the amount in the pot was enough to pay for the old budget...\n      if (tokenPot < totalTokenPayout) {                              // And the amount is not enough to pay for the new budget...\n        task.payoutsWeCannotMake += 1;                                 // Then this is a set of payouts we cannot make that we could before.\n      }\n    } else {                                                           // If this 'else' is running, then the amount in the pot was not enough to pay for the old budget\n      if (tokenPot >= totalTokenPayout) {                             // And the amount is enough to pay for the new budget...\n        task.payoutsWeCannotMake -= 1;                                 // Then this is a set of payouts we can make that we could not before.\n      }\n    }\n  }\n\n  function setTaskPayout(uint256 _id, uint256 _role, address _token, uint256 _amount) private\n  taskExists(_id)\n  taskNotFinalized(_id)\n  {\n    Task storage task = tasks[_id];\n    uint currentAmount = task.payouts[_role][_token];\n    task.payouts[_role][_token] = _amount;\n\n    uint currentTotalAmount = task.totalPayouts[_token];\n    task.totalPayouts[_token] = add(sub(currentTotalAmount, currentAmount), _amount);\n    updateTaskPayoutsWeCannotMakeAfterBudgetChange(_id, _token, currentTotalAmount);\n  }\n}\n",
  "sourcePath": "/root/intuition-machine/colonyNetwork/contracts/ColonyFunding.sol",
  "compiler": {
    "name": "solc",
    "version": "0.4.24+commit.e67f0147.Emscripten.clang"
  },
  "schemaVersion": "2.0.0",
  "updatedAt": "2018-06-20T09:03:26.421Z"
}