{
  "contractName": "Colony",
  "abi": [
    {
      "constant": false,
      "inputs": [
        {
          "name": "owner_",
          "type": "address"
        }
      ],
      "name": "setOwner",
      "outputs": [],
      "payable": false,
      "stateMutability": "nonpayable",
      "type": "function"
    },
    {
      "constant": true,
      "inputs": [
        {
          "name": "",
          "type": "uint256"
        }
      ],
      "name": "taskWorkRatings",
      "outputs": [
        {
          "name": "count",
          "type": "uint256"
        },
        {
          "name": "timestamp",
          "type": "uint256"
        }
      ],
      "payable": false,
      "stateMutability": "view",
      "type": "function"
    },
    {
      "constant": true,
      "inputs": [
        {
          "name": "",
          "type": "uint256"
        }
      ],
      "name": "domains",
      "outputs": [
        {
          "name": "skillId",
          "type": "uint256"
        },
        {
          "name": "potId",
          "type": "uint256"
        }
      ],
      "payable": false,
      "stateMutability": "view",
      "type": "function"
    },
    {
      "constant": false,
      "inputs": [
        {
          "name": "authority_",
          "type": "address"
        }
      ],
      "name": "setAuthority",
      "outputs": [],
      "payable": false,
      "stateMutability": "nonpayable",
      "type": "function"
    },
    {
      "constant": true,
      "inputs": [
        {
          "name": "key",
          "type": "bytes"
        },
        {
          "name": "value",
          "type": "bytes"
        },
        {
          "name": "branchMask",
          "type": "uint256"
        },
        {
          "name": "siblings",
          "type": "bytes32[]"
        }
      ],
      "name": "getImpliedRoot",
      "outputs": [
        {
          "name": "",
          "type": "bytes32"
        }
      ],
      "payable": false,
      "stateMutability": "view",
      "type": "function"
    },
    {
      "constant": true,
      "inputs": [],
      "name": "owner",
      "outputs": [
        {
          "name": "",
          "type": "address"
        }
      ],
      "payable": false,
      "stateMutability": "view",
      "type": "function"
    },
    {
      "constant": true,
      "inputs": [],
      "name": "authority",
      "outputs": [
        {
          "name": "",
          "type": "address"
        }
      ],
      "payable": false,
      "stateMutability": "view",
      "type": "function"
    },
    {
      "anonymous": false,
      "inputs": [
        {
          "indexed": true,
          "name": "authority",
          "type": "address"
        }
      ],
      "name": "LogSetAuthority",
      "type": "event"
    },
    {
      "anonymous": false,
      "inputs": [
        {
          "indexed": true,
          "name": "owner",
          "type": "address"
        }
      ],
      "name": "LogSetOwner",
      "type": "event"
    },
    {
      "constant": true,
      "inputs": [],
      "name": "version",
      "outputs": [
        {
          "name": "",
          "type": "uint256"
        }
      ],
      "payable": false,
      "stateMutability": "pure",
      "type": "function"
    },
    {
      "constant": false,
      "inputs": [
        {
          "name": "_token",
          "type": "address"
        }
      ],
      "name": "setToken",
      "outputs": [],
      "payable": false,
      "stateMutability": "nonpayable",
      "type": "function"
    },
    {
      "constant": true,
      "inputs": [],
      "name": "getToken",
      "outputs": [
        {
          "name": "",
          "type": "address"
        }
      ],
      "payable": false,
      "stateMutability": "view",
      "type": "function"
    },
    {
      "constant": false,
      "inputs": [
        {
          "name": "_address",
          "type": "address"
        }
      ],
      "name": "initialiseColony",
      "outputs": [],
      "payable": false,
      "stateMutability": "nonpayable",
      "type": "function"
    },
    {
      "constant": false,
      "inputs": [
        {
          "name": "_users",
          "type": "address[]"
        },
        {
          "name": "_amounts",
          "type": "int256[]"
        }
      ],
      "name": "bootstrapColony",
      "outputs": [],
      "payable": false,
      "stateMutability": "nonpayable",
      "type": "function"
    },
    {
      "constant": false,
      "inputs": [
        {
          "name": "_wad",
          "type": "uint256"
        }
      ],
      "name": "mintTokens",
      "outputs": [],
      "payable": false,
      "stateMutability": "nonpayable",
      "type": "function"
    },
    {
      "constant": false,
      "inputs": [
        {
          "name": "_wad",
          "type": "uint256"
        }
      ],
      "name": "mintTokensForColonyNetwork",
      "outputs": [],
      "payable": false,
      "stateMutability": "nonpayable",
      "type": "function"
    },
    {
      "constant": false,
      "inputs": [
        {
          "name": "_parentSkillId",
          "type": "uint256"
        }
      ],
      "name": "addGlobalSkill",
      "outputs": [
        {
          "name": "",
          "type": "uint256"
        }
      ],
      "payable": false,
      "stateMutability": "nonpayable",
      "type": "function"
    },
    {
      "constant": false,
      "inputs": [
        {
          "name": "_parentSkillId",
          "type": "uint256"
        }
      ],
      "name": "addDomain",
      "outputs": [],
      "payable": false,
      "stateMutability": "nonpayable",
      "type": "function"
    },
    {
      "constant": true,
      "inputs": [
        {
          "name": "_id",
          "type": "uint256"
        }
      ],
      "name": "getDomain",
      "outputs": [
        {
          "name": "",
          "type": "uint256"
        },
        {
          "name": "",
          "type": "uint256"
        }
      ],
      "payable": false,
      "stateMutability": "view",
      "type": "function"
    },
    {
      "constant": true,
      "inputs": [],
      "name": "getDomainCount",
      "outputs": [
        {
          "name": "",
          "type": "uint256"
        }
      ],
      "payable": false,
      "stateMutability": "view",
      "type": "function"
    },
    {
      "constant": false,
      "inputs": [
        {
          "name": "key",
          "type": "bytes"
        },
        {
          "name": "value",
          "type": "bytes"
        },
        {
          "name": "branchMask",
          "type": "uint256"
        },
        {
          "name": "siblings",
          "type": "bytes32[]"
        }
      ],
      "name": "verifyReputationProof",
      "outputs": [
        {
          "name": "",
          "type": "bool"
        }
      ],
      "payable": false,
      "stateMutability": "nonpayable",
      "type": "function"
    }
  ],
  "bytecode": "0x6080604081905260018054600160a060020a03191633908117909155907fce241d7ca1f669fee44b6fc00b8eba2df3bb514eed0f6f668f8f89096e81ed9490600090a2611a0b806100516000396000f3006080604052600436106100ed5763ffffffff60e060020a60003504166313af403581146100f257806313e91f0814610115578063144fa6d71461013c5780631a7a98e21461015d5780631c8151c91461018e5780631e7b9cce146101a657806321df0da7146101be5780632714a7fd146101ef57806354fd4d50146102075780635d90f53c1461021c57806366cf8fab1461023d5780637a9e5e4b146102555780637f8b9478146102765780638da5cb5b1461034d57806396d933e01461036257806397304ced1461044d578063bf7e214f14610465578063e723d6311461047a578063eab9b8a614610508575b600080fd5b3480156100fe57600080fd5b50610113600160a060020a0360043516610520565b005b34801561012157600080fd5b5061012a61059e565b60408051918252519081900360200190f35b34801561014857600080fd5b50610113600160a060020a03600435166105a5565b34801561016957600080fd5b506101756004356105f5565b6040805192835260208301919091528051918290030190f35b34801561019a57600080fd5b5061011360043561060f565b3480156101b257600080fd5b50610113600435610820565b3480156101ca57600080fd5b506101d3610ac7565b60408051600160a060020a039092168252519081900360200190f35b3480156101fb57600080fd5b50610175600435610ad6565b34801561021357600080fd5b5061012a610aef565b34801561022857600080fd5b50610113600160a060020a0360043516610af4565b34801561024957600080fd5b50610175600435610d3e565b34801561026157600080fd5b50610113600160a060020a0360043516610d57565b34801561028257600080fd5b506040805160206004803580820135601f810184900484028501840190955284845261012a94369492936024939284019190819084018382808284375050604080516020601f89358b018035918201839004830284018301909452808352979a99988101979196509182019450925082915084018382808284375050604080516020808901358a01803580830284810184018652818552999c8b359c909b909a950198509296508101945090925082919085019084908082843750949750610dd19650505050505050565b34801561035957600080fd5b506101d361103e565b34801561036e57600080fd5b506040805160206004803580820135601f810184900484028501840190955284845261043994369492936024939284019190819084018382808284375050604080516020601f89358b018035918201839004830284018301909452808352979a99988101979196509182019450925082915084018382808284375050604080516020808901358a01803580830284810184018652818552999c8b359c909b909a95019850929650810194509092508291908501908490808284375094975061104d9650505050505050565b604080519115158252519081900360200190f35b34801561045957600080fd5b50610113600435611199565b34801561047157600080fd5b506101d3611239565b34801561048657600080fd5b506040805160206004803580820135838102808601850190965280855261011395369593946024949385019291829185019084908082843750506040805187358901803560208181028481018201909552818452989b9a9989019892975090820195509350839250850190849080828437509497506112489650505050505050565b34801561051457600080fd5b5061012a60043561151b565b61053633600035600160e060020a0319166115be565b151561054157600080fd5b6001805473ffffffffffffffffffffffffffffffffffffffff1916600160a060020a0383811691909117918290556040519116907fce241d7ca1f669fee44b6fc00b8eba2df3bb514eed0f6f668f8f89096e81ed9490600090a250565b6012545b90565b6105bb33600035600160e060020a0319166115be565b15156105c657600080fd5b6004805473ffffffffffffffffffffffffffffffffffffffff1916600160a060020a0392909216919091179055565b6000908152600f6020526040902080546001909101549091565b600354604080517f440d88e0000000000000000000000000000000000000000000000000000000008152600481018490529051600092839283928692600160a060020a031691829163440d88e091602480820192602092909190829003018186803b15801561067d57600080fd5b505afa158015610691573d6000803e3d6000fd5b505050506040513d60208110156106a757600080fd5b5051156106b357600080fd5b6001600052600f6020527f169f97de0d9a84d840042b17d3c6b9638b3d6fd9024c9eb0c7a306a17b49f88f549450858514610738576040805160e560020a62461bcd02815260206004820152601c60248201527f636f6c6f6e792d706172656e742d736b696c6c2d6e6f742d726f6f7400000000604482015290519081900360640190fd5b600354604080517f32b9cf33000000000000000000000000000000000000000000000000000000008152600481018990526000602482018190529151600160a060020a03909316965086926332b9cf3392604480840193602093929083900390910190829087803b1580156107ac57600080fd5b505af11580156107c0573d6000803e3d6000fd5b505050506040513d60208110156107d657600080fd5b5051601280546001908101918290556011805482019081905560408051808201825294855260208581019283526000948552600f9052909220925183559051910155505050505050565b600354600160a060020a031633146108a8576040805160e560020a62461bcd02815260206004820152602960248201527f636f6c6f6e792d6163636573732d64656e6965642d6f6e6c792d6e6574776f7260448201527f6b2d616c6c6f7765640000000000000000000000000000000000000000000000606482015290519081900360840190fd5b600360009054906101000a9004600160a060020a0316600160a060020a031663731bc22f6040518163ffffffff1660e060020a02815260040160206040518083038186803b1580156108f957600080fd5b505afa15801561090d573d6000803e3d6000fd5b505050506040513d602081101561092357600080fd5b5051600160a060020a031630146109aa576040805160e560020a62461bcd02815260206004820152602d60248201527f636f6c6f6e792d6163636573732d64656e6965642d6f6e6c792d6d6574612d6360448201527f6f6c6f6e792d616c6c6f77656400000000000000000000000000000000000000606482015290519081900360840190fd5b60048054604080517fa0712d6800000000000000000000000000000000000000000000000000000000815292830184905251600160a060020a039091169163a0712d6891602480830192600092919082900301818387803b158015610a0e57600080fd5b505af1158015610a22573d6000803e3d6000fd5b505060048054600354604080517fa9059cbb000000000000000000000000000000000000000000000000000000008152600160a060020a039283169481019490945260248401879052519116935063a9059cbb925060448083019260209291908290030181600087803b158015610a9857600080fd5b505af1158015610aac573d6000803e3d6000fd5b505050506040513d6020811015610ac257600080fd5b505050565b600454600160a060020a031690565b600e602052600090815260409020805460019091015482565b600190565b6003546000908190600160a060020a031615610b5a576040805160e560020a62461bcd02815260206004820152601d60248201527f636f6c6f6e792d696e697469616c6973652d6261642d61646472657373000000604482015290519081900360640190fd5b6003805473ffffffffffffffffffffffffffffffffffffffff1916600160a060020a0385161790556001601155610bb47fda4db24900000000000000000000000000000000000000000000000000000000600060026116c2565b610be17fcae960fe00000000000000000000000000000000000000000000000000000000600060026116c2565b610c0e7f6fb0794f00000000000000000000000000000000000000000000000000000000600060016116c2565b610c3b7f2cf62b3900000000000000000000000000000000000000000000000000000000600060026116c2565b601280546001019055600354604080517f05f53b290000000000000000000000000000000000000000000000000000000081529051600160a060020a03909216935083916305f53b2991600480820192602092909190829003018186803b158015610ca557600080fd5b505afa158015610cb9573d6000803e3d6000fd5b505050506040513d6020811015610ccf57600080fd5b50516040805180820190915290815260016020828101828152600092909252600f905290517f169f97de0d9a84d840042b17d3c6b9638b3d6fd9024c9eb0c7a306a17b49f88f55517f169f97de0d9a84d840042b17d3c6b9638b3d6fd9024c9eb0c7a306a17b49f89055505050565b600f602052600090815260409020805460019091015482565b610d6d33600035600160e060020a0319166115be565b1515610d7857600080fd5b6000805473ffffffffffffffffffffffffffffffffffffffff1916600160a060020a03838116919091178083556040519116917f1abebea81bfa2637f28358c371278fb15ede7ea8dd28d2e03b112ff6d936ada491a250565b6000610ddb6118dc565b610de36118f3565b6000806000610df0611913565b60408051908101604052808c6040518082805190602001908083835b60208310610e2b5780518252601f199092019160209182019101610e0c565b6001836020036101000a03801982511681845116808217855250505050505090500191505060405180910390206000191681526020016101008152509550896040518082805190602001908083835b60208310610e995780518252601f199092019160209182019101610e7a565b5181516020939093036101000a600019018019909116921691909117905260405192018290039091208852506000955050505b881561101f57610edb8961170b565b60ff1692508260019060020a021989169850610f038360ff038761176490919063ffffffff16565b60208701819052909650610f16906117d8565b60208701529150610f268561183f565b818360028110610f3257fe5b60200201528751889085810360001901908110610f4b57fe5b906020019060200201518183600103600281101515610f6657fe5b6020908102919091019190915260408051839201908190839080838360005b83811015610f9d578181015183820152602001610f85565b505050509050019150506040516020818303038152906040526040518082805190602001908083835b60208310610fe55780518252601f199092019160209182019101610fc6565b5181516020939093036101000a60001901801990911692169190911790526040519201829003909120885250505060019390930192610ecc565b6020850186905261102f8561183f565b9b9a5050505050505050505050565b600154600160a060020a031681565b6020840151603485015160548601516000928392839289926c0100000000000000000000000090819004929104600160a060020a038316301461108f57600080fd5b600160a060020a03811633146110a457600080fd5b600360009054906101000a9004600160a060020a0316600160a060020a03166397824c3f6040518163ffffffff1660e060020a02815260040160206040518083038186803b1580156110f557600080fd5b505afa158015611109573d6000803e3d6000fd5b505050506040513d602081101561111f57600080fd5b5051955061112f8b8b8b8b610dd1565b9450858514611188576040805160e560020a62461bcd02815260206004820152601f60248201527f636f6c6f6e792d696e76616c69642d72657075746174696f6e2d70726f6f6600604482015290519081900360640190fd5b5060019a9950505050505050505050565b6111af33600035600160e060020a0319166115be565b15156111ba57600080fd5b60048054604080517fa0712d6800000000000000000000000000000000000000000000000000000000815292830184905251600160a060020a039091169163a0712d6891602480830192600092919082900301818387803b15801561121e57600080fd5b505af1158015611232573d6000803e3d6000fd5b5050505050565b600054600160a060020a031681565b600061126033600035600160e060020a0319166115be565b151561126b57600080fd5b6010541561127857600080fd5b81518351146112d1576040805160e560020a62461bcd02815260206004820152601b60248201527f636f6c6f6e792d626f6f7473747261702d6261642d696e707574730000000000604482015290519081900360640190fd5b5060005b8251811015610ac257600082828151811015156112ee57fe5b602090810290910101511215611374576040805160e560020a62461bcd02815260206004820152602160248201527f636f6c6f6e792d626f6f7473747261702d6261642d616d6f756e742d696e707560448201527f7400000000000000000000000000000000000000000000000000000000000000606482015290519081900360840190fd5b6004548351600160a060020a039091169063a9059cbb9085908490811061139757fe5b9060200190602002015184848151811015156113af57fe5b906020019060200201516040518363ffffffff1660e060020a0281526004018083600160a060020a0316600160a060020a0316815260200182815260200192505050602060405180830381600087803b15801561140b57600080fd5b505af115801561141f573d6000803e3d6000fd5b505050506040513d602081101561143557600080fd5b50506003548351600160a060020a0390911690635a8adafa9085908490811061145a57fe5b90602001906020020151848481518110151561147257fe5b602090810290910181015160016000908152600f9092527f169f97de0d9a84d840042b17d3c6b9638b3d6fd9024c9eb0c7a306a17b49f88f546040805160e060020a63ffffffff8816028152600160a060020a039095166004860152602485019290925260448401525160648084019382900301818387803b1580156114f757600080fd5b505af115801561150b573d6000803e3d6000fd5b5050600190920191506112d59050565b600354604080517f32b9cf3300000000000000000000000000000000000000000000000000000000815260048101849052600160248201529051600092600160a060020a03169182916332b9cf339160448082019260209290919082900301818887803b15801561158b57600080fd5b505af115801561159f573d6000803e3d6000fd5b505050506040513d60208110156115b557600080fd5b50519392505050565b6000600160a060020a0383163014156115d9575060016116bc565b600154600160a060020a03848116911614156115f7575060016116bc565b600054600160a060020a03161515611611575060006116bc565b600054604080517fb7009613000000000000000000000000000000000000000000000000000000008152600160a060020a038681166004830152306024830152600160e060020a0319861660448301529151919092169163b7009613916064808301926020929190829003018186803b15801561168d57600080fd5b505afa1580156116a1573d6000803e3d6000fd5b505050506040513d60208110156116b757600080fd5b505190505b92915050565b6116ca611913565b5060408051808201825260ff80851682528316602080830191909152600160e060020a0319861660009081526005909152919091206112329082600261192e565b6000808083151561171b57600080fd5b5082905060805b600160ff82161061175d5760001960ff821660020a0182161515611750579182019160ff811660020a909104905b600260ff90911604611722565b5050919050565b61176c6118dc565b6117746118dc565b8360200151831115801561178a57506101008311155b151561179257fe5b602082018390528215156117a957600082526117bb565b835160ff84900360020a600119021682525b60208085015184900390820152925160029290920a909102825291565b60006117e26118dc565b60208301516000106117f357600080fd5b50508051604080518082019091528251600202815260209283015160001901928101929092527f8000000000000000000000000000000000000000000000000000000000000000900491565b8051602080830151808201519051604080518085019590955284810192909252606080850191909152815180850390910181526080909301908190528251600093928291908401908083835b602083106118aa5780518252601f19909201916020918201910161188b565b5181516020939093036101000a6000190180199091169216919091179052604051920182900390912095945050505050565b604080518082019091526000808252602082015290565b6040805160608101909152600081526020810161190e6118dc565b905290565b60408051808201825290600290829080388339509192915050565b6001830191839082156119b15791602002820160005b8382111561198257835183826101000a81548160ff021916908360ff1602179055509260200192600101602081600001049283019260010302611944565b80156119af5782816101000a81549060ff0219169055600101602081600001049283019260010302611982565b505b506119bd9291506119c1565b5090565b6105a291905b808211156119bd57805460ff191681556001016119c75600a165627a7a72305820b25b64689db577f148f4d32b117b5b2e953101a02abd31f81d0d9776f104a3b50029",
  "source": "/*\n  This file is part of The Colony Network.\n\n  The Colony Network is free software: you can redistribute it and/or modify\n  it under the terms of the GNU General Public License as published by\n  the Free Software Foundation, either version 3 of the License, or\n  (at your option) any later version.\n\n  The Colony Network is distributed in the hope that it will be useful,\n  but WITHOUT ANY WARRANTY; without even the implied warranty of\n  MERCHANTABILITY or FITNESS FOR A PARTICULAR PURPOSE.  See the\n  GNU General Public License for more details.\n\n  You should have received a copy of the GNU General Public License\n  along with The Colony Network. If not, see <http://www.gnu.org/licenses/>.\n*/\n\npragma solidity ^0.4.23;\npragma experimental \"v0.5.0\";\n\nimport \"./ERC20Extended.sol\";\nimport \"./IColonyNetwork.sol\";\nimport \"./IColony.sol\";\nimport \"./ColonyStorage.sol\";\nimport \"./PatriciaTree/PatriciaTreeProofs.sol\";\n\n\ncontract Colony is ColonyStorage, PatriciaTreeProofs {\n\n  // This function, exactly as defined, is used in build scripts. Take care when updating.\n  // Version number should be upped with every change in Colony or its dependency contracts or libraries.\n  function version() public pure returns (uint256) { return 1; }\n\n  function setToken(address _token) public\n  auth\n  {\n    token = ERC20Extended(_token);\n  }\n\n  function getToken() public view returns (address) {\n    return token;\n  }\n\n  function initialiseColony(address _address) public {\n    require(colonyNetworkAddress == 0x0, \"colony-initialise-bad-address\");\n    colonyNetworkAddress = _address;\n    potCount = 1;\n\n    // Initialise the task update reviewers\n    setFunctionReviewers(0xda4db249, 0, 2); // setTaskBrief => manager, worker\n    setFunctionReviewers(0xcae960fe, 0, 2); // setTaskDueDate => manager, worker\n    setFunctionReviewers(0x6fb0794f, 0, 1); // setTaskEvaluatorPayout => manager, evaluator\n    setFunctionReviewers(0x2cf62b39, 0, 2); // setTaskWorkerPayout => manager, worker\n\n    // Initialise the root domain\n    domainCount += 1;\n    IColonyNetwork colonyNetwork = IColonyNetwork(colonyNetworkAddress);\n    uint256 rootLocalSkill = colonyNetwork.getSkillCount();\n    domains[1] = Domain({\n      skillId: rootLocalSkill,\n      potId: 1\n    });\n  }\n\n  function bootstrapColony(address[] _users, int[] _amounts) public\n  auth\n  isInBootstrapPhase\n  {\n    require(_users.length == _amounts.length, \"colony-bootstrap-bad-inputs\");\n\n    for (uint i = 0; i < _users.length; i++) {\n      require(_amounts[i] >= 0, \"colony-bootstrap-bad-amount-input\");\n\n      token.transfer(_users[i], uint(_amounts[i]));\n      IColonyNetwork(colonyNetworkAddress).appendReputationUpdateLog(_users[i], _amounts[i], domains[1].skillId);\n    }\n  }\n\n  function mintTokens(uint _wad) public\n  auth\n  {\n    return token.mint(_wad);\n  }\n\n  function mintTokensForColonyNetwork(uint _wad) public {\n    require(msg.sender == colonyNetworkAddress, \"colony-access-denied-only-network-allowed\"); // Only the colony Network can call this function\n    require(this == IColonyNetwork(colonyNetworkAddress).getMetaColony(), \"colony-access-denied-only-meta-colony-allowed\"); // Function only valid on the Meta Colony\n    token.mint(_wad);\n    token.transfer(colonyNetworkAddress, _wad);\n  }\n\n  //TODO: Secure this function\n  function addGlobalSkill(uint _parentSkillId) public\n  returns (uint256)\n  {\n    IColonyNetwork colonyNetwork = IColonyNetwork(colonyNetworkAddress);\n    return colonyNetwork.addSkill(_parentSkillId, true);\n  }\n\n  function addDomain(uint256 _parentSkillId) public\n  localSkill(_parentSkillId)\n  {\n    // Note: remove that when we start allowing more domain hierarchy levels\n    // Instead check that the parent skill id belongs to this colony own domain\n    // Get the local skill id of the root domain\n    uint256 rootDomainSkillId = domains[1].skillId;\n    require(_parentSkillId == rootDomainSkillId, \"colony-parent-skill-not-root\");\n\n    // Setup new local skill\n    IColonyNetwork colonyNetwork = IColonyNetwork(colonyNetworkAddress);\n    uint256 newLocalSkill = colonyNetwork.addSkill(_parentSkillId, false);\n\n    // Add domain to local mapping\n    domainCount += 1;\n    potCount += 1;\n    domains[domainCount] = Domain({\n      skillId: newLocalSkill,\n      potId: potCount\n    });\n  }\n\n  function getDomain(uint256 _id) public view returns (uint256, uint256) {\n    Domain storage d = domains[_id];\n    return (d.skillId, d.potId);\n  }\n\n  function getDomainCount() public view returns (uint256) {\n    return domainCount;\n  }\n  function setFunctionReviewers(bytes4 _sig, uint8 _firstReviewer, uint8 _secondReviewer)\n  private\n  {\n    uint8[2] memory _reviewers = [_firstReviewer, _secondReviewer];\n    reviewers[_sig] = _reviewers;\n  }\n\n  modifier verifyKey(bytes key) {\n    uint256 colonyAddress;\n    uint256 skillid;\n    uint256 userAddress;\n    assembly {\n        colonyAddress := mload(add(key,32))\n        skillid := mload(add(key,52)) // Colony address was 20 bytes long, so add 20 bytes\n        userAddress := mload(add(key,84)) // Skillid was 32 bytes long, so add 32 bytes\n    }\n    colonyAddress >>= 96;\n    userAddress >>= 96;\n    // Require that the user is proving their own reputation in this colony.\n    require(address(colonyAddress) == address(this));\n    require(address(userAddress) == msg.sender);\n    _;\n  }\n\n  function verifyReputationProof(bytes key, bytes value, uint branchMask, bytes32[] siblings)  // solium-disable-line security/no-assign-params\n  verifyKey(key)\n  public returns (bool)\n  {\n    // Get roothash from colonynetwork\n    bytes32 rootHash = IColonyNetwork(colonyNetworkAddress).getReputationRootHash();\n    bytes32 impliedHash = getImpliedRoot(key, value, branchMask, siblings);\n    require(rootHash==impliedHash, \"colony-invalid-reputation-proof\");\n    return true;\n  }\n}\n",
  "sourcePath": "/root/intuition-machine/colonyNetwork/contracts/Colony.sol",
  "compiler": {
    "name": "solc",
    "version": "0.4.24+commit.e67f0147.Emscripten.clang"
  },
  "schemaVersion": "2.0.0",
  "updatedAt": "2018-06-20T09:03:26.395Z"
}