{
  "contractName": "ColonyNetwork",
  "abi": [
    {
      "constant": false,
      "inputs": [
        {
          "name": "owner_",
          "type": "address"
        }
      ],
      "name": "setOwner",
      "outputs": [],
      "payable": false,
      "stateMutability": "nonpayable",
      "type": "function"
    },
    {
      "constant": false,
      "inputs": [
        {
          "name": "authority_",
          "type": "address"
        }
      ],
      "name": "setAuthority",
      "outputs": [],
      "payable": false,
      "stateMutability": "nonpayable",
      "type": "function"
    },
    {
      "constant": true,
      "inputs": [],
      "name": "owner",
      "outputs": [
        {
          "name": "",
          "type": "address"
        }
      ],
      "payable": false,
      "stateMutability": "view",
      "type": "function"
    },
    {
      "constant": true,
      "inputs": [],
      "name": "authority",
      "outputs": [
        {
          "name": "",
          "type": "address"
        }
      ],
      "payable": false,
      "stateMutability": "view",
      "type": "function"
    },
    {
      "anonymous": false,
      "inputs": [
        {
          "indexed": true,
          "name": "id",
          "type": "uint256"
        },
        {
          "indexed": true,
          "name": "colonyAddress",
          "type": "address"
        }
      ],
      "name": "ColonyAdded",
      "type": "event"
    },
    {
      "anonymous": false,
      "inputs": [
        {
          "indexed": false,
          "name": "skillId",
          "type": "uint256"
        },
        {
          "indexed": false,
          "name": "parentSkillId",
          "type": "uint256"
        }
      ],
      "name": "SkillAdded",
      "type": "event"
    },
    {
      "anonymous": false,
      "inputs": [
        {
          "indexed": true,
          "name": "authority",
          "type": "address"
        }
      ],
      "name": "LogSetAuthority",
      "type": "event"
    },
    {
      "anonymous": false,
      "inputs": [
        {
          "indexed": true,
          "name": "owner",
          "type": "address"
        }
      ],
      "name": "LogSetOwner",
      "type": "event"
    },
    {
      "constant": true,
      "inputs": [],
      "name": "getCurrentColonyVersion",
      "outputs": [
        {
          "name": "",
          "type": "uint256"
        }
      ],
      "payable": false,
      "stateMutability": "view",
      "type": "function"
    },
    {
      "constant": true,
      "inputs": [],
      "name": "getMetaColony",
      "outputs": [
        {
          "name": "",
          "type": "address"
        }
      ],
      "payable": false,
      "stateMutability": "view",
      "type": "function"
    },
    {
      "constant": true,
      "inputs": [],
      "name": "getColonyCount",
      "outputs": [
        {
          "name": "",
          "type": "uint256"
        }
      ],
      "payable": false,
      "stateMutability": "view",
      "type": "function"
    },
    {
      "constant": true,
      "inputs": [],
      "name": "getSkillCount",
      "outputs": [
        {
          "name": "",
          "type": "uint256"
        }
      ],
      "payable": false,
      "stateMutability": "view",
      "type": "function"
    },
    {
      "constant": true,
      "inputs": [],
      "name": "getRootGlobalSkillId",
      "outputs": [
        {
          "name": "",
          "type": "uint256"
        }
      ],
      "payable": false,
      "stateMutability": "view",
      "type": "function"
    },
    {
      "constant": true,
      "inputs": [
        {
          "name": "_version",
          "type": "uint256"
        }
      ],
      "name": "getColonyVersionResolver",
      "outputs": [
        {
          "name": "",
          "type": "address"
        }
      ],
      "payable": false,
      "stateMutability": "view",
      "type": "function"
    },
    {
      "constant": true,
      "inputs": [
        {
          "name": "_skillId",
          "type": "uint256"
        }
      ],
      "name": "getSkill",
      "outputs": [
        {
          "name": "",
          "type": "uint256"
        },
        {
          "name": "",
          "type": "uint256"
        }
      ],
      "payable": false,
      "stateMutability": "view",
      "type": "function"
    },
    {
      "constant": true,
      "inputs": [
        {
          "name": "_skillId",
          "type": "uint256"
        }
      ],
      "name": "isGlobalSkill",
      "outputs": [
        {
          "name": "",
          "type": "bool"
        }
      ],
      "payable": false,
      "stateMutability": "view",
      "type": "function"
    },
    {
      "constant": true,
      "inputs": [],
      "name": "getReputationRootHash",
      "outputs": [
        {
          "name": "",
          "type": "bytes32"
        }
      ],
      "payable": false,
      "stateMutability": "view",
      "type": "function"
    },
    {
      "constant": true,
      "inputs": [],
      "name": "getReputationRootHashNNodes",
      "outputs": [
        {
          "name": "",
          "type": "uint256"
        }
      ],
      "payable": false,
      "stateMutability": "view",
      "type": "function"
    },
    {
      "constant": false,
      "inputs": [
        {
          "name": "_tokenAddress",
          "type": "address"
        }
      ],
      "name": "createMetaColony",
      "outputs": [],
      "payable": false,
      "stateMutability": "nonpayable",
      "type": "function"
    },
    {
      "constant": false,
      "inputs": [
        {
          "name": "_tokenAddress",
          "type": "address"
        }
      ],
      "name": "createColony",
      "outputs": [
        {
          "name": "",
          "type": "address"
        }
      ],
      "payable": false,
      "stateMutability": "nonpayable",
      "type": "function"
    },
    {
      "constant": false,
      "inputs": [
        {
          "name": "_version",
          "type": "uint256"
        },
        {
          "name": "_resolver",
          "type": "address"
        }
      ],
      "name": "addColonyVersion",
      "outputs": [],
      "payable": false,
      "stateMutability": "nonpayable",
      "type": "function"
    },
    {
      "constant": true,
      "inputs": [
        {
          "name": "_id",
          "type": "uint256"
        }
      ],
      "name": "getColony",
      "outputs": [
        {
          "name": "",
          "type": "address"
        }
      ],
      "payable": false,
      "stateMutability": "view",
      "type": "function"
    },
    {
      "constant": false,
      "inputs": [
        {
          "name": "_id",
          "type": "uint256"
        },
        {
          "name": "_newVersion",
          "type": "uint256"
        }
      ],
      "name": "upgradeColony",
      "outputs": [],
      "payable": false,
      "stateMutability": "nonpayable",
      "type": "function"
    },
    {
      "constant": false,
      "inputs": [
        {
          "name": "_parentSkillId",
          "type": "uint256"
        },
        {
          "name": "_globalSkill",
          "type": "bool"
        }
      ],
      "name": "addSkill",
      "outputs": [
        {
          "name": "",
          "type": "uint256"
        }
      ],
      "payable": false,
      "stateMutability": "nonpayable",
      "type": "function"
    },
    {
      "constant": true,
      "inputs": [
        {
          "name": "_skillId",
          "type": "uint256"
        },
        {
          "name": "_parentSkillIndex",
          "type": "uint256"
        }
      ],
      "name": "getParentSkillId",
      "outputs": [
        {
          "name": "",
          "type": "uint256"
        }
      ],
      "payable": false,
      "stateMutability": "view",
      "type": "function"
    },
    {
      "constant": true,
      "inputs": [
        {
          "name": "_skillId",
          "type": "uint256"
        },
        {
          "name": "_childSkillIndex",
          "type": "uint256"
        }
      ],
      "name": "getChildSkillId",
      "outputs": [
        {
          "name": "",
          "type": "uint256"
        }
      ],
      "payable": false,
      "stateMutability": "view",
      "type": "function"
    },
    {
      "constant": false,
      "inputs": [
        {
          "name": "_user",
          "type": "address"
        },
        {
          "name": "_amount",
          "type": "int256"
        },
        {
          "name": "_skillId",
          "type": "uint256"
        }
      ],
      "name": "appendReputationUpdateLog",
      "outputs": [],
      "payable": false,
      "stateMutability": "nonpayable",
      "type": "function"
    }
  ],
  "bytecode": "0x6080604081905260018054600160a060020a03191633908117909155907fce241d7ca1f669fee44b6fc00b8eba2df3bb514eed0f6f668f8f89096e81ed9490600090a261274c806100516000396000f300608060405260043610620001315763ffffffff60e060020a60003504166305f53b2981146200013657806308eb0d2c146200016057806309d10a5e14620001a057806313af403514620001be57806332b9cf3314620001e4578063440d88e014620002045780635a8adafa14620002335780636f92650d146200025d578063711a39be1462000278578063731bc22f14620002905780637680150d14620002a85780637a9e5e4b14620002c05780638da5cb5b14620002e45780638f14c88614620002fc57806397824c3f1462000317578063a2f99b86146200032f578063bca1e4df1462000353578063bd880fae146200036b578063bf7e214f146200039f578063d244d8fd14620003b7578063d987fc1614620003d5578063f07eb92114620003f3578063fd139958146200041a575b600080fd5b3480156200014357600080fd5b506200014e62000432565b60408051918252519081900360200190f35b3480156200016d57600080fd5b5062000184600160a060020a036004351662000439565b60408051600160a060020a039092168252519081900360200190f35b348015620001ad57600080fd5b506200014e60043560243562000839565b348015620001cb57600080fd5b50620001e2600160a060020a03600435166200086c565b005b348015620001f157600080fd5b506200014e6004356024351515620008ed565b3480156200021157600080fd5b506200021f60043562000b5d565b604080519115158252519081900360200190f35b3480156200024057600080fd5b50620001e2600160a060020a036004351660243560443562000b75565b3480156200026a57600080fd5b506200018460043562000c6b565b3480156200028557600080fd5b506200014e62000c86565b3480156200029d57600080fd5b506200018462000c8c565b348015620002b557600080fd5b506200014e62000c9b565b348015620002cd57600080fd5b50620001e2600160a060020a036004351662000ca1565b348015620002f157600080fd5b506200018462000d1e565b3480156200030957600080fd5b506200018460043562000d2d565b3480156200032457600080fd5b506200014e62000d48565b3480156200033c57600080fd5b50620001e2600160a060020a036004351662000d4e565b3480156200036057600080fd5b506200014e62000e5f565b3480156200037857600080fd5b506200038660043562000e65565b6040805192835260208301919091528051918290030190f35b348015620003ac57600080fd5b506200018462000e7f565b348015620003c457600080fd5b50620001e260043560243562000e8e565b348015620003e257600080fd5b506200014e6004356024356200112c565b3480156200040057600080fd5b50620001e2600435600160a060020a03602435166200114b565b3480156200042757600080fd5b506200014e620011b8565b600a545b90565b6000806000806000806200044c620012cb565b604051809103906000f08015801562000469573d6000803e3d6000fd5b50600480546000908152600860205260408082205481517f4e543b26000000000000000000000000000000000000000000000000000000008152600160a060020a03918216948101859052915194995092975091881692634e543b2692602480820193929182900301818387803b158015620004e457600080fd5b505af1158015620004f9573d6000803e3d6000fd5b5050505084925082600160a060020a031663144fa6d7886040518263ffffffff1660e060020a0281526004018082600160a060020a0316600160a060020a03168152602001915050600060405180830381600087803b1580156200055c57600080fd5b505af115801562000571573d6000803e3d6000fd5b505050508262000580620012dc565b600160a060020a03909116815260405190819003602001906000f080158015620005ae573d6000803e3d6000fd5b50915084905080600160a060020a0316637a9e5e4b836040518263ffffffff1660e060020a0281526004018082600160a060020a0316600160a060020a03168152602001915050600060405180830381600087803b1580156200061057600080fd5b505af115801562000625573d6000803e3d6000fd5b5050604080517fd381ba7c000000000000000000000000000000000000000000000000000000008152336004820152600160248201529051600160a060020a038616935063d381ba7c9250604480830192600092919082900301818387803b1580156200069157600080fd5b505af1158015620006a6573d6000803e3d6000fd5b5050604080517f13af40350000000000000000000000000000000000000000000000000000000081523360048201529051600160a060020a03861693506313af40359250602480830192600092919082900301818387803b1580156200070b57600080fd5b505af115801562000720573d6000803e3d6000fd5b5050600a80546001908101909155600380548201908190556000908152600660209081526040808320805473ffffffffffffffffffffffffffffffffffffffff1916600160a060020a038b169081179091558084526007909252808320805460ff191690941790935582517f5d90f53c0000000000000000000000000000000000000000000000000000000081523060048201529251909450635d90f53c935060248084019382900301818387803b158015620007dc57600080fd5b505af1158015620007f1573d6000803e3d6000fd5b5050505084600160a060020a03166003547f6747f57524d6303c6e3d698d8b6ab540620b0455ccde2e5aa047d8a179787d7460405160405180910390a3509295945050505050565b6000828152600960205260408120600381018054849081106200085857fe5b906000526020600020015491505092915050565b6200088433600035600160e060020a031916620011be565b15156200089057600080fd5b6001805473ffffffffffffffffffffffffffffffffffffffff1916600160a060020a0383811691909117918290556040519116907fce241d7ca1f669fee44b6fc00b8eba2df3bb514eed0f6f668f8f89096e81ed9490600090a250565b600080620008fa620012ed565b6000806000808880600a54101515156200091357600080fd5b8880156200093957600554600160a060020a031633146200093357600080fd5b62000958565b3360009081526007602052604090205460ff1615156200095857600080fd5b8a600081116200096757600080fd5b600a8054600101905560008c8152600960205260409020600481015490995060ff1615158b1515146200099957600080fd5b8854600190810189528b151560808a0152600a546000908152600960209081526040918290208b518155818c015193810193909355908a015180518b9392620009ea9260028501929101906200131f565b506060820151805162000a089160038401916020909101906200131f565b50608091909101516004909101805460ff19169115159190911790558b9650600195508594508493505b851562000b0d57600a5460038a01805460018181018355600092835260209092200191909155808a01805490910190558385141562000a9c57600a546000908152600960209081526040822060029081018054600181018255908452919092200188905594909402935b8854151562000aaf576000955062000b01565b600289018054600090811062000ac157fe5b90600052602060002001549650600960008a600201600081548110151562000ae557fe5b9060005260206000200154815260200190815260200160002098505b60018401935062000a32565b600a5460408051918252602082018e905280517fafe765b392910efb92e8447f3571f7d46c9046cf149b438ccd40b473f4fb332e9281900390910190a15050600a549a9950505050505050505050565b60009081526009602052604090206004015460ff1690565b33600090815260076020526040812054819060ff16151562000b9657600080fd5b8280600a541015151562000ba957600080fd5b6000848152600960205260408082208054600190910154600d5483517f477e3ed8000000000000000000000000000000000000000000000000000000008152600160a060020a038c81166004830152602482018c9052604482018b90523360648301526084820185905260a482018490529451939850919650929092169263477e3ed89260c4808201939182900301818387803b15801562000c4a57600080fd5b505af115801562000c5f573d6000803e3d6000fd5b50505050505050505050565b600090815260066020526040902054600160a060020a031690565b60035490565b600554600160a060020a031690565b600f5490565b62000cb933600035600160e060020a031916620011be565b151562000cc557600080fd5b6000805473ffffffffffffffffffffffffffffffffffffffff1916600160a060020a03838116919091178083556040519116917f1abebea81bfa2637f28358c371278fb15ede7ea8dd28d2e03b112ff6d936ada491a250565b600154600160a060020a031681565b600090815260086020526040902054600160a060020a031690565b600e5490565b62000d58620012ed565b62000d7033600035600160e060020a031916620011be565b151562000d7c57600080fd5b600554600160a060020a03161562000d9357600080fd5b600a805460019081019182905560808301819052600091825260096020908152604092839020845181558185015192810192909255918301518051849362000de39260028501929101906200131f565b506060820151805162000e019160038401916020909101906200131f565b50608091909101516004909101805460ff1916911515919091179055600a54600b5562000e2e8262000439565b6005805473ffffffffffffffffffffffffffffffffffffffff1916600160a060020a03929092169190911790555050565b60045490565b600090815260096020526040902080546001909101549091565b600054600160a060020a031681565b60008281526006602090815260408083205481517fbf7e214f0000000000000000000000000000000000000000000000000000000081529151600160a060020a0390911693849390928392839283928392889263bf7e214f9260048082019391829003018186803b15801562000f0357600080fd5b505afa15801562000f18573d6000803e3d6000fd5b505050506040513d602081101562000f2f57600080fd5b5051604080517fb7009613000000000000000000000000000000000000000000000000000000008152336004820152600160a060020a038a811660248301527f0e1f20b400000000000000000000000000000000000000000000000000000000604483015291519297509087169163b700961391606480820192602092909190829003018186803b15801562000fc457600080fd5b505afa15801562000fd9573d6000803e3d6000fd5b505050506040513d602081101562000ff057600080fd5b5051151562000ffe57600080fd5b86935083600160a060020a03166354fd4d506040518163ffffffff1660e060020a02815260040160206040518083038186803b1580156200103e57600080fd5b505afa15801562001053573d6000803e3d6000fd5b505050506040513d60208110156200106a57600080fd5b505192508288116200107b57600080fd5b600088815260086020526040902054600160a060020a03169150811515620010a257600080fd5b50604080517f4e543b26000000000000000000000000000000000000000000000000000000008152600160a060020a03838116600483015291518892831691634e543b2691602480830192600092919082900301818387803b1580156200110857600080fd5b505af11580156200111d573d6000803e3d6000fd5b50505050505050505050505050565b6000828152600960205260408120600281018054849081106200085857fe5b6200116333600035600160e060020a031916620011be565b15156200116f57600080fd5b6000828152600860205260409020805473ffffffffffffffffffffffffffffffffffffffff1916600160a060020a038316179055600454821115620011b45760048290555b5050565b600b5490565b6000600160a060020a038316301415620011db57506001620012c5565b600154600160a060020a0384811691161415620011fb57506001620012c5565b600054600160a060020a031615156200121757506000620012c5565b600054604080517fb7009613000000000000000000000000000000000000000000000000000000008152600160a060020a038681166004830152306024830152600160e060020a0319861660448301529151919092169163b7009613916064808301926020929190829003018186803b1580156200129457600080fd5b505afa158015620012a9573d6000803e3d6000fd5b505050506040513d6020811015620012c057600080fd5b505190505b92915050565b604051610519806200138d83390190565b604051610e7b80620018a683390190565b60a060405190810160405280600081526020016000815260200160608152602001606081526020016000151581525090565b8280548282559060005260206000209081019282156200135d579160200282015b828111156200135d57825182559160200191906001019062001340565b506200136b9291506200136f565b5090565b6200043691905b808211156200136b57600081556001016200137656006080604081905260018054600160a060020a03191633908117909155907fce241d7ca1f669fee44b6fc00b8eba2df3bb514eed0f6f668f8f89096e81ed9490600090a26104c8806100516000396000f3006080604052600436106100775763ffffffff7c010000000000000000000000000000000000000000000000000000000060003504166304f3bcec811461016357806313af4035146101945780634e543b26146101b75780637a9e5e4b146101d85780638da5cb5b146101f9578063bf7e214f1461020e575b6000600160e060020a0319813516151561009057610160565b600254604080517f6f68e8d2000000000000000000000000000000000000000000000000000000008152600160e060020a03196000351660048201529051600160a060020a0390921691636f68e8d291602480820192602092909190829003018186803b15801561010057600080fd5b505afa158015610114573d6000803e3d6000fd5b505050506040513d602081101561012a57600080fd5b5051604051909150369060009037600060405136604051845af43d60006040513e806001811461015a573d604051fd5b3d604051f35b50005b34801561016f57600080fd5b50610178610223565b60408051600160a060020a039092168252519081900360200190f35b3480156101a057600080fd5b506101b5600160a060020a0360043516610232565b005b3480156101c357600080fd5b506101b5600160a060020a03600435166102b0565b3480156101e457600080fd5b506101b5600160a060020a0360043516610300565b34801561020557600080fd5b5061017861037a565b34801561021a57600080fd5b50610178610389565b600254600160a060020a031681565b61024833600035600160e060020a031916610398565b151561025357600080fd5b6001805473ffffffffffffffffffffffffffffffffffffffff1916600160a060020a0383811691909117918290556040519116907fce241d7ca1f669fee44b6fc00b8eba2df3bb514eed0f6f668f8f89096e81ed9490600090a250565b6102c633600035600160e060020a031916610398565b15156102d157600080fd5b6002805473ffffffffffffffffffffffffffffffffffffffff1916600160a060020a0392909216919091179055565b61031633600035600160e060020a031916610398565b151561032157600080fd5b6000805473ffffffffffffffffffffffffffffffffffffffff1916600160a060020a03838116919091178083556040519116917f1abebea81bfa2637f28358c371278fb15ede7ea8dd28d2e03b112ff6d936ada491a250565b600154600160a060020a031681565b600054600160a060020a031681565b6000600160a060020a0383163014156103b357506001610496565b600154600160a060020a03848116911614156103d157506001610496565b600054600160a060020a031615156103eb57506000610496565b600054604080517fb7009613000000000000000000000000000000000000000000000000000000008152600160a060020a038681166004830152306024830152600160e060020a0319861660448301529151919092169163b7009613916064808301926020929190829003018186803b15801561046757600080fd5b505afa15801561047b573d6000803e3d6000fd5b505050506040513d602081101561049157600080fd5b505190505b929150505600a165627a7a7230582015be3eecce440b6e8cb0a9f75efc89e5cd785c9ab78bf8fc3447fbd439902aa0002960806040526006805461ffff19166101001790553480156200002057600080fd5b5060405160208062000e7b833981016040819052905160018054600160a060020a0319163390811790915590916000918291829182918291907fce241d7ca1f669fee44b6fc00b8eba2df3bb514eed0f6f668f8f89096e81ed94908390a2604080517f6d616b655461736b28627974657333322c75696e74323536290000000000000081529051908190036019019020600654909550620000d19060ff168787600164010000000062000322810204565b600654620000f490610100900460ff168787600164010000000062000322810204565b604080517f66696e616c697a655461736b2875696e7432353629000000000000000000000081529051908190036015019020600654909450620001479060ff168786600164010000000062000322810204565b6006546200016a90610100900460ff168786600164010000000062000322810204565b604080517f7365745461736b447565446174652875696e743235362c75696e7432353629008152905190819003601f019020600654909350620001bd9060ff168785600164010000000062000322810204565b600654620001e090610100900460ff168785600164010000000062000322810204565b604080517f7365745461736b5061796f75742875696e743235362c75696e743235362c616481527f64726573732c75696e74323536290000000000000000000000000000000000006020820152905190819003602e019020600654909250620002599060ff168784600164010000000062000322810204565b6006546200027c90610100900460ff168784600164010000000062000322810204565b50604080517f6d6f766546756e64734265747765656e506f74732875696e743235362c75696e81527f743235362c75696e743235362c6164647265737329000000000000000000000060208201529051908190036035019020600654620002f39060ff168783600164010000000062000322810204565b6006546200031690610100900460ff168783600164010000000062000322810204565b505050505050620005a2565b6000806200035d337fffffffff0000000000000000000000000000000000000000000000000000000083351664010000000062000476810204565b15156200036957600080fd5b5050600160a060020a03831660009081526004602090815260408083207fffffffff000000000000000000000000000000000000000000000000000000008616845290915290205460ff851660020a82156200040f57600160a060020a03851660009081526004602090815260408083207fffffffff0000000000000000000000000000000000000000000000000000000088168452909152902082821790556200046e565b62000423816401000000006200059b810204565b600160a060020a03861660009081526004602090815260408083207fffffffff0000000000000000000000000000000000000000000000000000000089168452909152902090831690555b505050505050565b6000600160a060020a038316301415620004935750600162000595565b600154600160a060020a0384811691161415620004b35750600162000595565b600054600160a060020a03161515620004cf5750600062000595565b600054604080517fb7009613000000000000000000000000000000000000000000000000000000008152600160a060020a0386811660048301523060248301527fffffffff00000000000000000000000000000000000000000000000000000000861660448301529151919092169163b7009613916064808301926020929190829003018186803b1580156200056457600080fd5b505afa15801562000579573d6000803e3d6000fd5b505050506040513d60208110156200059057600080fd5b505190505b92915050565b6000191890565b6108c980620005b26000396000f3006080604052600436106100cf5763ffffffff7c010000000000000000000000000000000000000000000000000000000060003504166306a36aee81146100d457806313af40351461010757806327538e901461012a5780632f47571f1461015857806367aff4841461019a5780637a9e5e4b146101c65780637d40583d146101e75780638da5cb5b14610220578063a078f73714610251578063b700961314610278578063bf7e214f146102ac578063c6b0263e146102c1578063d381ba7c146102f4578063fbf807731461031a575b600080fd5b3480156100e057600080fd5b506100f5600160a060020a036004351661033b565b60408051918252519081900360200190f35b34801561011357600080fd5b50610128600160a060020a0360043516610356565b005b34801561013657600080fd5b506100f5600160a060020a0360043516600160e060020a0319602435166103d4565b34801561016457600080fd5b50610186600160a060020a0360043516600160e060020a031960243516610409565b604080519115158252519081900360200190f35b3480156101a657600080fd5b50610128600160a060020a036004351660ff602435166044351515610440565b3480156101d257600080fd5b50610128600160a060020a03600435166104dc565b3480156101f357600080fd5b5061012860ff60043516600160a060020a0360243516600160e060020a0319604435166064351515610556565b34801561022c57600080fd5b50610235610632565b60408051600160a060020a039092168252519081900360200190f35b34801561025d57600080fd5b50610186600160a060020a036004351660ff60243516610641565b34801561028457600080fd5b50610186600160a060020a0360043581169060243516600160e060020a031960443516610665565b3480156102b857600080fd5b506102356106b9565b3480156102cd57600080fd5b50610128600160a060020a0360043516600160e060020a03196024351660443515156106c8565b34801561030057600080fd5b50610128600160a060020a0360043516602435151561072a565b34801561032657600080fd5b50610186600160a060020a0360043516610776565b600160a060020a031660009081526003602052604090205490565b61036c33600035600160e060020a031916610794565b151561037757600080fd5b6001805473ffffffffffffffffffffffffffffffffffffffff1916600160a060020a0383811691909117918290556040519116907fce241d7ca1f669fee44b6fc00b8eba2df3bb514eed0f6f668f8f89096e81ed9490600090a250565b600160a060020a0382166000908152600460209081526040808320600160e060020a0319851684529091529020545b92915050565b600160a060020a0382166000908152600560209081526040808320600160e060020a03198516845290915290205460ff1692915050565b60008061045933600035600160e060020a031916610794565b151561046457600080fd5b5050600160a060020a03831660009081526003602052604090205460ff831660020a82156104ae57600160a060020a038516600090815260036020526040902082821790556104d5565b6104b781610896565b600160a060020a038616600090815260036020526040902090831690555b5050505050565b6104f233600035600160e060020a031916610794565b15156104fd57600080fd5b6000805473ffffffffffffffffffffffffffffffffffffffff1916600160a060020a03838116919091178083556040519116917f1abebea81bfa2637f28358c371278fb15ede7ea8dd28d2e03b112ff6d936ada491a250565b60008061056f33600035600160e060020a031916610794565b151561057a57600080fd5b5050600160a060020a0383166000908152600460209081526040808320600160e060020a03198616845290915290205460ff851660020a82156105ee57600160a060020a0385166000908152600460209081526040808320600160e060020a0319881684529091529020828217905561062a565b6105f781610896565b600160a060020a0386166000908152600460209081526040808320600160e060020a031989168452909152902090831690555b505050505050565b600154600160a060020a031681565b600080600061064f8561033b565b60ff9490941660020a9093161515949350505050565b600080600061067386610776565b8061068357506106838585610409565b1561069157600192506106b0565b61069a8661033b565b91506106a685856103d4565b8281161515935090505b50509392505050565b600054600160a060020a031681565b6106de33600035600160e060020a031916610794565b15156106e957600080fd5b600160a060020a039092166000908152600560209081526040808320600160e060020a0319909416835292905220805491151560ff19909216919091179055565b61074033600035600160e060020a031916610794565b151561074b57600080fd5b600160a060020a03919091166000908152600260205260409020805460ff1916911515919091179055565b600160a060020a031660009081526002602052604090205460ff1690565b6000600160a060020a0383163014156107af57506001610403565b600154600160a060020a03848116911614156107cd57506001610403565b600054600160a060020a031615156107e757506000610403565b600054604080517fb7009613000000000000000000000000000000000000000000000000000000008152600160a060020a038681166004830152306024830152600160e060020a0319861660448301529151919092169163b7009613916064808301926020929190829003018186803b15801561086357600080fd5b505afa158015610877573d6000803e3d6000fd5b505050506040513d602081101561088d57600080fd5b50519050610403565b60001918905600a165627a7a72305820eb8aa26a8e3ac5152bc623335194a5f47be7186ec016314418a6d24766efd5860029a165627a7a72305820136fc72032ea950f0f8a66a12aeb2e3bafdffb0e7c00de4d9289981151b650120029",
  "source": "/*\n  This file is part of The Colony Network.\n\n  The Colony Network is free software: you can redistribute it and/or modify\n  it under the terms of the GNU General Public License as published by\n  the Free Software Foundation, either version 3 of the License, or\n  (at your option) any later version.\n\n  The Colony Network is distributed in the hope that it will be useful,\n  but WITHOUT ANY WARRANTY; without even the implied warranty of\n  MERCHANTABILITY or FITNESS FOR A PARTICULAR PURPOSE.  See the\n  GNU General Public License for more details.\n\n  You should have received a copy of the GNU General Public License\n  along with The Colony Network. If not, see <http://www.gnu.org/licenses/>.\n*/\n\npragma solidity ^0.4.23;\npragma experimental \"v0.5.0\";\n\nimport \"../lib/dappsys/auth.sol\";\nimport \"./Authority.sol\";\nimport \"./IColony.sol\";\nimport \"./EtherRouter.sol\";\nimport \"./Token.sol\";\nimport \"./ColonyNetworkStorage.sol\";\nimport \"./IReputationMiningCycle.sol\";\n\n\ncontract ColonyNetwork is ColonyNetworkStorage {\n  event ColonyAdded(uint256 indexed id, address indexed colonyAddress);\n  event SkillAdded(uint256 skillId, uint256 parentSkillId);\n\n  // Meta Colony allowed to manage Global skills\n  // All colonies are able to manage their Local (domain associated) skills\n  modifier allowedToAddSkill(bool globalSkill) {\n    if (globalSkill) {\n      require(msg.sender == metaColony);\n    } else {\n      require(_isColony[msg.sender]);\n    }\n    _;\n  }\n\n  modifier skillExists(uint skillId) {\n    require(skillCount >= skillId);\n    _;\n  }\n\n  modifier nonZero(uint256 parentSkillId) {\n    require(parentSkillId > 0);\n    _;\n  }\n\n  modifier calledByColony() {\n    require(_isColony[msg.sender]);\n    _;\n  }\n\n  function getCurrentColonyVersion() public view returns (uint256) {\n    return currentColonyVersion;\n  }\n\n  function getMetaColony() public view returns (address) {\n    return metaColony;\n  }\n\n  function getColonyCount() public view returns (uint256) {\n    return colonyCount;\n  }\n\n  function getSkillCount() public view returns (uint256) {\n    return skillCount;\n  }\n\n  function getRootGlobalSkillId() public view returns (uint256) {\n    return rootGlobalSkillId;\n  }\n\n  function getColonyVersionResolver(uint256 _version) public view returns (address) {\n    return colonyVersionResolver[_version];\n  }\n\n  function getSkill(uint256 _skillId) public view returns (uint256, uint256) {\n    return (skills[_skillId].nParents, skills[_skillId].nChildren);\n  }\n\n  function isGlobalSkill(uint256 _skillId) public view returns (bool) {\n    return skills[_skillId].globalSkill;\n  }\n\n  function getReputationRootHash() public view returns (bytes32) {\n    return reputationRootHash;\n  }\n\n  function getReputationRootHashNNodes() public view returns (uint256) {\n    return reputationRootHashNNodes;\n  }\n\n  function createMetaColony(address _tokenAddress) public \n  auth\n  {\n    require(metaColony == 0);\n    // Add the root global skill\n    skillCount += 1;\n    Skill memory rootGlobalSkill;\n    rootGlobalSkill.globalSkill = true;\n    skills[skillCount] = rootGlobalSkill;\n    rootGlobalSkillId = skillCount;\n    // TODO: add the special 'mining' skill, which is local to the meta Colony.\n    \n    metaColony = createColony(_tokenAddress);\n  }\n  \n  function createColony(address _tokenAddress) public returns (address) {\n    EtherRouter etherRouter = new EtherRouter();\n    address resolverForLatestColonyVersion = colonyVersionResolver[currentColonyVersion];\n    etherRouter.setResolver(resolverForLatestColonyVersion);\n\n    IColony colony = IColony(etherRouter);\n    colony.setToken(_tokenAddress);\n\n    Authority authority = new Authority(colony);\n    DSAuth dsauth = DSAuth(etherRouter);\n    dsauth.setAuthority(authority);\n    authority.setRootUser(msg.sender, true);\n    authority.setOwner(msg.sender);\n\n    // Initialise the root (domain) local skill with defaults by just incrementing the skillCount\n    skillCount += 1;\n    colonyCount += 1;\n    colonies[colonyCount] = colony;\n    _isColony[colony] = true;\n\n    colony.initialiseColony(this);\n    emit ColonyAdded(colonyCount, etherRouter);\n\n    return etherRouter;\n  }\n\n  function addColonyVersion(uint _version, address _resolver) public\n  auth\n  {\n    colonyVersionResolver[_version] = _resolver;\n    if (_version > currentColonyVersion) {\n      currentColonyVersion = _version;\n    }\n  }\n\n  function getColony(uint256 _id) public view returns (address) {\n    return colonies[_id];\n  }\n\n  function upgradeColony(uint256 _id, uint _newVersion) public {\n    address etherRouter = colonies[_id];\n    // Check the calling user is authorised\n    DSAuth auth = DSAuth(etherRouter);\n    DSAuthority authority = auth.authority();\n    require(authority.canCall(msg.sender, etherRouter, 0x0e1f20b4));\n    // Upgrades can only go up in version\n    IColony colony = IColony(etherRouter);\n    uint currentVersion = colony.version();\n    require(_newVersion > currentVersion);\n    // Requested version has to be registered\n    address newResolver = colonyVersionResolver[_newVersion];\n    require(newResolver != 0x0);\n    EtherRouter e = EtherRouter(etherRouter);\n    e.setResolver(newResolver);\n  }\n\n  function addSkill(uint _parentSkillId, bool _globalSkill) public\n  skillExists(_parentSkillId)\n  allowedToAddSkill(_globalSkill)\n  nonZero(_parentSkillId)\n  returns (uint256)\n  {\n    skillCount += 1;\n\n    Skill storage parentSkill = skills[_parentSkillId];\n\n    // Global and local skill trees are kept separate\n    require(parentSkill.globalSkill == _globalSkill);\n\n    Skill memory s;\n    s.nParents = parentSkill.nParents + 1;\n    s.globalSkill = _globalSkill;\n    skills[skillCount] = s;\n\n    uint parentSkillId = _parentSkillId;\n    bool notAtRoot = true;\n    uint powerOfTwo = 1;\n    uint treeWalkingCounter = 1;\n\n    // Walk through the tree parent skills up to the root\n    while (notAtRoot) {\n      // Add the new skill to each parent children\n      // TODO: skip this for the root skill as the children of that will always be all skills\n      parentSkill.children.push(skillCount);\n      parentSkill.nChildren += 1;\n\n      // When we are at an integer power of two steps away from the newly added skill node,\n      // add the current parent skill to the new skill's parents array\n      if (treeWalkingCounter == powerOfTwo) {\n        skills[skillCount].parents.push(parentSkillId);\n        powerOfTwo = powerOfTwo*2;\n      }\n\n      // Check if we've reached the root of the tree yet (it has no parents)\n      // Otherwise get the next parent\n      if (parentSkill.nParents == 0) {\n        notAtRoot = false;\n      } else {\n        parentSkillId = parentSkill.parents[0];\n        parentSkill = skills[parentSkill.parents[0]];\n      }\n\n      treeWalkingCounter += 1;\n    }\n\n    emit SkillAdded(skillCount, _parentSkillId);\n    return skillCount;\n  }\n\n  function getParentSkillId(uint _skillId, uint _parentSkillIndex) public view returns (uint256) {\n    Skill storage skill = skills[_skillId];\n    return skill.parents[_parentSkillIndex];\n  }\n\n  function getChildSkillId(uint _skillId, uint _childSkillIndex) public view returns (uint256) {\n    Skill storage skill = skills[_skillId];\n    return skill.children[_childSkillIndex];\n  }\n\n  function appendReputationUpdateLog(address _user, int _amount, uint _skillId) public\n  calledByColony\n  skillExists(_skillId)\n  {\n    uint nParents = skills[_skillId].nParents;\n    // TODO: Is it cheaper to check if _amount is <0, and if not, just set nChildren to 0, because children won't be updated for such an update?\n    uint nChildren = skills[_skillId].nChildren;\n    IReputationMiningCycle(inactiveReputationMiningCycle).appendReputationUpdateLog(_user, _amount, _skillId, msg.sender, nParents, nChildren);\n  }\n}\n",
  "sourcePath": "/root/intuition-machine/colonyNetwork/contracts/ColonyNetwork.sol",
  "compiler": {
    "name": "solc",
    "version": "0.4.24+commit.e67f0147.Emscripten.clang"
  },
  "schemaVersion": "2.0.0",
  "updatedAt": "2018-06-20T09:03:26.406Z"
}