{
  "contractName": "ColonyStorage",
  "abi": [
    {
      "constant": false,
      "inputs": [
        {
          "name": "owner_",
          "type": "address"
        }
      ],
      "name": "setOwner",
      "outputs": [],
      "payable": false,
      "stateMutability": "nonpayable",
      "type": "function"
    },
    {
      "constant": true,
      "inputs": [
        {
          "name": "",
          "type": "uint256"
        }
      ],
      "name": "taskWorkRatings",
      "outputs": [
        {
          "name": "count",
          "type": "uint256"
        },
        {
          "name": "timestamp",
          "type": "uint256"
        }
      ],
      "payable": false,
      "stateMutability": "view",
      "type": "function"
    },
    {
      "constant": true,
      "inputs": [
        {
          "name": "",
          "type": "uint256"
        }
      ],
      "name": "domains",
      "outputs": [
        {
          "name": "skillId",
          "type": "uint256"
        },
        {
          "name": "potId",
          "type": "uint256"
        }
      ],
      "payable": false,
      "stateMutability": "view",
      "type": "function"
    },
    {
      "constant": false,
      "inputs": [
        {
          "name": "authority_",
          "type": "address"
        }
      ],
      "name": "setAuthority",
      "outputs": [],
      "payable": false,
      "stateMutability": "nonpayable",
      "type": "function"
    },
    {
      "constant": true,
      "inputs": [],
      "name": "owner",
      "outputs": [
        {
          "name": "",
          "type": "address"
        }
      ],
      "payable": false,
      "stateMutability": "view",
      "type": "function"
    },
    {
      "constant": true,
      "inputs": [],
      "name": "authority",
      "outputs": [
        {
          "name": "",
          "type": "address"
        }
      ],
      "payable": false,
      "stateMutability": "view",
      "type": "function"
    },
    {
      "anonymous": false,
      "inputs": [
        {
          "indexed": true,
          "name": "authority",
          "type": "address"
        }
      ],
      "name": "LogSetAuthority",
      "type": "event"
    },
    {
      "anonymous": false,
      "inputs": [
        {
          "indexed": true,
          "name": "owner",
          "type": "address"
        }
      ],
      "name": "LogSetOwner",
      "type": "event"
    }
  ],
  "bytecode": "0x6080604081905260018054600160a060020a03191633908117909155907fce241d7ca1f669fee44b6fc00b8eba2df3bb514eed0f6f668f8f89096e81ed9490600090a2610406806100516000396000f3006080604052600436106100775763ffffffff7c010000000000000000000000000000000000000000000000000000000060003504166313af4035811461007c5780632714a7fd1461009f57806366cf8fab146100d05780637a9e5e4b146100e85780638da5cb5b14610109578063bf7e214f1461013a575b600080fd5b34801561008857600080fd5b5061009d600160a060020a036004351661014f565b005b3480156100ab57600080fd5b506100b76004356101e2565b6040805192835260208301919091528051918290030190f35b3480156100dc57600080fd5b506100b76004356101fb565b3480156100f457600080fd5b5061009d600160a060020a0360043516610214565b34801561011557600080fd5b5061011e6102a3565b60408051600160a060020a039092168252519081900360200190f35b34801561014657600080fd5b5061011e6102b2565b61017a336000357bffffffffffffffffffffffffffffffffffffffffffffffffffffffff19166102c1565b151561018557600080fd5b6001805473ffffffffffffffffffffffffffffffffffffffff1916600160a060020a0383811691909117918290556040519116907fce241d7ca1f669fee44b6fc00b8eba2df3bb514eed0f6f668f8f89096e81ed9490600090a250565b600e602052600090815260409020805460019091015482565b600f602052600090815260409020805460019091015482565b61023f336000357bffffffffffffffffffffffffffffffffffffffffffffffffffffffff19166102c1565b151561024a57600080fd5b6000805473ffffffffffffffffffffffffffffffffffffffff1916600160a060020a03838116919091178083556040519116917f1abebea81bfa2637f28358c371278fb15ede7ea8dd28d2e03b112ff6d936ada491a250565b600154600160a060020a031681565b600054600160a060020a031681565b6000600160a060020a0383163014156102dc575060016103d4565b600154600160a060020a03848116911614156102fa575060016103d4565b600054600160a060020a03161515610314575060006103d4565b600054604080517fb7009613000000000000000000000000000000000000000000000000000000008152600160a060020a0386811660048301523060248301527bffffffffffffffffffffffffffffffffffffffffffffffffffffffff19861660448301529151919092169163b7009613916064808301926020929190829003018186803b1580156103a557600080fd5b505afa1580156103b9573d6000803e3d6000fd5b505050506040513d60208110156103cf57600080fd5b505190505b929150505600a165627a7a723058200d5d82d946f113070d032aeb8390e86759f266cd4a9c8c8616e9607f24f6e09c0029",
  "source": "/*\n  This file is part of The Colony Network.\n\n  The Colony Network is free software: you can redistribute it and/or modify\n  it under the terms of the GNU General Public License as published by\n  the Free Software Foundation, either version 3 of the License, or\n  (at your option) any later version.\n\n  The Colony Network is distributed in the hope that it will be useful,\n  but WITHOUT ANY WARRANTY; without even the implied warranty of\n  MERCHANTABILITY or FITNESS FOR A PARTICULAR PURPOSE.  See the\n  GNU General Public License for more details.\n\n  You should have received a copy of the GNU General Public License\n  along with The Colony Network. If not, see <http://www.gnu.org/licenses/>.\n*/\n\npragma solidity ^0.4.23;\npragma experimental \"v0.5.0\";\n\nimport \"../lib/dappsys/auth.sol\";\nimport \"./ERC20Extended.sol\";\nimport \"./IColonyNetwork.sol\";\n\n\ncontract ColonyStorage is DSAuth {\n  // When adding variables, do not make them public, otherwise all contracts that inherit from\n  // this one will have the getters. Make custom getters in the contract that seems most appropriate,\n  // and add it to IColony.sol\n\n  address resolver;\n  address colonyNetworkAddress;\n  ERC20Extended token;\n\n  // Mapping function signature to 2 task roles whose approval is needed to execute\n  mapping (bytes4 => uint8[2]) reviewers;\n  uint256 taskChangeNonce;\n\n  mapping (uint256 => Task) tasks;\n\n  // Pots can be tied to tasks or domains, so giving them their own mapping.\n  // Pot 1 can be thought of as the pot belonging to the colony itself that hasn't been assigned\n  // to anything yet, but has had some siphoned off in to the reward pot.\n  // Pot 0 is the 'reward' pot containing funds that can be paid to holders of colony tokens in the future.\n  mapping (uint256 => Pot) pots;\n\n  struct RewardPayoutCycle {\n    // Reputation root hash at the time of reward payout creation\n    bytes32 reputationState;\n    // Total tokens at the time of reward payout creation\n    uint256 totalTokens;\n    // Amount alocated for reward payout\n    uint256 amount;\n    // Token in which a reward is paid out with\n    address tokenAddress;\n    // Time of creation (in seconds)\n    uint256 blockTimestamp;\n  }\n\n  // Keeps track of all reward payout cycles\n  mapping (uint256 => RewardPayoutCycle) rewardPayoutCycles;\n  // Active payouts for particular token address. Assures that one token is used for only one active payout\n  mapping (address => bool) activeRewardPayouts;\n  // Incremented every time a reward payout is created. Used for comparing with `userRewardPayoutCount`\n  // to ensure that rewards are claimed in the right order.\n  // Can be used for iterating over all reward payouts (excluding index 0)\n  uint256 globalRewardPayoutCount;\n  // Keeps track of how many payouts are claimed by the particular user.\n  // Can be incremented either by waiving or claiming the reward.\n  mapping (address => uint256) userRewardPayoutCount;\n\n  // This keeps track of how much of the colony's funds that it owns have been moved into pots other than pot 0,\n  // which (by definition) have also had the reward amount siphoned off and put in to pot 0.\n  // This is decremented whenever a payout occurs and the colony loses control of the funds.\n  mapping (address => uint256) nonRewardPotsTotal;\n\n  mapping (uint256 => RatingSecrets) public taskWorkRatings;\n\n  mapping (uint256 => Domain) public domains;\n\n  uint256 taskCount;\n  uint256 potCount;\n  uint256 domainCount;\n\n  uint8 constant MANAGER = 0;\n  uint8 constant EVALUATOR = 1;\n  uint8 constant WORKER = 2;\n\n  struct Task {\n    bytes32 specificationHash;\n    bytes32 deliverableHash;\n    bool finalized;\n    bool cancelled;\n    uint256 dueDate;\n    uint256 payoutsWeCannotMake;\n    uint256 potId;\n    uint256 deliverableTimestamp;\n    uint256 domainId;\n    uint256[] skills;\n\n    // TODO switch this mapping to a uint8 when all role instances are uint8-s specifically ColonyFunding source\n    mapping (uint256 => Role) roles;\n    // Maps a token to the sum of all payouts of it for this task\n    mapping (address => uint256) totalPayouts;\n    // Maps task role ids (0,1,2..) to a token amount to be paid on task completion\n    mapping (uint256 => mapping (address => uint256)) payouts;\n  }\n\n  struct Role {\n    // Address of the user for the given role\n    address user;\n    // Has the user work been rated\n    bool rated;\n    // Rating the user received\n    uint8 rating;\n  }\n\n  struct RatingSecrets {\n    uint256 count;\n    uint256 timestamp;\n    mapping (uint8 => bytes32) secret;\n  }\n\n  struct Pot {\n    mapping (address => uint256) balance;\n    uint256 taskId;\n  }\n\n  struct Domain {\n    uint256 skillId;\n    uint256 potId;\n  }\n\n  modifier isManager(uint256 _id) {\n    Task storage task = tasks[_id];\n    require(task.roles[0].user == msg.sender);\n    _;\n  }\n\n  modifier taskExists(uint256 _id) {\n    require(_id <= taskCount);\n    _;\n  }\n\n  modifier taskNotFinalized(uint256 _id) {\n    require(!tasks[_id].finalized);\n    _;\n  }\n\n  modifier taskFinalized(uint256 _id) {\n    require(tasks[_id].finalized);\n    _;\n  }\n\n  modifier globalSkill(uint256 _skillId) {\n    IColonyNetwork colonyNetworkContract = IColonyNetwork(colonyNetworkAddress);\n    require(colonyNetworkContract.isGlobalSkill(_skillId));\n    _;\n  }\n\n  modifier localSkill(uint256 _skillId) {\n    IColonyNetwork colonyNetworkContract = IColonyNetwork(colonyNetworkAddress);\n    require(!colonyNetworkContract.isGlobalSkill(_skillId));\n    _;\n  }\n\n  modifier skillExists(uint256 _skillId) {\n    IColonyNetwork colonyNetworkContract = IColonyNetwork(colonyNetworkAddress);\n    require(_skillId <= colonyNetworkContract.getSkillCount());\n    _;\n  }\n\n  modifier domainExists(uint256 _domainId) {\n    require(_domainId <= domainCount);\n    _;\n  }\n\n  modifier isInBootstrapPhase() {\n    require(taskCount == 0);\n    _;\n  }\n\n  modifier self() {\n    require(address(this) == msg.sender);\n    _;\n  }\n}\n",
  "sourcePath": "/root/intuition-machine/colonyNetwork/contracts/ColonyStorage.sol",
  "compiler": {
    "name": "solc",
    "version": "0.4.24+commit.e67f0147.Emscripten.clang"
  },
  "schemaVersion": "2.0.0",
  "updatedAt": "2018-06-20T09:03:15.126Z"
}