{
  "contractName": "ColonyNetworkStaking",
  "abi": [
    {
      "constant": false,
      "inputs": [
        {
          "name": "owner_",
          "type": "address"
        }
      ],
      "name": "setOwner",
      "outputs": [],
      "payable": false,
      "stateMutability": "nonpayable",
      "type": "function"
    },
    {
      "constant": false,
      "inputs": [
        {
          "name": "authority_",
          "type": "address"
        }
      ],
      "name": "setAuthority",
      "outputs": [],
      "payable": false,
      "stateMutability": "nonpayable",
      "type": "function"
    },
    {
      "constant": true,
      "inputs": [],
      "name": "owner",
      "outputs": [
        {
          "name": "",
          "type": "address"
        }
      ],
      "payable": false,
      "stateMutability": "view",
      "type": "function"
    },
    {
      "constant": true,
      "inputs": [],
      "name": "authority",
      "outputs": [
        {
          "name": "",
          "type": "address"
        }
      ],
      "payable": false,
      "stateMutability": "view",
      "type": "function"
    },
    {
      "anonymous": false,
      "inputs": [
        {
          "indexed": true,
          "name": "authority",
          "type": "address"
        }
      ],
      "name": "LogSetAuthority",
      "type": "event"
    },
    {
      "anonymous": false,
      "inputs": [
        {
          "indexed": true,
          "name": "owner",
          "type": "address"
        }
      ],
      "name": "LogSetOwner",
      "type": "event"
    },
    {
      "constant": false,
      "inputs": [
        {
          "name": "_amount",
          "type": "uint256"
        }
      ],
      "name": "deposit",
      "outputs": [],
      "payable": false,
      "stateMutability": "nonpayable",
      "type": "function"
    },
    {
      "constant": false,
      "inputs": [
        {
          "name": "_amount",
          "type": "uint256"
        }
      ],
      "name": "withdraw",
      "outputs": [],
      "payable": false,
      "stateMutability": "nonpayable",
      "type": "function"
    },
    {
      "constant": true,
      "inputs": [
        {
          "name": "_user",
          "type": "address"
        }
      ],
      "name": "getStakedBalance",
      "outputs": [
        {
          "name": "",
          "type": "uint256"
        }
      ],
      "payable": false,
      "stateMutability": "view",
      "type": "function"
    },
    {
      "constant": false,
      "inputs": [
        {
          "name": "newHash",
          "type": "bytes32"
        },
        {
          "name": "newNNodes",
          "type": "uint256"
        },
        {
          "name": "stakers",
          "type": "address[]"
        }
      ],
      "name": "setReputationRootHash",
      "outputs": [],
      "payable": false,
      "stateMutability": "nonpayable",
      "type": "function"
    },
    {
      "constant": false,
      "inputs": [],
      "name": "startNextCycle",
      "outputs": [],
      "payable": false,
      "stateMutability": "nonpayable",
      "type": "function"
    },
    {
      "constant": true,
      "inputs": [
        {
          "name": "_active",
          "type": "bool"
        }
      ],
      "name": "getReputationMiningCycle",
      "outputs": [
        {
          "name": "",
          "type": "address"
        }
      ],
      "payable": false,
      "stateMutability": "view",
      "type": "function"
    },
    {
      "constant": false,
      "inputs": [
        {
          "name": "stakers",
          "type": "address[]"
        }
      ],
      "name": "punishStakers",
      "outputs": [],
      "payable": false,
      "stateMutability": "nonpayable",
      "type": "function"
    }
  ],
  "bytecode": "0x6080604081905260018054600160a060020a03191633908117909155907fce241d7ca1f669fee44b6fc00b8eba2df3bb514eed0f6f668f8f89096e81ed9490600090a2614249806100516000396000f3006080604052600436106100955763ffffffff60e060020a60003504166313af4035811461009a5780632e1a7d4d146100bd5780633a02a42d146100d5578063450e2ed3146101085780635736b7321461011d578063743ed431146101725780637a9e5e4b146101d05780638da5cb5b146101f1578063b6b55f2514610222578063bf7e214f1461023a578063f2c8599c1461024f575b600080fd5b3480156100a657600080fd5b506100bb600160a060020a0360043516610269565b005b3480156100c957600080fd5b506100bb6004356102fc565b3480156100e157600080fd5b506100f6600160a060020a03600435166102ff565b60408051918252519081900360200190f35b34801561011457600080fd5b506100bb61031e565b34801561012957600080fd5b50604080516020600480358082013583810280860185019096528085526100bb9536959394602494938501929182918501908490808284375094975061047b9650505050505050565b34801561017e57600080fd5b5060408051602060046044358181013583810280860185019096528085526100bb9583359560248035963696956064959394920192918291850190849080828437509497506104e59650505050505050565b3480156101dc57600080fd5b506100bb600160a060020a0360043516610539565b3480156101fd57600080fd5b506102066105c8565b60408051600160a060020a039092168252519081900360200190f35b34801561022e57600080fd5b506100bb6004356105d7565b34801561024657600080fd5b5061020661084a565b34801561025b57600080fd5b506102066004351515610859565b610294336000357bffffffffffffffffffffffffffffffffffffffffffffffffffffffff1916610885565b151561029f57600080fd5b6001805473ffffffffffffffffffffffffffffffffffffffff1916600160a060020a0383811691909117918290556040519116907fce241d7ca1f669fee44b6fc00b8eba2df3bb514eed0f6f668f8f89096e81ed9490600090a250565b50565b600160a060020a0381166000908152601060205260409020545b919050565b600c54600160a060020a03161561033457600080fd5b600d54600c805473ffffffffffffffffffffffffffffffffffffffff1916600160a060020a0392831617908190551615156103bc57610371610b5f565b604051809103906000f08015801561038d573d6000803e3d6000fd5b50600c805473ffffffffffffffffffffffffffffffffffffffff1916600160a060020a03929092169190911790555b600c60009054906101000a9004600160a060020a0316600160a060020a0316633150c0a26040518163ffffffff1660e060020a028152600401600060405180830381600087803b15801561040f57600080fd5b505af1158015610423573d6000803e3d6000fd5b5050505061042f610b5f565b604051809103906000f08015801561044b573d6000803e3d6000fd5b50600d805473ffffffffffffffffffffffffffffffffffffffff1916600160a060020a0392909216919091179055565b600c54600090600160a060020a0316331461049557600080fd5b5060005b81518110156104e15760006010600084848151811015156104b657fe5b6020908102909101810151600160a060020a0316825281019190915260400160002055600101610499565b5050565b600c54600160a060020a031633146104fc57600080fd5b600e839055600f829055600c805473ffffffffffffffffffffffffffffffffffffffff1916905561052b61031e565b6105348161099e565b505050565b610564336000357bffffffffffffffffffffffffffffffffffffffffffffffffffffffff1916610885565b151561056f57600080fd5b6000805473ffffffffffffffffffffffffffffffffffffffff1916600160a060020a03838116919091178083556040519116917f1abebea81bfa2637f28358c371278fb15ede7ea8dd28d2e03b112ff6d936ada491a250565b600154600160a060020a031681565b600080600560009054906101000a9004600160a060020a0316600160a060020a03166321df0da76040518163ffffffff1660e060020a02815260040160206040518083038186803b15801561062b57600080fd5b505afa15801561063f573d6000803e3d6000fd5b505050506040513d602081101561065557600080fd5b5051604080517f70a082310000000000000000000000000000000000000000000000000000000081523060048201529051919350600160a060020a038416916370a0823191602480820192602092909190829003018186803b1580156106ba57600080fd5b505afa1580156106ce573d6000803e3d6000fd5b505050506040513d60208110156106e457600080fd5b5051604080517f23b872dd000000000000000000000000000000000000000000000000000000008152336004820152306024820152604481018690529051919250600160a060020a038416916323b872dd916064808201926020929091908290030181600087803b15801561075857600080fd5b505af115801561076c573d6000803e3d6000fd5b505050506040513d602081101561078257600080fd5b5050604080517f70a08231000000000000000000000000000000000000000000000000000000008152306004820152905184918391600160a060020a038616916370a08231916024808301926020929190829003018186803b1580156107e757600080fd5b505afa1580156107fb573d6000803e3d6000fd5b505050506040513d602081101561081157600080fd5b5051031461081b57fe5b336000908152601060205260409020546108359084610b4f565b33600090815260106020526040902055505050565b600054600160a060020a031681565b600081156108735750600c54600160a060020a0316610319565b50600d54600160a060020a0316610319565b6000600160a060020a0383163014156108a057506001610998565b600154600160a060020a03848116911614156108be57506001610998565b600054600160a060020a031615156108d857506000610998565b600054604080517fb7009613000000000000000000000000000000000000000000000000000000008152600160a060020a0386811660048301523060248301527bffffffffffffffffffffffffffffffffffffffffffffffffffffffff19861660448301529151919092169163b7009613916064808301926020929190829003018186803b15801561096957600080fd5b505afa15801561097d573d6000803e3d6000fd5b505050506040513d602081101561099357600080fd5b505190505b92915050565b670de0b6b3a764000060006005548351604080517f1e7b9cce000000000000000000000000000000000000000000000000000000008152918502600483015251600160a060020a0390921691631e7b9cce9160248082019260009290919082900301818387803b158015610a1157600080fd5b505af1158015610a25573d6000803e3d6000fd5b5050600d546005546040517f62837555000000000000000000000000000000000000000000000000000000008152600160a060020a0391821660248201819052604482018890526060600483019081528951606484015289519390941695506362837555945088939092889282916084909101906020808801910280838360005b83811015610abe578181015183820152602001610aa6565b50505050905001945050505050600060405180830381600087803b158015610ae557600080fd5b505af1158015610af9573d6000803e3d6000fd5b50505050600090505b82518110156105345781601060008584815181101515610b1e57fe5b6020908102909101810151600160a060020a0316825281019190915260400160002080549091019055600101610b02565b8082018281101561099857600080fd5b6040516136ae80610b7083390190560060806040526000600755600060085534801561001a57600080fd5b5060018054600160a060020a031916331790556136728061003c6000396000f3006080604052600436106100ed5763ffffffff60e060020a60003504166302952d2881146100f25780631bafc37314610112578063277830501461012a5780633150c0a214610163578063477e3ed8146101785780634c0348ee146101ad57806362837555146101c25780637e5912d7146102285780637f8b94781461029f5780638976597714610376578063938270641461038b57806395c974321461042b5780639deca9ee14610440578063b4f153101461045b578063c28ec9d714610476578063e084d1ea146106d5578063f07e5d81146106ea578063f5ddff9214610791578063faa458f4146107ee575b600080fd5b3480156100fe57600080fd5b50610110600435602435604435610828565b005b34801561011e57600080fd5b50610110600435610ef8565b34801561013657600080fd5b50610151600160a060020a0360043516602435604435611062565b60408051918252519081900360200190f35b34801561016f57600080fd5b5061011061110d565b34801561018457600080fd5b50610110600160a060020a0360043581169060243590604435906064351660843560a43561112a565b3480156101b957600080fd5b50610151611320565b3480156101ce57600080fd5b50604080516020600480358082013583810280860185019096528085526101109536959394602494938501929182918501908490808284375094975050508335600160a060020a0316945050506020909101359050611326565b34801561023457600080fd5b50610249600160a060020a0360043516611439565b604080519b8c5260208c019a909a528a8a019890985260608a0196909652608089019490945260a088019290925260c087015260e086015261010085015261012084015261014083015251908190036101600190f35b3480156102ab57600080fd5b506040805160206004803580820135601f810184900484028501840190955284845261015194369492936024939284019190819084018382808284375050604080516020601f89358b018035918201839004830284018301909452808352979a99988101979196509182019450925082915084018382808284375050604080516020808901358a01803580830284810184018652818552999c8b359c909b909a9501985092965081019450909250829190850190849080828437509497506114939650505050505050565b34801561038257600080fd5b50610151611700565b34801561039757600080fd5b50604080516020600460443581810135601f810184900484028501840190955284845261011094823594602480359536959460649492019190819084018382808284375050604080516020808901358a01803580830284810184018652818552999c8b359c909b909a9501985092965081019450909250829190850190849080828437509497506117069650505050505050565b34801561043757600080fd5b50610151611924565b34801561044c57600080fd5b5061024960043560243561192a565b34801561046757600080fd5b506101106004356024356119a0565b34801561048257600080fd5b50604080516101208181019092526101109136916004916101249190839060099083908390808284375050604080516020601f88358a01803591820183900483028401830190945280835296999897810196919550918201935091508190840183828082843750506040805187358901803560208181028481018201909552818452989b9a99890198929750908201955093508392508501908490808284375050604080516020601f89358b018035918201839004830284018301909452808352979a999881019791965091820194509250829150840183828082843750506040805187358901803560208181028481018201909552818452989b9a99890198929750908201955093508392508501908490808284375050604080516020601f89358b018035918201839004830284018301909452808352979a999881019791965091820194509250829150840183828082843750506040805187358901803560208181028481018201909552818452989b9a99890198929750908201955093508392508501908490808284375050604080516020601f89358b018035918201839004830284018301909452808352979a99988101979196509182019450925082915084018382808284375050604080516020601f89358b018035918201839004830284018301909452808352979a999881019791965091820194509250829150840183828082843750506040805187358901803560208181028481018201909552818452989b9a9989019892975090820195509350839250850190849080828437509497506121ad9650505050505050565b3480156106e157600080fd5b5061015161230f565b3480156106f657600080fd5b50604080516020600460843581810135838102808601850190965280855261011095833595602480359660443596606435963696919560a49594909101928291908501908490808284375050604080516020808901358a01803580830284810184018652818552999c8b359c909b909a9501985092965081019450909250829190850190849080828437509497506123159650505050505050565b34801561079d57600080fd5b506107a9600435612479565b60408051600160a060020a039788168152602081019690965285810194909452919094166060840152608083019390935260a082019290925290519081900360c00190f35b3480156107fa57600080fd5b5061080c6004356024356044356124e1565b60408051600160a060020a039092168252519081900360200190f35b600154604080517f3a02a42d000000000000000000000000000000000000000000000000000000008152336004820152905185928592859266038d7ea4c6800092600160a060020a031691633a02a42d916024808301926020929190829003018186803b15801561089857600080fd5b505afa1580156108ac573d6000803e3d6000fd5b505050506040513d60208110156108c257600080fd5b50518115156108cd57fe5b048111156108da57600080fd5b600081116108e757600080fd5b33600090815260036020526040902054156109645733600090815260036020526040902054831461091757600080fd5b33600090815260036020526040902060010154821461093557600080fd5b6000838152600960209081526040808320338452825280832084845290915290205460ff161561096457600080fd5b8584600080600060045411151561097a57600080fd5b610e1060045442031115156109c95750506004547e123456789abcdf0123456789abcdf0123456789abcdf0123456789abcdf0129042038102806109bf338587611062565b106109c957600080fd5b60008a81526002602090815260408083208c8452909152902054600c116109ef57600080fd5b60008a81526002602090815260408083208c84529091529020541515610cfb5760078054600190810182556005602090815260408051610160810182528e81529182018d81526000918301828152606084018381526080850184815260a0860185815260c0870186815260e0880187815261010089018881526101208a018981526101408b018a81527f05b8ccbb9d4d8fb16ea74ce3c29a41f1b461fbdaff4714a0d9a8eb05499746bc80549d8e018155909a5299517fd08c889a2b804c67887cd70e57ff036e6bc341281711f6587c117607d171d093600b909c029b8c015596517fd08c889a2b804c67887cd70e57ff036e6bc341281711f6587c117607d171d0948b015594517fd08c889a2b804c67887cd70e57ff036e6bc341281711f6587c117607d171d0958a015592517fd08c889a2b804c67887cd70e57ff036e6bc341281711f6587c117607d171d09689015590517fd08c889a2b804c67887cd70e57ff036e6bc341281711f6587c117607d171d097880155517fd08c889a2b804c67887cd70e57ff036e6bc341281711f6587c117607d171d098870155517fd08c889a2b804c67887cd70e57ff036e6bc341281711f6587c117607d171d099860155517fd08c889a2b804c67887cd70e57ff036e6bc341281711f6587c117607d171d09a850155517fd08c889a2b804c67887cd70e57ff036e6bc341281711f6587c117607d171d09b84015590517fd08c889a2b804c67887cd70e57ff036e6bc341281711f6587c117607d171d09c830155517fd08c889a2b804c67887cd70e57ff036e6bc341281711f6587c117607d171d09d9091015554600290061515610cfb576000805260056020526007547f05b8ccbb9d4d8fb16ea74ce3c29a41f1b461fbdaff4714a0d9a8eb05499746bc8054429260001901908110610c9057fe5b600091825260208083206002600b9093020191909101929092558052600590526007547f05b8ccbb9d4d8fb16ea74ce3c29a41f1b461fbdaff4714a0d9a8eb05499746bc8054429260011901908110610ce557fe5b90600052602060002090600b0201600201819055505b610160604051908101604052808b6000191681526020018a81526020016000815260200160008152602001600060010260001916815260200160006001026000191681526020016000815260200160008152602001600081526020016000815260200160008152506003600033600160a060020a0316600160a060020a03168152602001908152602001600020600082015181600001906000191690556020820151816001015560408201518160020155606082015181600301556080820151816004019060001916905560a0820151816005019060001916905560c0820151816006015560e082015181600701556101008201518160080155610120820151816009015561014082015181600a0155905050600260008b6000191660001916815260200190815260200160002060008a81526020019081526020016000203390806001815401808255809150509060018203906000526020600020016000909192909190916101000a815481600160a060020a030219169083600160a060020a03160217905550506001600960008c60001916600019168152602001908152602001600020600033600160a060020a0316600160a060020a0316815260200190815260200160002060008a815260200190815260200160002060006101000a81548160ff02191690831515021790555050505050505050505050565b600081600854600754036001141515610f1057600080fd5b600081815260056020526040902054600114610f2b57600080fd5b600083815260056020526040812080549091908110610f4657fe5b6000918252602080832060018054600b9094029091018054918101548286526002845260408087208288529094529483902092517f743ed4310000000000000000000000000000000000000000000000000000000081526004810183815260248201879052606060448301908152855460648401819052939950600160a060020a039096169663743ed43196949590949093919290916084909101908490801561101957602002820191906000526020600020905b8154600160a060020a03168152600190910190602001808311610ffb575b5050945050505050600060405180830381600087803b15801561103b57600080fd5b505af115801561104f573d6000803e3d6000fd5b5050600154600160a060020a0316915050ff5b604080516c01000000000000000000000000600160a060020a03861602602080830191909152603482018590526054808301859052835180840390910181526074909201928390528151600093918291908401908083835b602083106110d95780518252601f1990920191602091820191016110ba565b5181516020939093036101000a60001901801990911692169190911790526040519201829003909120979650505050505050565b600154600160a060020a0316331461112457600080fd5b42600455565b60015460009081908190600160a060020a0316331461114857600080fd5b6000805493509150818311156111a45760008054600019850190811061116a57fe5b90600052602060002090600602016004015460006001850381548110151561118e57fe5b9060005260206000209060060201600501540191505b506002600185010260008812156111bb5760028402015b6040805160c081018252600160a060020a039a8b16815260208101998a52908101978852958916606087019081526080870191825260a0870192835260008054600181018255908052965160069097027f290decd9548b62a8d60345a988386fc84ba6bc95484008f6362f93160ef3e56381018054988c1673ffffffffffffffffffffffffffffffffffffffff19998a1617905598517f290decd9548b62a8d60345a988386fc84ba6bc95484008f6362f93160ef3e5648a015596517f290decd9548b62a8d60345a988386fc84ba6bc95484008f6362f93160ef3e56589015595517f290decd9548b62a8d60345a988386fc84ba6bc95484008f6362f93160ef3e5668801805491909916951694909417909655505090517f290decd9548b62a8d60345a988386fc84ba6bc95484008f6362f93160ef3e567830155517f290decd9548b62a8d60345a988386fc84ba6bc95484008f6362f93160ef3e5689091015550565b60085481565b600080541561133457600080fd5b600154600160a060020a0316331461134b57600080fd5b5060005b835181101561143357600060c060405190810160405280868481518110151561137457fe5b6020908102909101810151600160a060020a03908116835282820187905260006040808501829052898316606080870191909152600460808088018290528a820260a098890152895460018181018c559a8652948790208951600690960201805495871673ffffffffffffffffffffffffffffffffffffffff1996871617815596890151878b0155928801516002870155908701516003860180549190951693169290921790925590840151908201559101516005909101550161134f565b50505050565b600360205280600052604060002060009150905080600001549080600101549080600201549080600301549080600401549080600501549080600601549080600701549080600801549080600901549080600a015490508b565b600061149d6135f4565b6114a561360b565b60008060006114b261362b565b60408051908101604052808c6040518082805190602001908083835b602083106114ed5780518252601f1990920191602091820191016114ce565b6001836020036101000a03801982511681845116808217855250505050505090500191505060405180910390206000191681526020016101008152509550896040518082805190602001908083835b6020831061155b5780518252601f19909201916020918201910161153c565b5181516020939093036101000a600019018019909116921691909117905260405192018290039091208852506000955050505b88156116e15761159d89612525565b60ff1692508260019060020a0219891698506115c58360ff038761257e90919063ffffffff16565b602087018190529096506115d8906125f2565b602087015291506115e885612659565b8183600281106115f457fe5b6020020152875188908581036000190190811061160d57fe5b90602001906020020151818360010360028110151561162857fe5b6020908102919091019190915260408051839201908190839080838360005b8381101561165f578181015183820152602001611647565b505050509050019150506040516020818303038152906040526040518082805190602001908083835b602083106116a75780518252601f199092019160209182019101611688565b5181516020939093036101000a6000190180199091169216919091179052604051920182900390912088525050506001939093019261158e565b602085018690526116f185612659565b9b9a5050505050505050505050565b60005490565b6000858152600560205260408120805482916060918391908990811061172857fe5b90600052602060002090600b020160090154600560008b81526020019081526020016000208981548110151561175a57fe5b90600052602060002090600b0201600801541415151561177957600080fd5b6000898152600560205260409020805461182791908a90811061179857fe5b90600052602060002090600b0201600801546002611818600560008e81526020019081526020016000208c8154811015156117cf57fe5b90600052602060002090600b020160090154600560008f81526020019081526020016000208d81548110151561180157fe5b90600052602060002090600b0201600801546126f6565b81151561182157fe5b0461270c565b60008a81526005602052604090208054919550908990811061184557fe5b6000918252602091829020600b91909102016004015460408051838152808201909152909450908181016104008038833901905050915083602083015261188e82888888611493565b905082811461190d576040805160e560020a62461bcd02815260206004820152602560248201527f636f6c6f6e792d696e76616c69642d62696e6172792d7365617263682d72657360448201527f706f6e7365000000000000000000000000000000000000000000000000000000606482015290519081900360840190fd5b6119198989898761271c565b505050505050505050565b60075481565b60056020528160005260406000208181548110151561194557fe5b90600052602060002090600b02016000915091505080600001549080600101549080600201549080600301549080600401549080600501549080600601549080600701549080600801549080600901549080600a015490508b565b60008080600284066001146119b857836001016119bd565b600184035b6000868152600560205260409020549093506002900660011480156119ef575060008581526005602052604090205484145b15611ba157600019850160009081526005602090815260408083205460069092529091205414611a1e57600080fd5b600085815260056020526040902054600110611a3957600080fd5b600185016000908152600560205260408082208783529120805485908110611a5d57fe5b60009182526020808320845460018082018755958552828520600b94850290920180549490910290910192835580850154948301949094556002808501549083015560038085015490830155600480850154908301556005808501548184015560068086015490840155600780860154908401556008808601549084015560098086015490840155600a94850154949092019390935587825290915260409020805484908110611b0957fe5b60009182526020808320600b90920290910182815560018082018490556002808301859055600383018590556004830185905560058084018690556006808501879055600785018790556008850187905560098501879055600a9094018690558a86529284526040808620805484019055918a01855291909252912054925082061515611b9c57611b9c8560010161289b565b6121a6565b6000858152600560205260409020548310611bbb57600080fd5b6000858152600560205260409020805484908110611bd557fe5b60009182526020909120600b90910201541515611bf157600080fd5b6000858152600560205260409020805485908110611c0b57fe5b90600052602060002090600b0201600301546005600087815260200190815260200160002084815481101515611c3d57fe5b90600052602060002090600b02016003015410151515611c5c57600080fd5b6000858152600560205260409020805485908110611c7657fe5b90600052602060002090600b0201600a01546005600087815260200190815260200160002084815481101515611ca857fe5b90600052602060002090600b0201600a015410151515611cc757600080fd5b60008581526005602052604090208054610258919086908110611ce657fe5b90600052602060002090600b020160020154420310151515611d0757600080fd5b506000848152600560205260408120805485908110611d2257fe5b90600052602060002090600b0201600301546005600087815260200190815260200160002084815481101515611d5457fe5b90600052602060002090600b020160030154148015611dce57506000858152600560205260409020805485908110611d8857fe5b90600052602060002090600b0201600a01546005600087815260200190815260200160002084815481101515611dba57fe5b90600052602060002090600b0201600a0154145b15611dd7575060015b801515611f3d57600185016000908152600560205260408082208783529120805485908110611e0257fe5b60009182526020808320845460018082018755958552828520600b94850290920180549490910290910192835580850154948301949094556002808501549083015560038085015490830155600480850154908301556005808501548184015560068086015490840155600780860154908401556008808601549084015560098086015490840155600a94850154949092019390935587825290915260409020805484908110611eae57fe5b60009182526020808320600b90920290910182815560018082018490556002808301859055600383018590556004830185905560058084018690556006840186905560078401869055600880850187905560098501879055600a9094018690558354830190935590890184529152604090912054925082061515611f3857611f388560010161289b565b612070565b60088054600290810190915560015460008781526005602052604081208054600160a060020a0390931693635736b732939092919088908110611f7c57fe5b60009182526020808320600b90920290910154835282810193909352604091820181208a82526005909352908120805488908110611fb657fe5b90600052602060002090600b02016001015481526020019081526020016000206040518263ffffffff1660e060020a0281526004018080602001828103825283818154815260200191508054801561203757602002820191906000526020600020905b8154600160a060020a03168152600190910190602001808311612019575b505092505050600060405180830381600087803b15801561205757600080fd5b505af115801561206b573d6000803e3d6000fd5b505050505b60008581526006602090815260408083208054600290810190915560015460059093529083208054600160a060020a0390931693635736b73293909190899081106120b757fe5b60009182526020808320600b90920290910154835282810193909352604091820181208a825260059093529081208054899081106120f157fe5b90600052602060002090600b02016001015481526020019081526020016000206040518263ffffffff1660e060020a0281526004018080602001828103825283818154815260200191508054801561217257602002820191906000526020600020905b8154600160a060020a03168152600190910190602001808311612154575b505092505050600060405180830381600087803b15801561219257600080fd5b505af1158015611919573d6000803e3d6000fd5b5050505050565b89516020808c01516000838152600590925260409091208054829081106121d057fe5b90600052602060002090600b020160090154600560008481526020019081526020016000208281548110151561220257fe5b90600052602060002090600b02016008015414151561222057600080fd5b60006101008d01528b5160208d015161223a91908d6128c9565b6122478c8c8c8c8c6129f7565b6122548c8c8c8a8a612b76565b6122608c8a8987612cfd565b6101008c0151600114156122885761227e8c8c8c8c8c8a8a8a612dc7565b6122888c85612ed5565b8b5160009081526005602052604090206001908d826020020151815481106122ac57fe5b60009182526020808320600b929092029091016003018054939093019092558d51815260059091526040902042908d60016020020151815481106122ec57fe5b90600052602060002090600b020160020181905550505050505050505050505050565b60045481565b600087815260056020526040902080548790811061232f57fe5b600091825260209091206004600b9092020101541561234d57600080fd5b612358858585612f19565b61236587878785856130e7565b600087815260056020526040902080548691908890811061238257fe5b90600052602060002090600b020160040181600019169055504260056000898152602001908152602001600020878154811015156123bc57fe5b90600052602060002090600b020160020181905550600160056000898152602001908152602001600020878154811015156123f357fe5b600091825260208083206003600b9093020191909101805490930190925588815260059091526040902080548790811061242957fe5b90600052602060002090600b020160070154600560008981526020019081526020016000208781548110151561245b57fe5b90600052602060002090600b02016009018190555050505050505050565b6000806000806000806000808881548110151561249257fe5b6000918252602090912060069091020180546001820154600283015460038401546004850154600590950154600160a060020a039485169e939d50919b50929092169850919650945092505050565b60026020528260005260406000206020528160005260406000208181548110151561250857fe5b600091825260209091200154600160a060020a0316925083915050565b6000808083151561253557600080fd5b5082905060805b600160ff8216106125775760001960ff821660020a018216151561256a579182019160ff811660020a909104905b600260ff9091160461253c565b5050919050565b6125866135f4565b61258e6135f4565b836020015183111580156125a457506101008311155b15156125ac57fe5b602082018390528215156125c357600082526125d5565b835160ff84900360020a600119021682525b60208085015184900390820152925160029290920a909102825291565b60006125fc6135f4565b602083015160001061260d57600080fd5b50508051604080518082019091528251600202815260209283015160001901928101929092527f8000000000000000000000000000000000000000000000000000000000000000900491565b8051602080830151808201519051604080518085019590955284810192909252606080850191909152815180850390910181526080909301908190528251600093928291908401908083835b602083106126c45780518252601f1990920191602091820191016126a5565b5181516020939093036101000a6000190180199091169216919091179052604051920182900390912095945050505050565b8082038281111561270657600080fd5b92915050565b8082018281101561270657600080fd5b60008481526005602052604081208054829182914291908890811061273d57fe5b90600052602060002090600b0201600201819055506001600560008981526020019081526020016000208781548110151561277457fe5b90600052602060002090600b02016003016000828254019250508190555060208501519250604085015191508260056000898152602001908152602001600020878154811015156127c157fe5b600091825260208083206005600b90930201820193909355898252909152604090208054839190889081106127f257fe5b600091825260209091206006600b9092020101556002860660011461281a578560010161281f565b600186035b60008881526005602052604090208054919250908790811061283d57fe5b90600052602060002090600b020160030154600560008981526020019081526020016000208281548110151561286f57fe5b90600052602060002090600b02016003015414156128925761289287878661324d565b50505050505050565b6000818152600560205260409020546128b8826000198301613449565b6128c58260028303613449565b5050565b600060606000806000806001600560008b8152602001908152602001600020898154811015156128f557fe5b6000918252602091829020600b909102016008015460408051604880825260808201909252939091039850908201610900803883390190505050506014860151603487015160488801518896509194509092509050600082600160a060020a031660008781548110151561296557fe5b6000918252602090912060069091020154600160a060020a03161461298957600080fd5b83600160a060020a03166000878154811015156129a257fe5b6000918252602090912060036006909202010154600160a060020a0316146129c957600080fd5b816000878154811015156129d957fe5b90600052602060002090600602016002015414151561191957600080fd5b84516000908152600560205260408120819081908190606090819083908c6001602002015181548110612a2657fe5b60009182526020808320600b92909202909101600401548e518352600582526040909220908e015181549299506001928110612a5e57fe5b90600052602060002090600b02016008015403955060208901519450612a998b8a8e6002600981101515612a8e57fe5b60200201518d611493565b6040805181815260608101825291955060208201610800803883395050604080516020808252818301909252929550905080820161040080388339505050602084810186905260608e0151604086015281018790529150612b0382848e600460200201518b611493565b905084158015612b135750808714155b15612b1d57612b68565b808714612b2957600080fd5b8b5160009081526005602052604090206001908d82602002015181548110612b4d57fe5b600091825260209091206003600b9092020101805490910190555b505050505050505050505050565b8451600090815260056020526040812081908190606090819083908b6001602002015181548110612ba357fe5b60009182526020808320600b92909202909101600401548d518352600590915260409091209096508b6001602002015181548110612bdd57fe5b600091825260209091206008600b9092020101549450612c078a898d60025b60200201518c611493565b6040805181815260608101825291955060208201610800803883395050604080516020808252818301909252929550905080820161040080388339505050602084810186905260a08d0151604086015281018690529150612c7182848d600660200201518a611493565b9050858114612cf0576040805160e560020a62461bcd02815260206004820152602560248201527f636f6c6f6e792d696e76616c69642d61667465722d72657075746174696f6e2d60448201527f70726f6f66000000000000000000000000000000000000000000000000000000606482015290519081900360840190fd5b5050505050505050505050565b835160009081526005602052604081208190819081908190819081906001908c82602002015181548110612d2d57fe5b90600052602060002090600b02016008015403965060208a015194506020890151935060408a0151925060408901519150826000141515612d7957828214612d7457600080fd5b612d97565b506040870151600181018214612d8e57600080fd5b60016101008c01525b83600088815481101515612da757fe5b9060005260206000209060060201600101548601141515612cf057600080fd5b875160009081526005602052604081208190606090819083906001908e82602002015181548110612df457fe5b600091825260209091206008600b909202010154039450612e1e88888f6007602002015189611493565b6040805181815260608101825291955060208201610800803883395050604080516020808252818301909252929550905080820161040080388339505050602084810186905260608f0151604086015281018690529150612e8282848f6004612bfc565b8d5160009081526005602052604090209091508d6001602002015181548110612ea757fe5b600091825260209091206004600b9092020101548114612ec657600080fd5b50505050505050505050505050565b604081810151835160009081526005602052919091208190846001602002015181548110612eff57fe5b90600052602060002090600b0201600a0181905550505050565b6000806060806000600160009054906101000a9004600160a060020a0316600160a060020a03166397824c3f6040518163ffffffff1660e060020a02815260040160206040518083038186803b158015612f7257600080fd5b505afa158015612f86573d6000803e3d6000fd5b505050506040513d6020811015612f9c57600080fd5b5051600154604080517f7680150d0000000000000000000000000000000000000000000000000000000081529051929750600160a060020a0390911691637680150d91600480820192602092909190829003018186803b158015612fff57600080fd5b505afa158015613013573d6000803e3d6000fd5b505050506040513d602081101561302957600080fd5b5051604080518181526060810182529195506020820161080080388339505060408051602080825281830190925292955090508082016104008038833901905050915084602084015283604084015261308482848989611493565b90508781146130dd576040805160e560020a62461bcd02815260206004820152601a60248201527f636f6c6f6e792d696e76616c69642d6a72682d70726f6f662d31000000000000604482015290519081900360640190fd5b5050505050505050565b6000805460408051602080825281830190925291926060929091829184918391908082016104008038833950505060008c8152600560205260409020805491965060018801918c90811061313757fe5b90600052602060002090600b020160070181905550600560008c81526020019081526020016000208a81548110151561316c57fe5b90600052602060002090600b0201600001549350600560008c81526020019081526020016000208a8154811015156131a057fe5b600091825260209091206001600b909202010154604080518181526060810182529194508160200160208202803883390190505091508360208301528260408301528560208601526131f485838a8a611493565b9050888114612cf0576040805160e560020a62461bcd02815260206004820152601a60248201527f636f6c6f6e792d696e76616c69642d6a72682d70726f6f662d32000000000000604482015290519081900360640190fd5b6000600283066001146132635782600101613268565b600183035b60008581526005602052604090208054919250908490811061328657fe5b600091825260208083206005600b9093020182015487845291905260409091208054839081106132b257fe5b90600052602060002090600b02016005015460001916148015613330575060008481526005602052604090208054849081106132ea57fe5b90600052602060002090600b020160060154600560008681526020019081526020016000208281548110151561331c57fe5b90600052602060002090600b020160060154145b156133a857600084815260056020526040902080546001840191908590811061335557fe5b90600052602060002090600b02016008018190555081600101600560008681526020019081526020016000208281548110151561338e57fe5b90600052602060002090600b020160080181905550613411565b60008481526005602052604090208054839190859081106133c557fe5b90600052602060002090600b0201600901819055508160056000868152602001908152602001600020828154811015156133fb57fe5b90600052602060002090600b0201600901819055505b600084815260056020526040902080544291908390811061342e57fe5b90600052602060002090600b02016002018190555050505050565b600082815260056020526040902080544291908390811061346657fe5b90600052602060002090600b020160020181905550600560008381526020019081526020016000208181548110151561349b57fe5b90600052602060002090600b02016007015460056000848152602001908152602001600020828154811015156134cd57fe5b90600052602060002090600b0201600901819055506000600560008481526020019081526020016000208281548110151561350457fe5b90600052602060002090600b0201600801819055506000600560008481526020019081526020016000208281548110151561353b57fe5b90600052602060002090600b0201600a0181905550600560008381526020019081526020016000208181548110151561357057fe5b600091825260209091206004600b909202010154156135c1576000828152600560205260409020805460019190839081106135a757fe5b90600052602060002090600b0201600301819055506128c5565b60008281526005602052604081208054839081106135db57fe5b90600052602060002090600b0201600301819055505050565b604080518082019091526000808252602082015290565b604080516060810190915260008152602081016136266135f4565b905290565b604080518082018252906002908290803883395091929150505600a165627a7a723058202e5495e9c685a6ba6d84c02a30c3d6b0ae6537929c4e36d3c05bed35baee91b70029a165627a7a723058209d0de99783002ceae8471b6374601be20da6aebadad22f2c5e6d754e433acb010029",
  "source": "/*\n  This file is part of The Colony Network.\n\n  The Colony Network is free software: you can redistribute it and/or modify\n  it under the terms of the GNU General Public License as published by\n  the Free Software Foundation, either version 3 of the License, or\n  (at your option) any later version.\n\n  The Colony Network is distributed in the hope that it will be useful,\n  but WITHOUT ANY WARRANTY; without even the implied warranty of\n  MERCHANTABILITY or FITNESS FOR A PARTICULAR PURPOSE.  See the\n  GNU General Public License for more details.\n\n  You should have received a copy of the GNU General Public License\n  along with The Colony Network. If not, see <http://www.gnu.org/licenses/>.\n*/\n\npragma solidity ^0.4.23;\npragma experimental \"v0.5.0\";\n\nimport \"../lib/dappsys/auth.sol\";\nimport \"./Authority.sol\";\nimport \"./IColony.sol\";\nimport \"./EtherRouter.sol\";\nimport \"./ERC20Extended.sol\";\nimport \"./ColonyNetworkStorage.sol\";\nimport \"./IColonyNetwork.sol\";\nimport \"./ReputationMiningCycle.sol\";\n\n\ncontract ColonyNetworkStaking is ColonyNetworkStorage, DSMath {\n  // TODO: Can we handle a dispute regarding the very first hash that should be set?\n\n  modifier onlyReputationMiningCycle () {\n    require(msg.sender == activeReputationMiningCycle);\n    _;\n  }\n\n  function deposit(uint256 _amount) public {\n    // Get CLNY address\n    ERC20Extended clny = ERC20Extended(IColony(metaColony).getToken());\n    uint256 networkBalance = clny.balanceOf(this);\n    // Move some over.\n    clny.transferFrom(msg.sender, this, _amount);\n    // Check it actually transferred\n    assert(clny.balanceOf(this)-networkBalance==_amount);\n    // Note who it belongs to.\n    stakedBalances[msg.sender] = add(stakedBalances[msg.sender], _amount);\n  }\n\n  function withdraw(uint256 _amount) public {\n    //Temporarily Commented by Randy Venturina\n    /*uint256 balance = stakedBalances[msg.sender];\n    require(balance >= _amount);\n    bytes32 submittedHash;\n    (submittedHash, ) = ReputationMiningCycle(activeReputationMiningCycle).reputationHashSubmissions(msg.sender);    \n    bool hasRequesterSubmitted = submittedHash == 0x0 ? false : true;\n    require(hasRequesterSubmitted==false);\n    stakedBalances[msg.sender] -= _amount;\n    ERC20Extended clny = ERC20Extended(IColony(metaColony).getToken());\n    clny.transfer(msg.sender, _amount);*/\n  }\n\n  function getStakedBalance(address _user) public view returns (uint) {\n    return stakedBalances[_user];\n  }\n\n  function setReputationRootHash(bytes32 newHash, uint256 newNNodes, address[] stakers) public\n  onlyReputationMiningCycle\n  {\n    reputationRootHash = newHash;\n    reputationRootHashNNodes = newNNodes;\n    // Reward stakers\n    activeReputationMiningCycle = 0x0;\n    startNextCycle();\n    rewardStakers(stakers);\n  }\n\n  function startNextCycle() public {\n    require(activeReputationMiningCycle == 0x0);\n    activeReputationMiningCycle = inactiveReputationMiningCycle;\n    if (activeReputationMiningCycle == 0x0) {\n      // This will only be true the very first time that this is run, to kick off the whole reputation mining process\n      activeReputationMiningCycle = new ReputationMiningCycle();\n    }\n    ReputationMiningCycle(activeReputationMiningCycle).resetWindow();\n    inactiveReputationMiningCycle = new ReputationMiningCycle();\n  }\n\n  function getReputationMiningCycle(bool _active) public view returns(address) {\n    if (_active) {\n      return activeReputationMiningCycle;\n    } else {\n      return inactiveReputationMiningCycle;\n    }\n  }\n\n  function punishStakers(address[] stakers) public\n  onlyReputationMiningCycle\n  {\n    // TODO: Actually think about this function\n    // Passing an array so that we don't incur the EtherRouter overhead for each staker if we looped over\n    // it in ReputationMiningCycle.invalidateHash;\n    for (uint256 i = 0; i < stakers.length; i++) {\n      // This is pretty harsh! Are we happy with this?\n      // Alternative: lose more than they would have gained for backing the right hash.\n      stakedBalances[stakers[i]] = 0;\n    }\n    // TODO: Where do these staked tokens go? Maybe split between the person who did the 'invalidate' transaction\n    // and the colony network?\n    // TODO: Lose rep?\n  }\n\n  function rewardStakers(address[] stakers) internal {\n    // Internal unlike punish, because it's only ever called from setReputationRootHash\n\n    // TODO: Actually think about this function\n    // Passing an array so that we don't incur the EtherRouter overhead for each staker if we looped over\n    // it in ReputationMiningCycle.confirmNewHash;\n    uint256 reward = 10**18; //TODO: Actually work out how much reputation they earn, based on activity elsewhere in the colony.\n    if (reward >= uint256(int256(-1))/2) {\n      reward = uint256(int256(-1))/2;\n    }\n    // TODO: We need to be able to prove that the assert on the next line will never happen, otherwise we're locked out of reputation mining.\n    // Something like the above cap is an adequate short-term solution, but at the very least need to double check the limits\n    // (which I've fingered-in-the-air, but could easily have an OBOE hiding inside).\n    assert(reward < uint256(int256(-1))); // We do a cast later, so make sure we don't overflow.\n\n    IColony(metaColony).mintTokensForColonyNetwork(stakers.length * reward); // This should be the total amount of new tokens we're awarding.\n\n    ReputationMiningCycle(inactiveReputationMiningCycle).rewardStakersWithReputation(stakers, metaColony, reward); // This gives them reputation in the next update cycle.\n\n    for (uint256 i = 0; i < stakers.length; i++) {\n      // Also give them some newly minted tokens.\n      // We reinvest here as it's much easier (gas-wise).\n      stakedBalances[stakers[i]] += reward;\n    }\n  }\n}\n",
  "sourcePath": "/root/intuition-machine/colonyNetwork/contracts/ColonyNetworkStaking.sol",
  "compiler": {
    "name": "solc",
    "version": "0.4.24+commit.e67f0147.Emscripten.clang"
  },
  "schemaVersion": "2.0.0",
  "updatedAt": "2018-06-20T09:03:22.744Z"
}