{
  "contractName": "ColonyTask",
  "abi": [
    {
      "constant": false,
      "inputs": [
        {
          "name": "owner_",
          "type": "address"
        }
      ],
      "name": "setOwner",
      "outputs": [],
      "payable": false,
      "stateMutability": "nonpayable",
      "type": "function"
    },
    {
      "constant": true,
      "inputs": [
        {
          "name": "",
          "type": "uint256"
        }
      ],
      "name": "taskWorkRatings",
      "outputs": [
        {
          "name": "count",
          "type": "uint256"
        },
        {
          "name": "timestamp",
          "type": "uint256"
        }
      ],
      "payable": false,
      "stateMutability": "view",
      "type": "function"
    },
    {
      "constant": true,
      "inputs": [
        {
          "name": "",
          "type": "uint256"
        }
      ],
      "name": "domains",
      "outputs": [
        {
          "name": "skillId",
          "type": "uint256"
        },
        {
          "name": "potId",
          "type": "uint256"
        }
      ],
      "payable": false,
      "stateMutability": "view",
      "type": "function"
    },
    {
      "constant": false,
      "inputs": [
        {
          "name": "authority_",
          "type": "address"
        }
      ],
      "name": "setAuthority",
      "outputs": [],
      "payable": false,
      "stateMutability": "nonpayable",
      "type": "function"
    },
    {
      "constant": true,
      "inputs": [],
      "name": "owner",
      "outputs": [
        {
          "name": "",
          "type": "address"
        }
      ],
      "payable": false,
      "stateMutability": "view",
      "type": "function"
    },
    {
      "constant": true,
      "inputs": [],
      "name": "authority",
      "outputs": [
        {
          "name": "",
          "type": "address"
        }
      ],
      "payable": false,
      "stateMutability": "view",
      "type": "function"
    },
    {
      "anonymous": false,
      "inputs": [
        {
          "indexed": true,
          "name": "id",
          "type": "uint256"
        }
      ],
      "name": "TaskAdded",
      "type": "event"
    },
    {
      "anonymous": false,
      "inputs": [
        {
          "indexed": true,
          "name": "authority",
          "type": "address"
        }
      ],
      "name": "LogSetAuthority",
      "type": "event"
    },
    {
      "anonymous": false,
      "inputs": [
        {
          "indexed": true,
          "name": "owner",
          "type": "address"
        }
      ],
      "name": "LogSetOwner",
      "type": "event"
    },
    {
      "constant": false,
      "inputs": [
        {
          "name": "_specificationHash",
          "type": "bytes32"
        },
        {
          "name": "_domainId",
          "type": "uint256"
        }
      ],
      "name": "makeTask",
      "outputs": [],
      "payable": false,
      "stateMutability": "nonpayable",
      "type": "function"
    },
    {
      "constant": true,
      "inputs": [],
      "name": "getTaskCount",
      "outputs": [
        {
          "name": "",
          "type": "uint256"
        }
      ],
      "payable": false,
      "stateMutability": "view",
      "type": "function"
    },
    {
      "constant": true,
      "inputs": [],
      "name": "getTaskChangeNonce",
      "outputs": [
        {
          "name": "",
          "type": "uint256"
        }
      ],
      "payable": false,
      "stateMutability": "view",
      "type": "function"
    },
    {
      "constant": false,
      "inputs": [
        {
          "name": "_sigV",
          "type": "uint8[]"
        },
        {
          "name": "_sigR",
          "type": "bytes32[]"
        },
        {
          "name": "_sigS",
          "type": "bytes32[]"
        },
        {
          "name": "_mode",
          "type": "uint8[]"
        },
        {
          "name": "_value",
          "type": "uint256"
        },
        {
          "name": "_data",
          "type": "bytes"
        }
      ],
      "name": "executeTaskChange",
      "outputs": [],
      "payable": false,
      "stateMutability": "nonpayable",
      "type": "function"
    },
    {
      "constant": false,
      "inputs": [
        {
          "name": "_id",
          "type": "uint256"
        },
        {
          "name": "_role",
          "type": "uint8"
        },
        {
          "name": "_ratingSecret",
          "type": "bytes32"
        }
      ],
      "name": "submitTaskWorkRating",
      "outputs": [],
      "payable": false,
      "stateMutability": "nonpayable",
      "type": "function"
    },
    {
      "constant": false,
      "inputs": [
        {
          "name": "_id",
          "type": "uint256"
        },
        {
          "name": "_role",
          "type": "uint8"
        },
        {
          "name": "_rating",
          "type": "uint8"
        },
        {
          "name": "_salt",
          "type": "bytes32"
        }
      ],
      "name": "revealTaskWorkRating",
      "outputs": [],
      "payable": false,
      "stateMutability": "nonpayable",
      "type": "function"
    },
    {
      "constant": false,
      "inputs": [
        {
          "name": "_id",
          "type": "uint256"
        }
      ],
      "name": "assignWorkRating",
      "outputs": [],
      "payable": false,
      "stateMutability": "nonpayable",
      "type": "function"
    },
    {
      "constant": true,
      "inputs": [
        {
          "name": "_salt",
          "type": "bytes32"
        },
        {
          "name": "_value",
          "type": "uint256"
        }
      ],
      "name": "generateSecret",
      "outputs": [
        {
          "name": "",
          "type": "bytes32"
        }
      ],
      "payable": false,
      "stateMutability": "pure",
      "type": "function"
    },
    {
      "constant": true,
      "inputs": [
        {
          "name": "_id",
          "type": "uint256"
        }
      ],
      "name": "getTaskWorkRatings",
      "outputs": [
        {
          "name": "",
          "type": "uint256"
        },
        {
          "name": "",
          "type": "uint256"
        }
      ],
      "payable": false,
      "stateMutability": "view",
      "type": "function"
    },
    {
      "constant": true,
      "inputs": [
        {
          "name": "_id",
          "type": "uint256"
        },
        {
          "name": "_role",
          "type": "uint8"
        }
      ],
      "name": "getTaskWorkRatingSecret",
      "outputs": [
        {
          "name": "",
          "type": "bytes32"
        }
      ],
      "payable": false,
      "stateMutability": "view",
      "type": "function"
    },
    {
      "constant": false,
      "inputs": [
        {
          "name": "_id",
          "type": "uint256"
        },
        {
          "name": "_role",
          "type": "uint8"
        },
        {
          "name": "_user",
          "type": "address"
        }
      ],
      "name": "setTaskRoleUser",
      "outputs": [],
      "payable": false,
      "stateMutability": "nonpayable",
      "type": "function"
    },
    {
      "constant": false,
      "inputs": [
        {
          "name": "_id",
          "type": "uint256"
        },
        {
          "name": "_domainId",
          "type": "uint256"
        }
      ],
      "name": "setTaskDomain",
      "outputs": [],
      "payable": false,
      "stateMutability": "nonpayable",
      "type": "function"
    },
    {
      "constant": false,
      "inputs": [
        {
          "name": "_id",
          "type": "uint256"
        },
        {
          "name": "_skillId",
          "type": "uint256"
        }
      ],
      "name": "setTaskSkill",
      "outputs": [],
      "payable": false,
      "stateMutability": "nonpayable",
      "type": "function"
    },
    {
      "constant": false,
      "inputs": [
        {
          "name": "_id",
          "type": "uint256"
        },
        {
          "name": "_specificationHash",
          "type": "bytes32"
        }
      ],
      "name": "setTaskBrief",
      "outputs": [],
      "payable": false,
      "stateMutability": "nonpayable",
      "type": "function"
    },
    {
      "constant": false,
      "inputs": [
        {
          "name": "_id",
          "type": "uint256"
        },
        {
          "name": "_dueDate",
          "type": "uint256"
        }
      ],
      "name": "setTaskDueDate",
      "outputs": [],
      "payable": false,
      "stateMutability": "nonpayable",
      "type": "function"
    },
    {
      "constant": false,
      "inputs": [
        {
          "name": "_id",
          "type": "uint256"
        },
        {
          "name": "_deliverableHash",
          "type": "bytes32"
        }
      ],
      "name": "submitTaskDeliverable",
      "outputs": [],
      "payable": false,
      "stateMutability": "nonpayable",
      "type": "function"
    },
    {
      "constant": false,
      "inputs": [
        {
          "name": "_id",
          "type": "uint256"
        }
      ],
      "name": "finalizeTask",
      "outputs": [],
      "payable": false,
      "stateMutability": "nonpayable",
      "type": "function"
    },
    {
      "constant": false,
      "inputs": [
        {
          "name": "_id",
          "type": "uint256"
        }
      ],
      "name": "cancelTask",
      "outputs": [],
      "payable": false,
      "stateMutability": "nonpayable",
      "type": "function"
    },
    {
      "constant": true,
      "inputs": [
        {
          "name": "_id",
          "type": "uint256"
        }
      ],
      "name": "getTask",
      "outputs": [
        {
          "name": "",
          "type": "bytes32"
        },
        {
          "name": "",
          "type": "bytes32"
        },
        {
          "name": "",
          "type": "bool"
        },
        {
          "name": "",
          "type": "bool"
        },
        {
          "name": "",
          "type": "uint256"
        },
        {
          "name": "",
          "type": "uint256"
        },
        {
          "name": "",
          "type": "uint256"
        },
        {
          "name": "",
          "type": "uint256"
        },
        {
          "name": "",
          "type": "uint256"
        },
        {
          "name": "",
          "type": "uint256[]"
        }
      ],
      "payable": false,
      "stateMutability": "view",
      "type": "function"
    },
    {
      "constant": true,
      "inputs": [
        {
          "name": "_id",
          "type": "uint256"
        },
        {
          "name": "_role",
          "type": "uint8"
        }
      ],
      "name": "getTaskRole",
      "outputs": [
        {
          "name": "",
          "type": "address"
        },
        {
          "name": "",
          "type": "bool"
        },
        {
          "name": "",
          "type": "uint8"
        }
      ],
      "payable": false,
      "stateMutability": "view",
      "type": "function"
    }
  ],
  "bytecode": "0x6080604081905260018054600160a060020a03191633908117909155907fce241d7ca1f669fee44b6fc00b8eba2df3bb514eed0f6f668f8f89096e81ed9490600090a26120ce806100516000396000f3006080604052600436106101395763ffffffff60e060020a600035041662768254811461013e57806313af40351461016f5780631ae3aaa4146101925780631d65e77e146101bf5780631e8954de1461027c5780632714a7fd146102c55780633feb369c146102dd57806350030964146102fe5780635b3be8761461031957806366cf8fab1461032e57806374a2200e146103465780637a9e5e4b1461048a5780637eec20a8146104ab57806388488c33146104c35780638a7d879c146104db5780638da5cb5b146104f3578063934a1dc714610524578063ad4e908c1461054b578063b8984c5a14610569578063bf7e214f14610584578063c17a340e14610599578063cae960fe146105ae578063d5d89d97146105c9578063da4db249146105e4578063dbf3a850146105ff578063ed07dd5514610629575b600080fd5b34801561014a57600080fd5b50610156600435610644565b6040805192835260208301919091528051918290030190f35b34801561017b57600080fd5b50610190600160a060020a036004351661065e565b005b34801561019e57600080fd5b506101ad6004356024356106dc565b60408051918252519081900360200190f35b3480156101cb57600080fd5b506101d7600435610765565b604080518b815260208082018c90528a15159282019290925288151560608201526080810188905260a0810187905260c0810186905260e0810185905261010081018490526101406101208201818152845191830191909152835191929091610160840191858101910280838360005b8381101561025f578181015183820152602001610247565b505050509050019b50505050505050505050505060405180910390f35b34801561028857600080fd5b5061029a60043560ff6024351661084b565b60408051600160a060020a039094168452911515602084015260ff1682820152519081900360600190f35b3480156102d157600080fd5b50610156600435610890565b3480156102e957600080fd5b5061019060043560ff602435166044356108a9565b34801561030a57600080fd5b50610190600435602435610a2b565b34801561032557600080fd5b506101ad610afd565b34801561033a57600080fd5b50610156600435610b04565b34801561035257600080fd5b506040805160206004803580820135838102808601850190965280855261019095369593946024949385019291829185019084908082843750506040805187358901803560208181028481018201909552818452989b9a998901989297509082019550935083925085019084908082843750506040805187358901803560208181028481018201909552818452989b9a998901989297509082019550935083925085019084908082843750506040805187358901803560208181028481018201909552818452989b9a99890198929750908201955093508392508501908490808284375050604080516020601f818a01358b0180359182018390048302840183018552818452989b8a359b909a909994019750919550918201935091508190840183828082843750949750610b1d9650505050505050565b34801561049657600080fd5b50610190600160a060020a0360043516610eb9565b3480156104b757600080fd5b50610190600435610f33565b3480156104cf57600080fd5b50610190600435610fa8565b3480156104e757600080fd5b5061019060043561137a565b3480156104ff57600080fd5b50610508611512565b60408051600160a060020a039092168252519081900360200190f35b34801561053057600080fd5b5061019060043560ff60243581169060443516606435611521565b34801561055757600080fd5b506101ad60043560ff60243516611698565b34801561057557600080fd5b506101906004356024356116be565b34801561059057600080fd5b5061050861185a565b3480156105a557600080fd5b506101ad611869565b3480156105ba57600080fd5b5061019060043560243561186f565b3480156105d557600080fd5b506101906004356024356118c4565b3480156105f057600080fd5b50610190600435602435611921565b34801561060b57600080fd5b5061019060043560ff60243516600160a060020a0360443516611973565b34801561063557600080fd5b50610190600435602435611a53565b6000908152600e6020526040902080546001909101549091565b61067433600035600160e060020a031916611c5c565b151561067f57600080fd5b6001805473ffffffffffffffffffffffffffffffffffffffff1916600160a060020a0383811691909117918290556040519116907fce241d7ca1f669fee44b6fc00b8eba2df3bb514eed0f6f668f8f89096e81ed9490600090a250565b6040805160208082018590528183018490528251808303840181526060909201928390528151600093918291908401908083835b6020831061072f5780518252601f199092019160209182019101610710565b6001836020036101000a038019825116818451168082178552505050505050905001915050604051809103902090505b92915050565b600080600080600080600080600060606000600760008d81526020019081526020016000209050806000015481600101548260020160009054906101000a900460ff168360020160019054906101000a900460ff1684600301548560040154866005015487600601548860070154896008018080548060200260200160405190810160405280929190818152602001828054801561082257602002820191906000526020600020905b81548152602001906001019080831161080e575b505050505090509a509a509a509a509a509a509a509a509a509a50509193959799509193959799565b600091825260076020908152604080842060ff938416855260090190915290912054600160a060020a0381169260a060020a820483169260a860020a90920490911690565b600e602052600090815260409020805460019091015482565b6000838360ff811615156108ee57600082815260076020908152604080832060028452600901909152902054600160a060020a031633146108e957600080fd5b61092c565b60ff81166002141561013957600082815260076020908152604080832060018452600901909152902054600160a060020a031633146108e957600080fd5b6000868152600e6020908152604080832060ff89168452600201909152902054869086901561095a57600080fd5b6000888152600e6020526040812080548a929060021161097957600080fd5b60008381526007602052604090206006015415156109a8576000838152600760205260409020600301546109bb565b6000838152600760205260409020600601545b90506000811180156109cd5750428111155b15156109d857600080fd5b620697806109e64283611d5e565b11156109f157600080fd5b50505060009788525050600e60209081526040808820805460019081018255429082015560ff909716885260029096019052505050912055565b6010548290811115610a3c57600080fd5b600083815260076020526040902060020154839060ff1615610a5d57600080fd5b6000848152600760205260409020600301548490421115610a7d57600080fd5b600085815260076020526040902060060154859015610a9b57600080fd5b600086815260076020908152604080832060028085526009909101909252909120805488929190600160a060020a03163314610ad657600080fd5b50505060009586525050600760205250506040909120600181019190915542600690910155565b6006545b90565b600f602052600090815260409020805460019091015482565b600080808080806060818915610b3257600080fd5b8c51600214610b4057600080fd5b8b518d51148015610b5257508d518d51145b1515610b5d57600080fd5b610b6689611d6e565b60008181526007602052604090206002810154929a50909850965060ff1615610b8e57600080fd5b600160e060020a031988166000908152600560205260409020805490955060ff808216955061010090910416925083151580610bcc575060ff831615155b1515610bd757600080fd5b6040805160028082526060820183529091602083019080388339019050509150600090505b6002811015610cfe576001610c298b8b8e85815181101515610c1a57fe5b90602001906020020151611d7d565b8f83815181101515610c3757fe5b906020019060200201518f84815181101515610c4f57fe5b906020019060200201518f85815181101515610c6757fe5b602090810290910181015160408051600081528084018083529690965260ff9094168585015260608501929092526080840191909152905160a080840193601f198301929081900390910190855afa158015610cc7573d6000803e3d6000fd5b505050602060405103518282815181101515610cdf57fe5b600160a060020a03909216602092830290910190910152600101610bfc565b816000815181101515610d0d57fe5b602090810290910181015160ff8616600090815260098901909252604090912054600160a060020a0390811691161480610d815750816001815181101515610d5157fe5b602090810290910181015160ff8616600090815260098901909252604090912054600160a060020a039081169116145b1515610d8c57600080fd5b816000815181101515610d9b57fe5b602090810290910181015160ff8516600090815260098901909252604090912054600160a060020a0390811691161480610e0f5750816001815181101515610ddf57fe5b602090810290910181015160ff8516600090815260098901909252604090912054600160a060020a039081169116145b1515610e1a57600080fd5b60065460010160068190555030600160a060020a03168a8a60405180828051906020019080838360005b83811015610e5c578181015183820152602001610e44565b50505050905090810190601f168015610e895780820380516001836020036101000a031916815260200191505b5091505060006040518083038185875af1925050501515610ea957600080fd5b5050505050505050505050505050565b610ecf33600035600160e060020a031916611c5c565b1515610eda57600080fd5b6000805473ffffffffffffffffffffffffffffffffffffffff1916600160a060020a03838116919091178083556040519116917f1abebea81bfa2637f28358c371278fb15ede7ea8dd28d2e03b112ff6d936ada491a250565b610f4933600035600160e060020a031916611c5c565b1515610f5457600080fd5b6010548190811115610f6557600080fd5b600082815260076020526040902060020154829060ff1615610f8657600080fd5b50506000908152600760205260409020600201805461ff001916610100179055565b600080600080600080600080610fca33600035600160e060020a031916611c5c565b1515610fd557600080fd5b600089815260076020908152604080832060028452600901909152902054899060a060020a900460ff16151561100a57600080fd5b600081815260076020908152604080832083805260090190915290205460a060020a900460ff16151561103c57600080fd5b60008a8152600760205260409020600201548a9060ff161561105d57600080fd5b60008b815260076020526040812060035460028201805460ff19166001179055909b50600160a060020a0316995097505b600260ff89161161136d5760ff88166000818152600b8c0160209081526040808320600454600160a060020a0316845282528083205484845260098f0190925290912090985096506001146110ee57855460a860020a900460ff166110f1565b60325b945060ff8816600214611105576032611108565b601e5b93508360ff1673__SafeMath______________________________630dd11c748960328960ff16600202036040518363ffffffff1660e060020a028152600401808381526020018281526020019250505060206040518083038186803b15801561117157600080fd5b505af4158015611185573d6000803e3d6000fd5b505050506040513d602081101561119b57600080fd5b50518115156111a657fe5b875460078d01546000908152600f60205260408082205481517f5a8adafa000000000000000000000000000000000000000000000000000000008152600160a060020a0394851660048201529590940560248601819052604486019490945251929650908c1692635a8adafa926064808301939282900301818387803b15801561122f57600080fd5b505af1158015611243573d6000803e3d6000fd5b5050505060ff88166002141561136257855460088b018054600160a060020a03808d1693635a8adafa93911691879190600090811061127e57fe5b60009182526020822001546040805160e060020a63ffffffff8816028152600160a060020a03909516600486015260248501939093526044840152905160648084019382900301818387803b1580156112d657600080fd5b505af11580156112ea573d6000803e3d6000fd5b5050505060148560ff161115156113625760ff88166000908152600b8b016020908152604080832060048054600160a060020a03908116865291845282852085905554168352600a8d019091529020546113449088611d5e565b600454600160a060020a03166000908152600a8c0160205260409020555b60019097019661108e565b5050505050505050505050565b60008181526007602052604081206006015481908390829015156113af576000828152600760205260409020600301546113c2565b6000828152600760205260409020600601545b90506113d16206978080611fcf565b6113db4283611d5e565b116113e557600080fd5b60008581526007602090815260408083208380526009019091528082206002835291208054919550935060a060020a900460ff16151561146657825460a060020a74ff0000000000000000000000000000000000000000199091161760a860020a60ff02191675320000000000000000000000000000000000000000001783555b835460a060020a900460ff16151561150b578354753200000000000000000000000000000000000000000060a860020a60ff021974ff00000000000000000000000000000000000000001990921660a060020a17919091161784558254600560a860020a90910460ff16116114dc5760006114ed565b825460a860020a900460ff16600419015b835460ff9190911660a860020a0260a860020a60ff02199091161783555b5050505050565b600154600160a060020a031681565b6000848152600e6020526040812080548291879183906002101561154457600080fd5b8154600214156115705762069780611560428460010154611d5e565b111561156b57600080fd5b6115f8565b8154600211156115f85760008381526007602052604090206006015415156115a9576000838152600760205260409020600301546115bc565b6000838152600760205260409020600601545b9050620697806115cc4283611d5e565b116115d657600080fd5b6115e36206978080611fcf565b6115ed4283611d5e565b11156115f857600080fd5b611605868860ff166106dc565b60008a8152600e6020908152604080832060ff8d168452600201909152902054909550851461163357600080fd5b5050506000958652505060076020908152604080862060ff958616875260090190915290932080549190921660a860020a0260a860020a60ff021974ff00000000000000000000000000000000000000001990921660a060020a179190911617905550565b6000828152600e6020908152604080832060ff8516845260020190915290205492915050565b60105482908111156116cf57600080fd5b600083815260076020526040902060020154839060ff16156116f057600080fd5b600354604080517f05f53b2900000000000000000000000000000000000000000000000000000000815290518592600160a060020a03169182916305f53b2991600480820192602092909190829003018186803b15801561175057600080fd5b505afa158015611764573d6000803e3d6000fd5b505050506040513d602081101561177a57600080fd5b505182111561178857600080fd5b600354604080517f440d88e00000000000000000000000000000000000000000000000000000000081526004810188905290518792600160a060020a031691829163440d88e091602480820192602092909190829003018186803b1580156117ef57600080fd5b505afa158015611803573d6000803e3d6000fd5b505050506040513d602081101561181957600080fd5b5051151561182657600080fd5b60008881526007602052604081206008018054899290811061184457fe5b6000918252602090912001555050505050505050565b600054600160a060020a031681565b60105490565b30331461187b57600080fd5b601054829081111561188c57600080fd5b600083815260076020526040902060020154839060ff16156118ad57600080fd5b505060009182526007602052604090912060030155565b60105482908111156118d557600080fd5b600083815260076020526040902060020154839060ff16156118f657600080fd5b601254839081111561190757600080fd5b505050600091825260076020819052604090922090910155565b30331461192d57600080fd5b601054829081111561193e57600080fd5b600083815260076020526040902060020154839060ff161561195f57600080fd5b505060009182526007602052604090912055565b601054839081111561198457600080fd5b600084815260076020526040902060020154849060ff16156119a557600080fd5b505060408051606081018252600160a060020a039283168152600060208083018281528385018381529783526007825284832060ff9788168452600901909152929020905181549251955173ffffffffffffffffffffffffffffffffffffffff1990931693169290921774ff0000000000000000000000000000000000000000191660a060020a941515949094029390931760a860020a60ff02191660a860020a9390921692909202179055565b611a5b611fdf565b611a7133600035600160e060020a031916611c5c565b1515611a7c57600080fd5b6012548290811115611a8d57600080fd5b6010805460019081019091556011805482019081905585845260c0840152610100830184905260408051828152808201909152906020808301908038833950505061012083019081526010546000908152600760208181526040928390208651815581870151600182015592860151600284018054606089015160ff199091169215159290921761ff00191661010092151583021790556080870151600385015560a0870151600485015560c0870151600585015560e0870151600685015586015191830191909155915180518593611b6d92600885019291019061203d565b50506040805160608101825233815260006020808301828152838501838152601080548552600784528685208580526009018452868520955186549351925173ffffffffffffffffffffffffffffffffffffffff19909416600160a060020a039091161774ff0000000000000000000000000000000000000000191660a060020a921515929092029190911760a860020a60ff02191660a860020a60ff909316929092029190911790935591546011548252600890925282812060010182905591519092507f2f304925f4f66741b976d6f4f9a127315b8ef823c6e2a3b08895e5b11579bc789190a250505050565b6000600160a060020a038316301415611c775750600161075f565b600154600160a060020a0384811691161415611c955750600161075f565b600054600160a060020a03161515611caf5750600061075f565b600054604080517fb7009613000000000000000000000000000000000000000000000000000000008152600160a060020a038681166004830152306024830152600160e060020a0319861660448301529151919092169163b7009613916064808301926020929190829003018186803b158015611d2b57600080fd5b505afa158015611d3f573d6000803e3d6000fd5b505050506040513d6020811015611d5557600080fd5b5051905061075f565b8082038281111561075f57600080fd5b60208101516024909101519091565b600080303086866006546040516020018086600160a060020a0316600160a060020a03166c0100000000000000000000000002815260140185600160a060020a0316600160a060020a03166c0100000000000000000000000002815260140184815260200183805190602001908083835b60208310611e0d5780518252601f199092019160209182019101611dee565b51815160209384036101000a600019018019909216911617905292019384525060408051808503815293820190819052835193975095508594508601925081905083835b60208310611e705780518252601f199092019160209182019101611e51565b5181516020939093036101000a60001901801990911692169190911790526040519201829003909120935050505060ff83161515611f5257604080517f19457468657265756d205369676e6564204d6573736167653a0a333200000000602080830191909152603c80830185905283518084039091018152605c90920192839052815191929182918401908083835b60208310611f1e5780518252601f199092019160209182019101611eff565b6001836020036101000a03801982511681845116808217855250505050505090500191505060405180910390209150611fc7565b604080517f19457468657265756d205369676e6564204d6573736167653a0a200000000000602080830191909152603b80830185905283518084039091018152605b909201928390528151919291829184019080838360208310611f1e5780518252601f199092019160209182019101611eff565b509392505050565b8082018281101561075f57600080fd5b6101406040519081016040528060008019168152602001600080191681526020016000151581526020016000151581526020016000815260200160008152602001600081526020016000815260200160008152602001606081525090565b828054828255906000526020600020908101928215612078579160200282015b8281111561207857825182559160200191906001019061205d565b50612084929150612088565b5090565b610b0191905b80821115612084576000815560010161208e5600a165627a7a7230582005097cfe0beeffd8ff7c15997b5c053e3f2a5a1249fc1fc27e613a074e2188fd0029",
  "source": "/*\n  This file is part of The Colony Network.\n\n  The Colony Network is free software: you can redistribute it and/or modify\n  it under the terms of the GNU General Public License as published by\n  the Free Software Foundation, either version 3 of the License, or\n  (at your option) any later version.\n\n  The Colony Network is distributed in the hope that it will be useful,\n  but WITHOUT ANY WARRANTY; without even the implied warranty of\n  MERCHANTABILITY or FITNESS FOR A PARTICULAR PURPOSE.  See the\n  GNU General Public License for more details.\n\n  You should have received a copy of the GNU General Public License\n  along with The Colony Network. If not, see <http://www.gnu.org/licenses/>.\n*/\n\npragma solidity ^0.4.23;\npragma experimental \"v0.5.0\";\n\nimport \"../lib/dappsys/math.sol\";\nimport \"./IColonyNetwork.sol\";\nimport \"./ColonyStorage.sol\";\nimport \"./IColony.sol\";\nimport \"./SafeMath.sol\";\n\n\ncontract ColonyTask is ColonyStorage, DSMath {\n  uint256 constant RATING_COMMIT_TIMEOUT = 432000;\n  uint256 constant RATING_REVEAL_TIMEOUT = 432000;\n\n  event TaskAdded(uint256 indexed id);\n\n  modifier confirmTaskRoleIdentity(uint256 _id, uint8 _role) {\n    Role storage role = tasks[_id].roles[_role];\n    require(msg.sender == role.user);\n    _;\n  }\n\n  modifier userCanRateRole(uint256 _id, uint8 _role) {\n    // Manager rated by worker\n    // Worker rated by evaluator\n    if (_role == MANAGER) {\n      require(tasks[_id].roles[WORKER].user == msg.sender);\n    } else if (_role == WORKER) {\n      require(tasks[_id].roles[EVALUATOR].user == msg.sender);\n    } else {\n      revert();\n    }\n    _;\n  }\n\n  modifier ratingSecretDoesNotExist(uint256 _id, uint8 _role) {\n    require(taskWorkRatings[_id].secret[_role] == \"\");\n    _;\n  }\n\n  modifier workNotSubmitted(uint256 _id) {\n    require(tasks[_id].deliverableTimestamp == 0);\n    _;\n  }\n\n  modifier beforeDueDate(uint256 _id) {\n    require(tasks[_id].dueDate >= now);\n    _;\n  }\n\n  modifier taskWorkRatingCommitOpen(uint256 _id) {\n    RatingSecrets storage ratingSecrets = taskWorkRatings[_id];\n    require(ratingSecrets.count < 2);\n\n    // Check we are either past the due date or work has already been submitted\n    uint taskCompletionTime = tasks[_id].deliverableTimestamp != 0 ? tasks[_id].deliverableTimestamp : tasks[_id].dueDate;\n    require(taskCompletionTime > 0 && taskCompletionTime <= now);\n\n    // Check we are within 5 days of the work submission time\n    require(sub(now, taskCompletionTime) <= RATING_COMMIT_TIMEOUT);\n    _;\n  }\n\n  modifier taskWorkRatingRevealOpen(uint256 _id) {\n    RatingSecrets storage ratingSecrets = taskWorkRatings[_id];\n    require(ratingSecrets.count <= 2);\n\n    // If both ratings have been received, start the reveal period from the time of the last rating commit\n    // Otherwise start the reveal period after the commit period has expired\n    // In both cases, keep reveal period open for 5 days\n    if (ratingSecrets.count == 2) {\n      require(sub(now, ratingSecrets.timestamp) <= RATING_REVEAL_TIMEOUT);\n    } else if (ratingSecrets.count < 2) {\n      uint taskCompletionTime = tasks[_id].deliverableTimestamp != 0 ? tasks[_id].deliverableTimestamp : tasks[_id].dueDate;\n      require(sub(now, taskCompletionTime) > RATING_COMMIT_TIMEOUT);\n      require(sub(now, taskCompletionTime) <= add(RATING_COMMIT_TIMEOUT, RATING_REVEAL_TIMEOUT));\n    }\n    _;\n  }\n\n  modifier taskWorkRatingsClosed(uint256 _id) {\n    uint taskCompletionTime = tasks[_id].deliverableTimestamp != 0 ? tasks[_id].deliverableTimestamp : tasks[_id].dueDate;\n    require(sub(now, taskCompletionTime) > add(RATING_COMMIT_TIMEOUT, RATING_REVEAL_TIMEOUT)); // More than 10 days from work submission have passed\n    _;\n  }\n\n  modifier taskWorkRatingsAssigned(uint256 _id) {\n    require(tasks[_id].roles[WORKER].rated);\n    require(tasks[_id].roles[MANAGER].rated);\n    _;\n  }\n\n  function makeTask(bytes32 _specificationHash, uint256 _domainId) public\n  auth\n  domainExists(_domainId)\n  {\n    taskCount += 1;\n    potCount += 1;\n\n    Task memory task;\n    task.specificationHash = _specificationHash;\n    task.potId = potCount;\n    task.domainId = _domainId;\n    task.skills = new uint256[](1);\n    tasks[taskCount] = task;\n    tasks[taskCount].roles[MANAGER] = Role({\n      user: msg.sender,\n      rated: false,\n      rating: 0\n    });\n\n    pots[potCount].taskId = taskCount;\n\n    emit TaskAdded(taskCount);\n  }\n\n  function getTaskCount() public view returns (uint256) {\n    return taskCount;\n  }\n\n  function getTaskChangeNonce() public view returns (uint256) {\n    return taskChangeNonce;\n  }\n\n  function getSignedMessageHash(uint256 _value, bytes _data, uint8 _mode) private returns (bytes32 txHash) {\n    bytes32 msgHash = keccak256(abi.encodePacked(\n      address(this),\n      address(this),\n      _value,\n      _data,\n      taskChangeNonce\n    ));\n    if (_mode==0) {\n      // 'Normal' mode - geth, etc.\n      return keccak256(abi.encodePacked(\"\\x19Ethereum Signed Message:\\n32\", msgHash));\n    } else {\n      // Trezor mode\n      // Correct incantation helpfully cribbed from https://github.com/trezor/trezor-mcu/issues/163#issuecomment-368435292\n      return keccak256(abi.encodePacked(\"\\x19Ethereum Signed Message:\\n\\x20\", msgHash));\n    }\n  }\n\n  function executeTaskChange(\n    uint8[] _sigV,\n    bytes32[] _sigR,\n    bytes32[] _sigS,\n    uint8[] _mode,\n    uint256 _value,\n    bytes _data) public\n  {\n    require(_value == 0);\n    // Allow for 2 reviewers\n    require(_sigR.length == 2);\n    require(_sigR.length == _sigS.length && _sigR.length == _sigV.length);\n\n    bytes4 sig;\n    uint256 taskId;\n    (sig, taskId) = deconstructCall(_data);\n    Task storage task = tasks[taskId];\n    require(!task.finalized);\n\n    uint8[2] storage _reviewers = reviewers[sig];\n    uint8 r1 = _reviewers[0];\n    uint8 r2 = _reviewers[1];\n    // Prevent calls to non registered /arbitrary function on the contract\n    // Checks at least one of the two reviewers registered is different to the task manager\n    require(r1 != MANAGER || r2 != MANAGER);\n\n    address[] memory reviewerAddresses = new address[](2);\n    for (uint i = 0; i < 2; i++) {\n      reviewerAddresses[i] = ecrecover(getSignedMessageHash(_value, _data, _mode[i]), _sigV[i], _sigR[i], _sigS[i]);\n    }\n\n    require(task.roles[r1].user == reviewerAddresses[0] || task.roles[r1].user == reviewerAddresses[1]);\n    require(task.roles[r2].user == reviewerAddresses[0] || task.roles[r2].user == reviewerAddresses[1]);\n\n    taskChangeNonce = taskChangeNonce + 1;\n    require(address(this).call.value(_value)(_data));\n  }\n\n  function submitTaskWorkRating(uint256 _id, uint8 _role, bytes32 _ratingSecret) public\n  userCanRateRole(_id, _role)\n  ratingSecretDoesNotExist(_id, _role)\n  taskWorkRatingCommitOpen(_id)\n  {\n    RatingSecrets storage ratingSecrets = taskWorkRatings[_id];\n    ratingSecrets.count += 1;\n    ratingSecrets.timestamp = now;\n    ratingSecrets.secret[_role] = _ratingSecret;\n  }\n\n  function revealTaskWorkRating(uint256 _id, uint8 _role, uint8 _rating, bytes32 _salt) public\n  taskWorkRatingRevealOpen(_id)\n  {\n    // MAYBE: we should hash these the other way around, i.e. generateSecret(_rating, _salt)\n    bytes32 ratingSecret = generateSecret(_salt, _rating);\n    require(ratingSecret == taskWorkRatings[_id].secret[_role]);\n\n    Role storage role = tasks[_id].roles[_role];\n    role.rated = true;\n    role.rating = _rating;\n  }\n\n  // In the event of a user not committing or revealing within the 10 day rating window,\n  // their rating of their counterpart is assumed to be the highest possible\n  // and their own rating is decreased by 5 (e.g. 0.5 points)\n  function assignWorkRating(uint256 _id) public\n  taskWorkRatingsClosed(_id)\n  {\n    Role storage managerRole = tasks[_id].roles[MANAGER];\n    Role storage workerRole = tasks[_id].roles[WORKER];\n\n    if (!workerRole.rated) {\n      workerRole.rated = true;\n      workerRole.rating = 50;\n    }\n\n    if (!managerRole.rated) {\n      managerRole.rated = true;\n      managerRole.rating = 50;\n      workerRole.rating = (workerRole.rating > 5) ? (workerRole.rating - 5) : 0;\n    }\n  }\n\n  function generateSecret(bytes32 _salt, uint256 _value) public pure returns (bytes32) {\n    return keccak256(abi.encodePacked(_salt, _value));\n  }\n\n  function getTaskWorkRatings(uint256 _id) public view returns (uint256, uint256) {\n    return (taskWorkRatings[_id].count, taskWorkRatings[_id].timestamp);\n  }\n\n  function getTaskWorkRatingSecret(uint256 _id, uint8 _role) public view returns (bytes32) {\n    return taskWorkRatings[_id].secret[_role];\n  }\n\n  // TODO: Restrict function visibility to whoever submits the approved Transaction from Client\n  // Note task assignment is agreed off-chain\n  function setTaskRoleUser(uint256 _id, uint8 _role, address _user) public\n  taskExists(_id)\n  taskNotFinalized(_id)\n  {\n    tasks[_id].roles[_role] = Role({\n      user: _user,\n      rated: false,\n      rating: 0\n    });\n  }\n\n  function setTaskDomain(uint256 _id, uint256 _domainId) public\n  taskExists(_id)\n  taskNotFinalized(_id)\n  domainExists(_domainId)\n  {\n    tasks[_id].domainId = _domainId;\n  }\n\n  // TODO: Restrict function visibility to whoever submits the approved Transaction from Client\n  // Maybe just the administrator is adequate for the skill?\n  function setTaskSkill(uint256 _id, uint256 _skillId) public\n  taskExists(_id)\n  taskNotFinalized(_id)\n  skillExists(_skillId)\n  globalSkill(_skillId)\n  {\n    tasks[_id].skills[0] = _skillId;\n  }\n\n  function setTaskBrief(uint256 _id, bytes32 _specificationHash) public\n  self()\n  taskExists(_id)\n  taskNotFinalized(_id)\n  {\n    tasks[_id].specificationHash = _specificationHash;\n  }\n\n  function setTaskDueDate(uint256 _id, uint256 _dueDate) public\n  self()\n  taskExists(_id)\n  taskNotFinalized(_id)\n  {\n    tasks[_id].dueDate = _dueDate;\n  }\n\n  function submitTaskDeliverable(uint256 _id, bytes32 _deliverableHash) public\n  taskExists(_id)\n  taskNotFinalized(_id)\n  beforeDueDate(_id)\n  workNotSubmitted(_id)\n  confirmTaskRoleIdentity(_id, WORKER)\n  {\n    tasks[_id].deliverableHash = _deliverableHash;\n    tasks[_id].deliverableTimestamp = now;\n  }\n\n  function finalizeTask(uint256 _id) public\n  auth\n  taskWorkRatingsAssigned(_id)\n  taskNotFinalized(_id)\n  {\n    Task storage task = tasks[_id];\n    IColonyNetwork colonyNetworkContract = IColonyNetwork(colonyNetworkAddress);\n\n    task.finalized = true;\n\n    for (uint8 roleId = 0; roleId <= 2; roleId++) {\n      uint payout = task.payouts[roleId][token];\n      Role storage role = task.roles[roleId];\n\n      uint8 rating = (roleId == EVALUATOR) ? 50 : role.rating;\n      uint8 divider = (roleId == WORKER) ? 30 : 50;\n\n      int reputation = SafeMath.mulInt(int(payout), (int(rating)*2 - 50)) / divider;\n      colonyNetworkContract.appendReputationUpdateLog(role.user, reputation, domains[task.domainId].skillId);\n\n      if (roleId == WORKER) {\n        colonyNetworkContract.appendReputationUpdateLog(role.user, reputation, task.skills[0]);\n\n        if (rating <= 20) {\n          task.payouts[roleId][token] = 0;\n          task.totalPayouts[token] = sub(task.totalPayouts[token], payout);\n        }\n      }\n    }\n  }\n\n  function cancelTask(uint256 _id) public\n  auth\n  taskExists(_id)\n  taskNotFinalized(_id)\n  {\n    tasks[_id].cancelled = true;\n  }\n\n  function getTask(uint256 _id) public view returns (bytes32, bytes32, bool, bool, uint256, uint256, uint256, uint256, uint256, uint256[]) {\n    Task storage t = tasks[_id];\n    return (t.specificationHash, t.deliverableHash, t.finalized, t.cancelled, t.dueDate, t.payoutsWeCannotMake, t.potId, t.deliverableTimestamp, t.domainId, t.skills);\n  }\n\n  function getTaskRole(uint256 _id, uint8 _role) public view returns (address, bool, uint8) {\n    Role storage role = tasks[_id].roles[_role];\n    return (role.user, role.rated, role.rating);\n  }\n\n  // Get the function signature and task id from the transaction bytes data\n  // Note: Relies on the encoded function's first parameter to be the uint256 taskId\n  function deconstructCall(bytes _data) internal pure returns (bytes4 sig, uint256 taskId) {\n    assembly {\n      sig := mload(add(_data, 0x20))\n      taskId := mload(add(_data, add(0x20, 4))) // same as calldataload(72)\n    }\n  }\n}\n",
  "sourcePath": "/root/intuition-machine/colonyNetwork/contracts/ColonyTask.sol",
  "compiler": {
    "name": "solc",
    "version": "0.4.24+commit.e67f0147.Emscripten.clang"
  },
  "schemaVersion": "2.0.0",
  "updatedAt": "2018-06-20T09:03:26.452Z"
}