{
  "contractName": "DSRoles",
  "abi": [
    {
      "constant": false,
      "inputs": [
        {
          "name": "owner_",
          "type": "address"
        }
      ],
      "name": "setOwner",
      "outputs": [],
      "payable": false,
      "stateMutability": "nonpayable",
      "type": "function"
    },
    {
      "constant": false,
      "inputs": [
        {
          "name": "authority_",
          "type": "address"
        }
      ],
      "name": "setAuthority",
      "outputs": [],
      "payable": false,
      "stateMutability": "nonpayable",
      "type": "function"
    },
    {
      "constant": true,
      "inputs": [],
      "name": "owner",
      "outputs": [
        {
          "name": "",
          "type": "address"
        }
      ],
      "payable": false,
      "stateMutability": "view",
      "type": "function"
    },
    {
      "constant": true,
      "inputs": [],
      "name": "authority",
      "outputs": [
        {
          "name": "",
          "type": "address"
        }
      ],
      "payable": false,
      "stateMutability": "view",
      "type": "function"
    },
    {
      "anonymous": false,
      "inputs": [
        {
          "indexed": true,
          "name": "authority",
          "type": "address"
        }
      ],
      "name": "LogSetAuthority",
      "type": "event"
    },
    {
      "anonymous": false,
      "inputs": [
        {
          "indexed": true,
          "name": "owner",
          "type": "address"
        }
      ],
      "name": "LogSetOwner",
      "type": "event"
    },
    {
      "constant": true,
      "inputs": [
        {
          "name": "who",
          "type": "address"
        }
      ],
      "name": "getUserRoles",
      "outputs": [
        {
          "name": "",
          "type": "bytes32"
        }
      ],
      "payable": false,
      "stateMutability": "view",
      "type": "function"
    },
    {
      "constant": true,
      "inputs": [
        {
          "name": "code",
          "type": "address"
        },
        {
          "name": "sig",
          "type": "bytes4"
        }
      ],
      "name": "getCapabilityRoles",
      "outputs": [
        {
          "name": "",
          "type": "bytes32"
        }
      ],
      "payable": false,
      "stateMutability": "view",
      "type": "function"
    },
    {
      "constant": true,
      "inputs": [
        {
          "name": "who",
          "type": "address"
        }
      ],
      "name": "isUserRoot",
      "outputs": [
        {
          "name": "",
          "type": "bool"
        }
      ],
      "payable": false,
      "stateMutability": "view",
      "type": "function"
    },
    {
      "constant": true,
      "inputs": [
        {
          "name": "code",
          "type": "address"
        },
        {
          "name": "sig",
          "type": "bytes4"
        }
      ],
      "name": "isCapabilityPublic",
      "outputs": [
        {
          "name": "",
          "type": "bool"
        }
      ],
      "payable": false,
      "stateMutability": "view",
      "type": "function"
    },
    {
      "constant": true,
      "inputs": [
        {
          "name": "who",
          "type": "address"
        },
        {
          "name": "role",
          "type": "uint8"
        }
      ],
      "name": "hasUserRole",
      "outputs": [
        {
          "name": "",
          "type": "bool"
        }
      ],
      "payable": false,
      "stateMutability": "view",
      "type": "function"
    },
    {
      "constant": true,
      "inputs": [
        {
          "name": "caller",
          "type": "address"
        },
        {
          "name": "code",
          "type": "address"
        },
        {
          "name": "sig",
          "type": "bytes4"
        }
      ],
      "name": "canCall",
      "outputs": [
        {
          "name": "",
          "type": "bool"
        }
      ],
      "payable": false,
      "stateMutability": "view",
      "type": "function"
    },
    {
      "constant": false,
      "inputs": [
        {
          "name": "who",
          "type": "address"
        },
        {
          "name": "enabled",
          "type": "bool"
        }
      ],
      "name": "setRootUser",
      "outputs": [],
      "payable": false,
      "stateMutability": "nonpayable",
      "type": "function"
    },
    {
      "constant": false,
      "inputs": [
        {
          "name": "who",
          "type": "address"
        },
        {
          "name": "role",
          "type": "uint8"
        },
        {
          "name": "enabled",
          "type": "bool"
        }
      ],
      "name": "setUserRole",
      "outputs": [],
      "payable": false,
      "stateMutability": "nonpayable",
      "type": "function"
    },
    {
      "constant": false,
      "inputs": [
        {
          "name": "code",
          "type": "address"
        },
        {
          "name": "sig",
          "type": "bytes4"
        },
        {
          "name": "enabled",
          "type": "bool"
        }
      ],
      "name": "setPublicCapability",
      "outputs": [],
      "payable": false,
      "stateMutability": "nonpayable",
      "type": "function"
    },
    {
      "constant": false,
      "inputs": [
        {
          "name": "role",
          "type": "uint8"
        },
        {
          "name": "code",
          "type": "address"
        },
        {
          "name": "sig",
          "type": "bytes4"
        },
        {
          "name": "enabled",
          "type": "bool"
        }
      ],
      "name": "setRoleCapability",
      "outputs": [],
      "payable": false,
      "stateMutability": "nonpayable",
      "type": "function"
    }
  ],
  "bytecode": "0x6080604081905260018054600160a060020a03191633908117909155907fce241d7ca1f669fee44b6fc00b8eba2df3bb514eed0f6f668f8f89096e81ed9490600090a26108ce806100516000396000f3006080604052600436106100cf5763ffffffff7c010000000000000000000000000000000000000000000000000000000060003504166306a36aee81146100d457806313af40351461010757806327538e901461012a5780632f47571f1461015857806367aff4841461019a5780637a9e5e4b146101c65780637d40583d146101e75780638da5cb5b14610220578063a078f73714610251578063b700961314610278578063bf7e214f146102ac578063c6b0263e146102c1578063d381ba7c146102f4578063fbf807731461031a575b600080fd5b3480156100e057600080fd5b506100f5600160a060020a036004351661033b565b60408051918252519081900360200190f35b34801561011357600080fd5b50610128600160a060020a0360043516610356565b005b34801561013657600080fd5b506100f5600160a060020a0360043516600160e060020a0319602435166103d4565b34801561016457600080fd5b50610186600160a060020a0360043516600160e060020a031960243516610409565b604080519115158252519081900360200190f35b3480156101a657600080fd5b50610128600160a060020a036004351660ff602435166044351515610440565b3480156101d257600080fd5b50610128600160a060020a03600435166104dc565b3480156101f357600080fd5b5061012860ff60043516600160a060020a0360243516600160e060020a0319604435166064351515610556565b34801561022c57600080fd5b50610235610632565b60408051600160a060020a039092168252519081900360200190f35b34801561025d57600080fd5b50610186600160a060020a036004351660ff60243516610641565b34801561028457600080fd5b50610186600160a060020a0360043581169060243516600160e060020a031960443516610665565b3480156102b857600080fd5b506102356106b9565b3480156102cd57600080fd5b50610128600160a060020a0360043516600160e060020a03196024351660443515156106c8565b34801561030057600080fd5b50610128600160a060020a0360043516602435151561072a565b34801561032657600080fd5b50610186600160a060020a0360043516610776565b600160a060020a031660009081526003602052604090205490565b61036c33600035600160e060020a031916610794565b151561037757600080fd5b6001805473ffffffffffffffffffffffffffffffffffffffff1916600160a060020a0383811691909117918290556040519116907fce241d7ca1f669fee44b6fc00b8eba2df3bb514eed0f6f668f8f89096e81ed9490600090a250565b600160a060020a0382166000908152600460209081526040808320600160e060020a0319851684529091529020545b92915050565b600160a060020a0382166000908152600560209081526040808320600160e060020a03198516845290915290205460ff1692915050565b60008061045933600035600160e060020a031916610794565b151561046457600080fd5b5050600160a060020a03831660009081526003602052604090205460ff831660020a82156104ae57600160a060020a038516600090815260036020526040902082821790556104d5565b6104b78161089b565b600160a060020a038616600090815260036020526040902090831690555b5050505050565b6104f233600035600160e060020a031916610794565b15156104fd57600080fd5b6000805473ffffffffffffffffffffffffffffffffffffffff1916600160a060020a03838116919091178083556040519116917f1abebea81bfa2637f28358c371278fb15ede7ea8dd28d2e03b112ff6d936ada491a250565b60008061056f33600035600160e060020a031916610794565b151561057a57600080fd5b5050600160a060020a0383166000908152600460209081526040808320600160e060020a03198616845290915290205460ff851660020a82156105ee57600160a060020a0385166000908152600460209081526040808320600160e060020a0319881684529091529020828217905561062a565b6105f78161089b565b600160a060020a0386166000908152600460209081526040808320600160e060020a031989168452909152902090831690555b505050505050565b600154600160a060020a031681565b600080600061064f8561033b565b60ff9490941660020a9093161515949350505050565b600080600061067386610776565b8061068357506106838585610409565b1561069157600192506106b0565b61069a8661033b565b91506106a685856103d4565b8281161515935090505b50509392505050565b600054600160a060020a031681565b6106de33600035600160e060020a031916610794565b15156106e957600080fd5b600160a060020a039092166000908152600560209081526040808320600160e060020a0319909416835292905220805491151560ff19909216919091179055565b61074033600035600160e060020a031916610794565b151561074b57600080fd5b600160a060020a03919091166000908152600260205260409020805460ff1916911515919091179055565b600160a060020a031660009081526002602052604090205460ff1690565b6000600160a060020a0383163014156107af57506001610403565b600154600160a060020a03848116911614156107cd57506001610403565b600054600160a060020a031615156107e757506000610403565b60008054604080517fb7009613000000000000000000000000000000000000000000000000000000008152600160a060020a038781166004830152306024830152600160e060020a0319871660448301529151919092169263b700961392606480820193602093909283900390910190829087803b15801561086857600080fd5b505af115801561087c573d6000803e3d6000fd5b505050506040513d602081101561089257600080fd5b50519050610403565b60001918905600a165627a7a72305820de1f9df5c1a9fdda20f78dcabe1577cc68c60be306658c96cba9044b87695b970029",
  "source": "// roles.sol - roled based authentication\n\n// Copyright (C) 2017  DappHub, LLC\n\n// This program is free software: you can redistribute it and/or modify\n// it under the terms of the GNU General Public License as published by\n// the Free Software Foundation, either version 3 of the License, or\n// (at your option) any later version.\n\n// This program is distributed in the hope that it will be useful,\n// but WITHOUT ANY WARRANTY; without even the implied warranty of\n// MERCHANTABILITY or FITNESS FOR A PARTICULAR PURPOSE.  See the\n// GNU General Public License for more details.\n\n// You should have received a copy of the GNU General Public License\n// along with this program.  If not, see <http://www.gnu.org/licenses/>.\n\npragma solidity ^0.4.13;\n\nimport \"./auth.sol\";\n\ncontract DSRoles is DSAuth, DSAuthority\n{\n    mapping(address=>bool) _root_users;\n    mapping(address=>bytes32) _user_roles;\n    mapping(address=>mapping(bytes4=>bytes32)) _capability_roles;\n    mapping(address=>mapping(bytes4=>bool)) _public_capabilities;\n\n    function getUserRoles(address who)\n        public\n        view\n        returns (bytes32)\n    {\n        return _user_roles[who];\n    }\n\n    function getCapabilityRoles(address code, bytes4 sig)\n        public\n        view\n        returns (bytes32)\n    {\n        return _capability_roles[code][sig];\n    }\n\n    function isUserRoot(address who)\n        public\n        view\n        returns (bool)\n    {\n        return _root_users[who];\n    }\n\n    function isCapabilityPublic(address code, bytes4 sig)\n        public\n        view\n        returns (bool)\n    {\n        return _public_capabilities[code][sig];\n    }\n\n    function hasUserRole(address who, uint8 role)\n        public\n        view\n        returns (bool)\n    {\n        bytes32 roles = getUserRoles(who);\n        bytes32 shifted = bytes32(uint256(uint256(2) ** uint256(role)));\n        return bytes32(0) != roles & shifted;\n    }\n\n    function canCall(address caller, address code, bytes4 sig)\n        public\n        view\n        returns (bool)\n    {\n        if( isUserRoot(caller) || isCapabilityPublic(code, sig) ) {\n            return true;\n        } else {\n            bytes32 has_roles = getUserRoles(caller);\n            bytes32 needs_one_of = getCapabilityRoles(code, sig);\n            return bytes32(0) != has_roles & needs_one_of;\n        }\n    }\n\n    function BITNOT(bytes32 input) internal pure returns (bytes32 output) {\n        return (input ^ bytes32(uint(-1)));\n    }\n\n    function setRootUser(address who, bool enabled)\n        public\n        auth\n    {\n        _root_users[who] = enabled;\n    }\n\n    function setUserRole(address who, uint8 role, bool enabled)\n        public\n        auth\n    {\n        bytes32 last_roles = _user_roles[who];\n        bytes32 shifted = bytes32(uint256(uint256(2) ** uint256(role)));\n        if( enabled ) {\n            _user_roles[who] = last_roles | shifted;\n        } else {\n            _user_roles[who] = last_roles & BITNOT(shifted);\n        }\n    }\n\n    function setPublicCapability(address code, bytes4 sig, bool enabled)\n        public\n        auth\n    {\n        _public_capabilities[code][sig] = enabled;\n    }\n\n    function setRoleCapability(uint8 role, address code, bytes4 sig, bool enabled)\n        public\n        auth\n    {\n        bytes32 last_roles = _capability_roles[code][sig];\n        bytes32 shifted = bytes32(uint256(uint256(2) ** uint256(role)));\n        if( enabled ) {\n            _capability_roles[code][sig] = last_roles | shifted;\n        } else {\n            _capability_roles[code][sig] = last_roles & BITNOT(shifted);\n        }\n\n    }\n\n}\n",
  "sourcePath": "/root/intuition-machine/colonyNetwork/lib/dappsys/roles.sol",
  "compiler": {
    "name": "solc",
    "version": "0.4.24+commit.e67f0147.Emscripten.clang"
  },
  "schemaVersion": "2.0.0",
  "updatedAt": "2018-06-20T09:03:15.273Z"
}