{
  "contractName": "DutchAuction",
  "abi": [
    {
      "constant": true,
      "inputs": [],
      "name": "receivedTotal",
      "outputs": [
        {
          "name": "",
          "type": "uint256"
        }
      ],
      "payable": false,
      "stateMutability": "view",
      "type": "function"
    },
    {
      "constant": true,
      "inputs": [],
      "name": "quantity",
      "outputs": [
        {
          "name": "",
          "type": "uint256"
        }
      ],
      "payable": false,
      "stateMutability": "view",
      "type": "function"
    },
    {
      "constant": true,
      "inputs": [],
      "name": "started",
      "outputs": [
        {
          "name": "",
          "type": "bool"
        }
      ],
      "payable": false,
      "stateMutability": "view",
      "type": "function"
    },
    {
      "constant": true,
      "inputs": [],
      "name": "TOKEN_MULTIPLIER",
      "outputs": [
        {
          "name": "",
          "type": "uint256"
        }
      ],
      "payable": false,
      "stateMutability": "view",
      "type": "function"
    },
    {
      "constant": true,
      "inputs": [],
      "name": "endTime",
      "outputs": [
        {
          "name": "",
          "type": "uint256"
        }
      ],
      "payable": false,
      "stateMutability": "view",
      "type": "function"
    },
    {
      "constant": true,
      "inputs": [],
      "name": "clnyToken",
      "outputs": [
        {
          "name": "",
          "type": "address"
        }
      ],
      "payable": false,
      "stateMutability": "view",
      "type": "function"
    },
    {
      "constant": true,
      "inputs": [
        {
          "name": "",
          "type": "address"
        }
      ],
      "name": "bids",
      "outputs": [
        {
          "name": "",
          "type": "uint256"
        }
      ],
      "payable": false,
      "stateMutability": "view",
      "type": "function"
    },
    {
      "constant": true,
      "inputs": [],
      "name": "startTime",
      "outputs": [
        {
          "name": "",
          "type": "uint256"
        }
      ],
      "payable": false,
      "stateMutability": "view",
      "type": "function"
    },
    {
      "constant": true,
      "inputs": [],
      "name": "claimCount",
      "outputs": [
        {
          "name": "",
          "type": "uint256"
        }
      ],
      "payable": false,
      "stateMutability": "view",
      "type": "function"
    },
    {
      "constant": true,
      "inputs": [],
      "name": "finalPrice",
      "outputs": [
        {
          "name": "",
          "type": "uint256"
        }
      ],
      "payable": false,
      "stateMutability": "view",
      "type": "function"
    },
    {
      "constant": true,
      "inputs": [],
      "name": "finalized",
      "outputs": [
        {
          "name": "",
          "type": "bool"
        }
      ],
      "payable": false,
      "stateMutability": "view",
      "type": "function"
    },
    {
      "constant": true,
      "inputs": [],
      "name": "bidCount",
      "outputs": [
        {
          "name": "",
          "type": "uint256"
        }
      ],
      "payable": false,
      "stateMutability": "view",
      "type": "function"
    },
    {
      "constant": true,
      "inputs": [],
      "name": "minPrice",
      "outputs": [
        {
          "name": "",
          "type": "uint256"
        }
      ],
      "payable": false,
      "stateMutability": "view",
      "type": "function"
    },
    {
      "constant": true,
      "inputs": [],
      "name": "token",
      "outputs": [
        {
          "name": "",
          "type": "address"
        }
      ],
      "payable": false,
      "stateMutability": "view",
      "type": "function"
    },
    {
      "constant": true,
      "inputs": [],
      "name": "colonyNetwork",
      "outputs": [
        {
          "name": "",
          "type": "address"
        }
      ],
      "payable": false,
      "stateMutability": "view",
      "type": "function"
    },
    {
      "inputs": [
        {
          "name": "_clnyToken",
          "type": "address"
        },
        {
          "name": "_token",
          "type": "address"
        }
      ],
      "payable": false,
      "stateMutability": "nonpayable",
      "type": "constructor"
    },
    {
      "anonymous": false,
      "inputs": [
        {
          "indexed": true,
          "name": "_sender",
          "type": "address"
        },
        {
          "indexed": false,
          "name": "_amount",
          "type": "uint256"
        },
        {
          "indexed": false,
          "name": "_missingFunds",
          "type": "uint256"
        }
      ],
      "name": "AuctionBid",
      "type": "event"
    },
    {
      "anonymous": false,
      "inputs": [
        {
          "indexed": true,
          "name": "_recipient",
          "type": "address"
        },
        {
          "indexed": false,
          "name": "_sentAmount",
          "type": "uint256"
        }
      ],
      "name": "AuctionClaim",
      "type": "event"
    },
    {
      "anonymous": false,
      "inputs": [
        {
          "indexed": false,
          "name": "_finalPrice",
          "type": "uint256"
        }
      ],
      "name": "AuctionFinalized",
      "type": "event"
    },
    {
      "constant": false,
      "inputs": [],
      "name": "start",
      "outputs": [],
      "payable": false,
      "stateMutability": "nonpayable",
      "type": "function"
    },
    {
      "constant": true,
      "inputs": [],
      "name": "totalToEndAuction",
      "outputs": [
        {
          "name": "",
          "type": "uint256"
        }
      ],
      "payable": false,
      "stateMutability": "view",
      "type": "function"
    },
    {
      "constant": true,
      "inputs": [],
      "name": "price",
      "outputs": [
        {
          "name": "",
          "type": "uint256"
        }
      ],
      "payable": false,
      "stateMutability": "view",
      "type": "function"
    },
    {
      "constant": false,
      "inputs": [
        {
          "name": "_amount",
          "type": "uint256"
        }
      ],
      "name": "bid",
      "outputs": [],
      "payable": false,
      "stateMutability": "nonpayable",
      "type": "function"
    },
    {
      "constant": false,
      "inputs": [],
      "name": "finalize",
      "outputs": [],
      "payable": false,
      "stateMutability": "nonpayable",
      "type": "function"
    },
    {
      "constant": false,
      "inputs": [],
      "name": "claim",
      "outputs": [
        {
          "name": "",
          "type": "bool"
        }
      ],
      "payable": false,
      "stateMutability": "nonpayable",
      "type": "function"
    },
    {
      "constant": false,
      "inputs": [],
      "name": "close",
      "outputs": [],
      "payable": false,
      "stateMutability": "nonpayable",
      "type": "function"
    }
  ],
  "bytecode": "0x608060405234801561001057600080fd5b50604051604080610ead83398101604052805160209091015160008054600160a060020a03191633179055600160a060020a0382161580159061005b5750600160a060020a03811615155b151561006657600080fd5b600160a060020a03818116908316141561007c57fe5b60018054600160a060020a03938416600160a060020a03199182161790915560028054929093169116179055610df6806100b76000396000f3006080604052600436106101275763ffffffff7c010000000000000000000000000000000000000000000000000000000060003504166313d00e19811461012c57806316713b371461015357806317fc45e2146101685780631f2698ab1461017d5780632b093fe9146101a65780633197cbb6146101bb57806343d726d6146101d0578063454a2ab3146101e75780634bb278f3146101ff5780634e71d92d1461021457806358d0e14b1461022957806362ea82db1461025a57806378e979251461027b5780638da4d3c914610290578063a035b1fe146102a5578063a6b513ee146102ba578063b3f05b97146102cf578063b40a5627146102e4578063be9a6555146102f9578063e45be8eb1461030e578063fc0c546a14610323578063fe9a83a414610338575b600080fd5b34801561013857600080fd5b5061014161034d565b60408051918252519081900360200190f35b34801561015f57600080fd5b506101416103a8565b34801561017457600080fd5b506101416103ae565b34801561018957600080fd5b506101926103b4565b604080519115158252519081900360200190f35b3480156101b257600080fd5b506101416103bd565b3480156101c757600080fd5b506101416103c9565b3480156101dc57600080fd5b506101e56103cf565b005b3480156101f357600080fd5b506101e560043561061e565b34801561020b57600080fd5b506101e56107d1565b34801561022057600080fd5b50610192610909565b34801561023557600080fd5b5061023e610b81565b60408051600160a060020a039092168252519081900360200190f35b34801561026657600080fd5b50610141600160a060020a0360043516610b90565b34801561028757600080fd5b50610141610ba2565b34801561029c57600080fd5b50610141610ba8565b3480156102b157600080fd5b50610141610bae565b3480156102c657600080fd5b50610141610c58565b3480156102db57600080fd5b50610192610c5e565b3480156102f057600080fd5b50610141610c67565b34801561030557600080fd5b506101e5610c6d565b34801561031a57600080fd5b50610141610d58565b34801561032f57600080fd5b5061023e610d5e565b34801561034457600080fd5b5061023e610d6d565b60045460009060ff16151561036157600080fd5b60055460001061037057600080fd5b6006541561037d57600080fd5b670de0b6b3a7640000610399600354610394610bae565b610d7c565b8115156103a257fe5b04905090565b60085481565b60035481565b60045460ff1681565b670de0b6b3a764000081565b60065481565b600c5460009060ff1615156103e357600080fd5b600954600a54146103f357600080fd5b6002546040805160e060020a6370a082310281523060048201529051600160a060020a03909216916370a0823191602480820192602092909190829003018186803b15801561044157600080fd5b505afa158015610455573d6000803e3d6000fd5b505050506040513d602081101561046b57600080fd5b505160025460008054604080517fa9059cbb000000000000000000000000000000000000000000000000000000008152600160a060020a03928316600482015260248101869052905194955092169263a9059cbb926044808201936020939283900390910190829087803b1580156104e257600080fd5b505af11580156104f6573d6000803e3d6000fd5b505050506040513d602081101561050c57600080fd5b50506001546040805160e060020a6370a082310281523060048201529051600160a060020a03909216916370a0823191602480820192602092909190829003018186803b15801561055c57600080fd5b505afa158015610570573d6000803e3d6000fd5b505050506040513d602081101561058657600080fd5b50511561058f57fe5b6002546040805160e060020a6370a082310281523060048201529051600160a060020a03909216916370a0823191602480820192602092909190829003018186803b1580156105dd57600080fd5b505afa1580156105f1573d6000803e3d6000fd5b505050506040513d602081101561060757600080fd5b50511561061057fe5b600054600160a060020a0316ff5b6004546000908190819060ff16151561063657600080fd5b60055460001061064557600080fd5b6006541561065257600080fd5b6000841161065f57600080fd5b61066761034d565b925061067583600854610daa565b91508382111561068657508261068d565b5042600655805b336000908152600d602052604090205415156106ad576009805460010190555b600154604080517f23b872dd000000000000000000000000000000000000000000000000000000008152336004820152306024820152604481018490529051600160a060020a03909216916323b872dd916064808201926020929091908290030181600087803b15801561072057600080fd5b505af1158015610734573d6000803e3d6000fd5b505050506040513d602081101561074a57600080fd5b5050336000908152600d60205260409020546107669082610dba565b336000908152600d60205260409020556008546107839082610dba565b600855337f7b3b4cd7a924717afc26787358e6def5aa265392a7e3cd4ef4fa05ef654f8ad7826107b38582610daa565b6040805192835260208301919091528051918290030190a250505050565b6006546000106107e057600080fd5b600c5460ff16156107f057600080fd5b60015460008054600854604080517fa9059cbb000000000000000000000000000000000000000000000000000000008152600160a060020a039384166004820152602481019290925251919093169263a9059cbb9260448083019360209390929083900390910190829087803b15801561086957600080fd5b505af115801561087d573d6000803e3d6000fd5b505050506040513d602081101561089357600080fd5b50506003546008546108c391906108b290670de0b6b3a7640000610d7c565b8115156108bb57fe5b046001610dba565b600b819055600c805460ff1916600117905560408051918252517f2d7633a748a750b559b97738629efd586b561319b152bb42ba14d590706d31da9181900360200190a1565b600c5460009081908190819060ff16151561092357600080fd5b336000908152600d60205260408120549350831161094057600080fd5b600b5461095584670de0b6b3a7640000610d7c565b81151561095e57fe5b600a80546001019055336000818152600d6020908152604080832092909255600254825160e060020a6370a0823102815260048101949094529151949093049550600160a060020a0316926370a0823192602480840193919291829003018186803b1580156109cc57600080fd5b505afa1580156109e0573d6000803e3d6000fd5b505050506040513d60208110156109f657600080fd5b5051600254604080517fa9059cbb000000000000000000000000000000000000000000000000000000008152336004820152602481018690529051929350600160a060020a039091169163a9059cbb916044808201926020929091908290030181600087803b158015610a6857600080fd5b505af1158015610a7c573d6000803e3d6000fd5b505050506040513d6020811015610a9257600080fd5b50511515610a9f57600080fd5b610aa98183610dba565b6002546040805160e060020a6370a082310281523360048201529051600160a060020a03909216916370a0823191602480820192602092909190829003018186803b158015610af757600080fd5b505afa158015610b0b573d6000803e3d6000fd5b505050506040513d6020811015610b2157600080fd5b505114610b2a57fe5b336000908152600d602052604090205415610b4157fe5b60408051838152905133917f1f1d94b6111d9df0df3696cd7ed841c5dcc1df182b118e039d7803cc6e9b8fe9919081900360200190a26001935050505090565b600154600160a060020a031681565b600d6020526000908152604090205481565b60055481565b600a5481565b600454600090819081908190819060ff161515610bca57600080fd5b600554600010610bd957600080fd5b60065415610be657600080fd5b610bf242600554610daa565b935062015180840492506201518084069150620d2f00610c30610c16602486610daa565b600a0a610394620d2f00610c2b600988610d7c565b610daa565b811515610c3957fe5b0490506007548110610c4b5780610c4f565b6007545b95945050505050565b600b5481565b600c5460ff1681565b60095481565b60055415610c7a57600080fd5b60045460ff1615610c8a57600080fd5b6002546040805160e060020a6370a082310281523060048201529051600160a060020a03909216916370a0823191602480820192602092909190829003018186803b158015610cd857600080fd5b505afa158015610cec573d6000803e3d6000fd5b505050506040513d6020811015610d0257600080fd5b50516003819055600010610d1257fe5b670de0b6b3a76400006003541015610d3f57600354670de0b6b3a7640000811515610d3957fe5b04610d42565b60015b600755426005556004805460ff19166001179055565b60075481565b600254600160a060020a031681565b600054600160a060020a031681565b6000811580610d99575050808202828282811515610d9657fe5b04145b1515610da457600080fd5b92915050565b80820382811115610da457600080fd5b80820182811015610da457600080fd00a165627a7a72305820b5e3fa56b1901a6cc81c6f58a426925c409f4d8b8b996b0c1ecdc3a41407262a0029",
  "source": "/*\n  This file is part of The Colony Network.\n\n  The Colony Network is free software: you can redistribute it and/or modify\n  it under the terms of the GNU General Public License as published by\n  the Free Software Foundation, either version 3 of the License, or\n  (at your option) any later version.\n\n  The Colony Network is distributed in the hope that it will be useful,\n  but WITHOUT ANY WARRANTY; without even the implied warranty of\n  MERCHANTABILITY or FITNESS FOR A PARTICULAR PURPOSE.  See the\n  GNU General Public License for more details.\n\n  You should have received a copy of the GNU General Public License\n  along with The Colony Network. If not, see <http://www.gnu.org/licenses/>.\n*/\n\npragma solidity ^0.4.23;\npragma experimental \"v0.5.0\";\n\nimport \"../lib/dappsys/math.sol\";\nimport \"./ColonyNetworkStorage.sol\";\nimport \"./ERC20Extended.sol\";\nimport \"./IColony.sol\";\n\n\ncontract ColonyNetworkAuction is ColonyNetworkStorage {\n  event AuctionCreated(address auction, address token, uint256 quantity);\n\n  function startTokenAuction(address _token) public {\n    address clny = IColony(metaColony).getToken();\n    DutchAuction auction = new DutchAuction(clny, _token);\n    uint availableTokens = ERC20Extended(_token).balanceOf(this);\n    ERC20Extended(_token).transfer(auction, availableTokens);\n    emit AuctionCreated(address(auction), _token, availableTokens);\n  }\n}\n\n\ncontract DutchAuction is DSMath {\n  address public colonyNetwork;\n  ERC20Extended public clnyToken;\n  ERC20Extended public token;\n\n  // Total number of auctioned tokens\n  uint public quantity;\n  bool public started;\n  uint public startTime;\n  uint public endTime;\n  uint public minPrice;\n  uint public constant TOKEN_MULTIPLIER = 10 ** 18;\n  \n  // Keep track of all CLNY wei received\n  uint public receivedTotal;\n  uint public bidCount;\n  uint public claimCount;\n\n  // Final price in CLNY per 10**18 Tokens (min 1, max 1e18)\n  uint public finalPrice;\n  bool public finalized;\n  \n  mapping (address => uint256) public bids;\n\n  modifier auctionNotStarted {\n    require(startTime == 0);\n    require(!started);\n    _;\n  }\n\n  modifier auctionStartedAndOpen {\n    require(started);\n    require(startTime > 0);\n    require(endTime == 0);\n    _;\n  }\n\n  modifier auctionClosed {\n    require(endTime > 0);\n    _;\n  }\n\n  modifier auctionNotFinalized() {\n    require(!finalized);\n    _;\n  }\n\n  modifier auctionFinalized {\n    require(finalized);\n    _;\n  } \n\n  modifier allBidsClaimed  {\n    require(claimCount == bidCount);\n    _;\n  }\n\n  event AuctionBid(address indexed _sender, uint _amount, uint _missingFunds);\n  event AuctionClaim(address indexed _recipient, uint _sentAmount);\n  event AuctionFinalized(uint _finalPrice);\n\n  constructor(address _clnyToken, address _token) public {\n    colonyNetwork = msg.sender;\n    require(_clnyToken != 0x0 && _token != 0x0);\n    assert(_token != _clnyToken);\n    clnyToken = ERC20Extended(_clnyToken);\n    token = ERC20Extended(_token);\n  }\n\n  function start() public\n  auctionNotStarted\n  {\n    quantity = token.balanceOf(this);\n    assert(quantity > 0);\n\n    // Set the minimum price as such that it doesn't cause the finalPrice to be 0\n    minPrice = (quantity >= TOKEN_MULTIPLIER) ? 1 : TOKEN_MULTIPLIER / quantity;\n\n    startTime = now;\n    started = true;\n  }\n\n  function totalToEndAuction() public view \n  auctionStartedAndOpen\n  returns (uint)\n  {\n    return mul(quantity, price()) / TOKEN_MULTIPLIER;\n  }\n\n  // Get the price in CLNY per 10**18 Tokens (min 1 max 1e36)\n  // Starting price is 10**36, after 1 day price is 10**35, after 2 days price is 10**34 and so on\n  function price() public view\n  auctionStartedAndOpen\n  returns (uint)\n  {\n    uint duration = sub(now, startTime);\n    uint daysOpen = duration / 86400;\n    uint r = duration % 86400;\n    uint p = mul(10**sub(36, daysOpen), sub(864000, mul(9,r))) / 864000;\n    p = p < minPrice ? minPrice : p;\n    return p;\n  }\n\n  function bid(uint256 _amount) public\n  auctionStartedAndOpen\n  {\n    require(_amount > 0);\n    uint _totalToEndAuction = totalToEndAuction();\n    uint remainingToEndAuction = sub(_totalToEndAuction, receivedTotal);\n\n    // Adjust the amount for final bid in case that takes us over the offered quantity at current price\n    // Also conditionally set the auction endTime\n    uint amount;\n    if (remainingToEndAuction > _amount) {\n      amount = _amount;\n    } else {\n      amount = remainingToEndAuction;\n      endTime = now;\n    }\n    \n    if (bids[msg.sender] == 0) {\n      bidCount += 1;\n    }\n\n    clnyToken.transferFrom(msg.sender, this, amount);\n    bids[msg.sender] = add(bids[msg.sender], amount);\n    receivedTotal = add(receivedTotal, amount);\n    \n    emit AuctionBid(msg.sender, amount, sub(remainingToEndAuction, amount));\n  }\n\n  // Finalize the auction and set the final Token price\n  function finalize() public\n  auctionClosed\n  auctionNotFinalized\n  {\n    // Give the network all CLNY sent to the auction in bids\n    clnyToken.transfer(colonyNetwork, receivedTotal);\n    finalPrice = add((mul(receivedTotal, TOKEN_MULTIPLIER) / quantity), 1);\n    finalized = true;\n    emit AuctionFinalized(finalPrice);\n  }\n\n  function claim() public \n  auctionFinalized\n  returns (bool)\n  {\n    uint amount = bids[msg.sender];\n    require(amount > 0);\n\n    uint tokens = mul(amount, TOKEN_MULTIPLIER) / finalPrice;\n    claimCount += 1;\n    \n    // Set receiver bid to 0 before transferring the tokens\n    bids[msg.sender] = 0;\n    uint beforeClaimBalance = token.balanceOf(msg.sender);\n    require(token.transfer(msg.sender, tokens));\n    assert(token.balanceOf(msg.sender) == add(beforeClaimBalance, tokens));\n    assert(bids[msg.sender] == 0);\n\n    emit AuctionClaim(msg.sender, tokens);\n    return true;\n  }\n\n  function close() public\n  auctionFinalized\n  allBidsClaimed\n  {\n    // Transfer token remainder to the network\n    uint auctionTokenBalance = token.balanceOf(this);\n    token.transfer(colonyNetwork, auctionTokenBalance);\n    // Check this contract balances in the working tokens is 0 before we kill it\n    assert(clnyToken.balanceOf(this) == 0);\n    assert(token.balanceOf(this) == 0);\n    selfdestruct(colonyNetwork);\n  }\n}",
  "sourcePath": "/root/intuition-machine/colonyNetwork/contracts/ColonyNetworkAuction.sol",
  "compiler": {
    "name": "solc",
    "version": "0.4.24+commit.e67f0147.Emscripten.clang"
  },
  "schemaVersion": "2.0.0",
  "updatedAt": "2018-06-20T09:03:15.202Z"
}