{
  "contractName": "EtherRouter",
  "abi": [
    {
      "constant": true,
      "inputs": [],
      "name": "resolver",
      "outputs": [
        {
          "name": "",
          "type": "address"
        }
      ],
      "payable": false,
      "stateMutability": "view",
      "type": "function"
    },
    {
      "constant": false,
      "inputs": [
        {
          "name": "owner_",
          "type": "address"
        }
      ],
      "name": "setOwner",
      "outputs": [],
      "payable": false,
      "stateMutability": "nonpayable",
      "type": "function"
    },
    {
      "constant": false,
      "inputs": [
        {
          "name": "authority_",
          "type": "address"
        }
      ],
      "name": "setAuthority",
      "outputs": [],
      "payable": false,
      "stateMutability": "nonpayable",
      "type": "function"
    },
    {
      "constant": true,
      "inputs": [],
      "name": "owner",
      "outputs": [
        {
          "name": "",
          "type": "address"
        }
      ],
      "payable": false,
      "stateMutability": "view",
      "type": "function"
    },
    {
      "constant": true,
      "inputs": [],
      "name": "authority",
      "outputs": [
        {
          "name": "",
          "type": "address"
        }
      ],
      "payable": false,
      "stateMutability": "view",
      "type": "function"
    },
    {
      "payable": true,
      "stateMutability": "payable",
      "type": "fallback"
    },
    {
      "anonymous": false,
      "inputs": [
        {
          "indexed": true,
          "name": "authority",
          "type": "address"
        }
      ],
      "name": "LogSetAuthority",
      "type": "event"
    },
    {
      "anonymous": false,
      "inputs": [
        {
          "indexed": true,
          "name": "owner",
          "type": "address"
        }
      ],
      "name": "LogSetOwner",
      "type": "event"
    },
    {
      "constant": false,
      "inputs": [
        {
          "name": "_resolver",
          "type": "address"
        }
      ],
      "name": "setResolver",
      "outputs": [],
      "payable": false,
      "stateMutability": "nonpayable",
      "type": "function"
    }
  ],
  "bytecode": "0x6080604081905260018054600160a060020a03191633908117909155907fce241d7ca1f669fee44b6fc00b8eba2df3bb514eed0f6f668f8f89096e81ed9490600090a26104c8806100516000396000f3006080604052600436106100775763ffffffff7c010000000000000000000000000000000000000000000000000000000060003504166304f3bcec811461016357806313af4035146101945780634e543b26146101b75780637a9e5e4b146101d85780638da5cb5b146101f9578063bf7e214f1461020e575b6000600160e060020a0319813516151561009057610160565b600254604080517f6f68e8d2000000000000000000000000000000000000000000000000000000008152600160e060020a03196000351660048201529051600160a060020a0390921691636f68e8d291602480820192602092909190829003018186803b15801561010057600080fd5b505afa158015610114573d6000803e3d6000fd5b505050506040513d602081101561012a57600080fd5b5051604051909150369060009037600060405136604051845af43d60006040513e806001811461015a573d604051fd5b3d604051f35b50005b34801561016f57600080fd5b50610178610223565b60408051600160a060020a039092168252519081900360200190f35b3480156101a057600080fd5b506101b5600160a060020a0360043516610232565b005b3480156101c357600080fd5b506101b5600160a060020a03600435166102b0565b3480156101e457600080fd5b506101b5600160a060020a0360043516610300565b34801561020557600080fd5b5061017861037a565b34801561021a57600080fd5b50610178610389565b600254600160a060020a031681565b61024833600035600160e060020a031916610398565b151561025357600080fd5b6001805473ffffffffffffffffffffffffffffffffffffffff1916600160a060020a0383811691909117918290556040519116907fce241d7ca1f669fee44b6fc00b8eba2df3bb514eed0f6f668f8f89096e81ed9490600090a250565b6102c633600035600160e060020a031916610398565b15156102d157600080fd5b6002805473ffffffffffffffffffffffffffffffffffffffff1916600160a060020a0392909216919091179055565b61031633600035600160e060020a031916610398565b151561032157600080fd5b6000805473ffffffffffffffffffffffffffffffffffffffff1916600160a060020a03838116919091178083556040519116917f1abebea81bfa2637f28358c371278fb15ede7ea8dd28d2e03b112ff6d936ada491a250565b600154600160a060020a031681565b600054600160a060020a031681565b6000600160a060020a0383163014156103b357506001610496565b600154600160a060020a03848116911614156103d157506001610496565b600054600160a060020a031615156103eb57506000610496565b600054604080517fb7009613000000000000000000000000000000000000000000000000000000008152600160a060020a038681166004830152306024830152600160e060020a0319861660448301529151919092169163b7009613916064808301926020929190829003018186803b15801561046757600080fd5b505afa15801561047b573d6000803e3d6000fd5b505050506040513d602081101561049157600080fd5b505190505b929150505600a165627a7a7230582015be3eecce440b6e8cb0a9f75efc89e5cd785c9ab78bf8fc3447fbd439902aa00029",
  "source": "/*\n  This file is part of The Colony Network.\n\n  The Colony Network is free software: you can redistribute it and/or modify\n  it under the terms of the GNU General Public License as published by\n  the Free Software Foundation, either version 3 of the License, or\n  (at your option) any later version.\n\n  The Colony Network is distributed in the hope that it will be useful,\n  but WITHOUT ANY WARRANTY; without even the implied warranty of\n  MERCHANTABILITY or FITNESS FOR A PARTICULAR PURPOSE.  See the\n  GNU General Public License for more details.\n\n  You should have received a copy of the GNU General Public License\n  along with The Colony Network. If not, see <http://www.gnu.org/licenses/>.\n*/\n\npragma solidity ^0.4.23;\npragma experimental \"v0.5.0\";\n\nimport \"./Resolver.sol\";\nimport \"../lib/dappsys/auth.sol\";\n\n\ncontract EtherRouter is DSAuth {\n  Resolver public resolver;\n\n  function() payable external {\n    if (msg.sig == 0x0) {\n      return;\n    }\n    // Contracts that want to receive Ether with a plain \"send\" have to implement\n    // a fallback function with the payable modifier. Contracts now throw if no payable\n    // fallback function is defined and no function matches the signature.\n    // However, 'send' only provides 2300 gas, which is not enough for EtherRouter\n    // so we shortcut it here.\n    //\n    // Note that this means we can never have a fallback function that 'does' stuff.\n    // but those only really seem to be ICOs, to date. To be explicit, there is a hard\n    // decision to be made here. Either:\n    // 1. Contracts that use 'send' or 'transfer' cannot send money to Colonies/ColonyNetwork\n    // 2. We commit to never using a fallback function that does anything.\n    //\n    // If we wish to have such a fallback function for a Colony, it could be in a separate\n    // contract.\n\n    // Get routing information for the called function\n    address destination = resolver.lookup(msg.sig);\n\n    // Make the call\n    assembly {\n      calldatacopy(mload(0x40), 0, calldatasize)\n      let result := delegatecall(gas, destination, mload(0x40), calldatasize, mload(0x40), 0)\n      returndatacopy(mload(0x40), 0, returndatasize)\n      switch result\n      case 1 { return(mload(0x40), returndatasize) }\n      default { revert(mload(0x40), returndatasize) }\n    }\n  }\n\n  function setResolver(address _resolver) public\n  auth\n  {\n    resolver = Resolver(_resolver);\n  }\n}\n",
  "sourcePath": "/root/intuition-machine/colonyNetwork/contracts/EtherRouter.sol",
  "compiler": {
    "name": "solc",
    "version": "0.4.24+commit.e67f0147.Emscripten.clang"
  },
  "schemaVersion": "2.0.0",
  "updatedAt": "2018-06-20T09:03:27.562Z"
}