{
  "contractName": "Killable",
  "abi": [
    {
      "constant": true,
      "inputs": [],
      "name": "owner",
      "outputs": [
        {
          "name": "",
          "type": "address"
        }
      ],
      "payable": false,
      "stateMutability": "view",
      "type": "function"
    },
    {
      "constant": false,
      "inputs": [
        {
          "name": "newOwner",
          "type": "address"
        }
      ],
      "name": "transferOwnership",
      "outputs": [],
      "payable": false,
      "stateMutability": "nonpayable",
      "type": "function"
    },
    {
      "constant": false,
      "inputs": [],
      "name": "kill",
      "outputs": [],
      "payable": false,
      "stateMutability": "nonpayable",
      "type": "function"
    }
  ],
  "bytecode": "0x608060405260008054600160a060020a03191633179055610170806100256000396000f3006080604052600436106100565763ffffffff7c010000000000000000000000000000000000000000000000000000000060003504166341c0e1b5811461005b5780638da5cb5b14610072578063f2fde38b146100a3575b600080fd5b34801561006757600080fd5b506100706100c4565b005b34801561007e57600080fd5b506100876100e7565b60408051600160a060020a039092168252519081900360200190f35b3480156100af57600080fd5b50610070600160a060020a03600435166100f6565b600054600160a060020a03163314156100e557600054600160a060020a0316ff5b565b600054600160a060020a031681565b600054600160a060020a031633141561014157600160a060020a03811615610141576000805473ffffffffffffffffffffffffffffffffffffffff1916600160a060020a0383161790555b505600a165627a7a723058204839ac0fb120cd55000e5882454ec6f38ea922014038971ef68d5e8d1fa167700029",
  "source": "pragma solidity ^0.4.4;\n\n\nimport \"./../ownership/Ownable.sol\";\n\n\n/*\n * Killable\n * Base contract that can be killed by owner. All funds in contract will be sent to the owner.\n */\ncontract Killable is Ownable {\n  function kill() public onlyOwner {\n    selfdestruct(owner);\n  }\n}\n",
  "sourcePath": "/root/intuition-machine/colonyNetwork/contracts/zeppelin/lifecycle/Killable.sol",
  "compiler": {
    "name": "solc",
    "version": "0.4.24+commit.e67f0147.Emscripten.clang"
  },
  "schemaVersion": "2.0.0",
  "updatedAt": "2018-06-20T09:03:18.803Z"
}