{
  "contractName": "PatriciaTreeProofs",
  "abi": [
    {
      "constant": true,
      "inputs": [
        {
          "name": "key",
          "type": "bytes"
        },
        {
          "name": "value",
          "type": "bytes"
        },
        {
          "name": "branchMask",
          "type": "uint256"
        },
        {
          "name": "siblings",
          "type": "bytes32[]"
        }
      ],
      "name": "getImpliedRoot",
      "outputs": [
        {
          "name": "",
          "type": "bytes32"
        }
      ],
      "payable": false,
      "stateMutability": "view",
      "type": "function"
    }
  ],
  "bytecode": "0x608060405234801561001057600080fd5b50610770806100206000396000f3006080604052600436106100405763ffffffff7c01000000000000000000000000000000000000000000000000000000006000350416637f8b94788114610045575b600080fd5b34801561005157600080fd5b506100656100603660046105ec565b61007b565b60405161007291906106a3565b60405180910390f35b60006100856104b9565b61008d6104d0565b600080600061009a6104f0565b60408051908101604052808c6040518082805190602001908083835b602083106100d55780518252601f1990920191602091820191016100b6565b6001836020036101000a03801982511681845116808217855250505050505090500191505060405180910390206000191681526020016101008152509550896040518082805190602001908083835b602083106101435780518252601f199092019160209182019101610124565b5181516020939093036101000a600019018019909116921691909117905260405192018290039091208852506000955050505b88156102c957610185896102e8565b60ff1692508260019060020a0219891698506101ad8360ff038761034190919063ffffffff16565b602087018190529096506101c0906103b5565b602087015291506101d08561041c565b8183600281106101dc57fe5b602002015287518890858103600019019081106101f557fe5b90602001906020020151818360010360028110151561021057fe5b6020908102919091019190915260408051839201908190839080838360005b8381101561024757818101518382015260200161022f565b505050509050019150506040516020818303038152906040526040518082805190602001908083835b6020831061028f5780518252601f199092019160209182019101610270565b5181516020939093036101000a60001901801990911692169190911790526040519201829003909120885250505060019390930192610176565b602085018690526102d98561041c565b9b9a5050505050505050505050565b600080808315156102f857600080fd5b5082905060805b600160ff82161061033a5760001960ff821660020a018216151561032d579182019160ff811660020a909104905b600260ff909116046102ff565b5050919050565b6103496104b9565b6103516104b9565b8360200151831115801561036757506101008311155b151561036f57fe5b602082018390528215156103865760008252610398565b835160ff84900360020a600119021682525b60208085015184900390820152925160029290920a909102825291565b60006103bf6104b9565b60208301516000106103d057600080fd5b50508051604080518082019091528251600202815260209283015160001901928101929092527f8000000000000000000000000000000000000000000000000000000000000000900491565b8051602080830151808201519051604080518085019590955284810192909252606080850191909152815180850390910181526080909301908190528251600093928291908401908083835b602083106104875780518252601f199092019160209182019101610468565b5181516020939093036101000a6000190180199091169216919091179052604051920182900390912095945050505050565b604080518082019091526000808252602082015290565b604080516060810190915260008152602081016104eb6104b9565b905290565b60408051808201825290600290829080388339509192915050565b6000601f8201831361051c57600080fd5b813561052f61052a826106de565b6106b7565b9150818183526020840193506020810190508385602084028201111561055457600080fd5b60005b83811015610580578161056a888261058a565b8452506020928301929190910190600101610557565b5050505092915050565b60006105968235610727565b9392505050565b6000601f820183136105ae57600080fd5b81356105bc61052a826106ff565b915080825260208301602083018583830111156105d857600080fd5b6105e383828461072a565b50505092915050565b6000806000806080858703121561060257600080fd5b843567ffffffffffffffff81111561061957600080fd5b6106258782880161059d565b945050602085013567ffffffffffffffff81111561064257600080fd5b61064e8782880161059d565b935050604061065f8782880161058a565b925050606085013567ffffffffffffffff81111561067c57600080fd5b6106888782880161050b565b91505092959194509250565b61069d81610727565b82525050565b602081016106b18284610694565b92915050565b60405181810167ffffffffffffffff811182821017156106d657600080fd5b604052919050565b600067ffffffffffffffff8211156106f557600080fd5b5060209081020190565b600067ffffffffffffffff82111561071657600080fd5b506020601f91909101601f19160190565b90565b828183375060009101525600a265627a7a723058206d07d654fd129563c0e1a7a1355b859e78a5cdc04bf2e23c3c691c31c94168c36c6578706572696d656e74616cf50037",
  "source": "pragma solidity ^0.4.16;\npragma experimental \"v0.5.0\";\npragma experimental \"ABIEncoderV2\";\n\nimport {Data} from \"./Data.sol\";\nimport {Bits} from \"./Bits.sol\";\n\n/// @title Functions related to checking Patricia Tree proofs\n/// @notice More info at: https://github.com/chriseth/patricia-trie\ncontract PatriciaTreeProofs {\n  using Bits for uint;\n  using Data for Data.Edge;\n  using Data for Data.Label;\n\n  function getImpliedRoot(bytes key, bytes value, uint branchMask, bytes32[] siblings) public view returns (bytes32) { // solium-disable-line security/no-assign-params\n    Data.Label memory k = Data.Label(keccak256(key), 256);\n    Data.Edge memory e;\n    e.node = keccak256(value);\n    for (uint i = 0; branchMask != 0; i++) {\n      uint bitSet = branchMask.lowestBitSet();\n      branchMask &= ~(uint(1) << bitSet);\n      (k, e.label) = k.splitAt(255 - bitSet);\n      uint bit;\n      (bit, e.label) = e.label.chopFirstBit();\n      bytes32[2] memory edgeHashes;\n      edgeHashes[bit] = e.edgeHash();\n      edgeHashes[1 - bit] = siblings[siblings.length - i - 1];\n      e.node = keccak256(abi.encodePacked(edgeHashes));\n    }\n    e.label = k;\n    return e.edgeHash();\n  }\n}\n",
  "sourcePath": "/root/intuition-machine/colonyNetwork/contracts/PatriciaTree/PatriciaTreeProofs.sol",
  "compiler": {
    "name": "solc",
    "version": "0.4.24+commit.e67f0147.Emscripten.clang"
  },
  "schemaVersion": "2.0.0",
  "updatedAt": "2018-06-20T09:03:15.185Z"
}