{
  "contractName": "PatriciaTree",
  "abi": [
    {
      "constant": true,
      "inputs": [
        {
          "name": "key",
          "type": "bytes"
        },
        {
          "name": "value",
          "type": "bytes"
        },
        {
          "name": "branchMask",
          "type": "uint256"
        },
        {
          "name": "siblings",
          "type": "bytes32[]"
        }
      ],
      "name": "getImpliedRoot",
      "outputs": [
        {
          "name": "",
          "type": "bytes32"
        }
      ],
      "payable": false,
      "stateMutability": "view",
      "type": "function"
    },
    {
      "constant": true,
      "inputs": [],
      "name": "getRootHash",
      "outputs": [
        {
          "name": "",
          "type": "bytes32"
        }
      ],
      "payable": false,
      "stateMutability": "view",
      "type": "function"
    },
    {
      "constant": true,
      "inputs": [],
      "name": "getRootEdge",
      "outputs": [
        {
          "components": [
            {
              "name": "node",
              "type": "bytes32"
            },
            {
              "components": [
                {
                  "name": "data",
                  "type": "bytes32"
                },
                {
                  "name": "length",
                  "type": "uint256"
                }
              ],
              "name": "label",
              "type": "tuple"
            }
          ],
          "name": "e",
          "type": "tuple"
        }
      ],
      "payable": false,
      "stateMutability": "view",
      "type": "function"
    },
    {
      "constant": true,
      "inputs": [
        {
          "name": "hash",
          "type": "bytes32"
        }
      ],
      "name": "getNode",
      "outputs": [
        {
          "components": [
            {
              "components": [
                {
                  "name": "node",
                  "type": "bytes32"
                },
                {
                  "components": [
                    {
                      "name": "data",
                      "type": "bytes32"
                    },
                    {
                      "name": "length",
                      "type": "uint256"
                    }
                  ],
                  "name": "label",
                  "type": "tuple"
                }
              ],
              "name": "children",
              "type": "tuple[2]"
            }
          ],
          "name": "n",
          "type": "tuple"
        }
      ],
      "payable": false,
      "stateMutability": "view",
      "type": "function"
    },
    {
      "constant": true,
      "inputs": [
        {
          "name": "key",
          "type": "bytes"
        }
      ],
      "name": "getProof",
      "outputs": [
        {
          "name": "branchMask",
          "type": "uint256"
        },
        {
          "name": "_siblings",
          "type": "bytes32[]"
        }
      ],
      "payable": false,
      "stateMutability": "view",
      "type": "function"
    },
    {
      "constant": false,
      "inputs": [
        {
          "name": "key",
          "type": "bytes"
        },
        {
          "name": "value",
          "type": "bytes"
        }
      ],
      "name": "insert",
      "outputs": [],
      "payable": false,
      "stateMutability": "nonpayable",
      "type": "function"
    }
  ],
  "bytecode": "0x608060405234801561001057600080fd5b50611443806100206000396000f3006080604052600436106100775763ffffffff7c010000000000000000000000000000000000000000000000000000000060003504166320ba5b60811461007c57806350c946fe1461009e578063693ac4fb146100d45780637f8b94781461010257806380759f1f1461012f578063a43914da14610144575b600080fd5b34801561008857600080fd5b5061009c61009736600461110b565b610166565b005b3480156100aa57600080fd5b506100be6100b93660046110b0565b61017c565b6040516100cb919061134c565b60405180910390f35b3480156100e057600080fd5b506100f46100ef3660046110d6565b61020b565b6040516100cb92919061135a565b34801561010e57600080fd5b5061012261011d366004611174565b6104be565b6040516100cb919061132a565b34801561013b57600080fd5b5061012261072b565b34801561015057600080fd5b50610159610731565b6040516100cb919061133e565b6101786000838363ffffffff61076a16565b5050565b610184610ef0565b6000828152600460209081526040808320815160608101909252909290918391908201908390600290835b828210156101fd5760408051808201825260038402860180548252825180840190935260018082015484526002909101546020848101919091528083019390935290835290920191016101af565b505050915250909392505050565b60006060610217610f09565b61021f610f20565b610227610f3b565b600080610232610f09565b61023a610f09565b6000610244610f09565b60008054151561025357600080fd5b60408051908101604052808e6040518082805190602001908083835b6020831061028e5780518252601f19909201916020918201910161026f565b518151602093840361010090810a600019018019909316929091169190911790915260408051939095018390039092208752958601525080518082018252600154815281518083019092526002548252600354828601529384015250919b509950505b6020890151610307908b9063ffffffff6108e016565b6020808c0151810151908301519297509095501461032157fe5b602084015115156103315761043a565b60208501519690960160ff81900360020a9b909b179a600101956103548461090e565b8a51600090815260046020526040902091945092506103ba9060018590036002811061037c57fe5b604080518082018252600392909202929092018054825282518084019093526001810154835260020154602083810191909152810191909152610975565b6001870196899061010081106103cc57fe5b602090810291909101919091528951600090815260049091526040902083600281106103f457fe5b60408051808201825260039290920292909201805482528251808401909352600181015483526002015460208381019190915281019190915291995090975088906102f1565b60008611156104af578560405190808252806020026020018201604052801561046d578160200160208202803883390190505b509a50600090505b858110156104af578781610100811061048a57fe5b60200201518b8281518110151561049d57fe5b60209081029091010152600101610475565b50505050505050505050915091565b60006104c8610f09565b6104d0610f20565b60008060006104dd610f5c565b60408051908101604052808c6040518082805190602001908083835b602083106105185780518252601f1990920191602091820191016104f9565b6001836020036101000a03801982511681845116808217855250505050505090500191505060405180910390206000191681526020016101008152509550896040518082805190602001908083835b602083106105865780518252601f199092019160209182019101610567565b5181516020939093036101000a600019018019909116921691909117905260405192018290039091208852506000955050505b881561070c576105c889610a12565b60ff1692508260019060020a0219891698506105f08360ff0387610a6b90919063ffffffff16565b602087018190529096506106039061090e565b6020870152915061061385610975565b81836002811061061f57fe5b6020020152875188908581036000190190811061063857fe5b90602001906020020151818360010360028110151561065357fe5b6020908102919091019190915260408051839201908190839080838360005b8381101561068a578181015183820152602001610672565b505050509050019150506040516020818303038152906040526040518082805190602001908083835b602083106106d25780518252601f1990920191602091820191016106b3565b5181516020939093036101000a600019018019909116921691909117905260405192018290039091208852505050600193909301926105b9565b6020850186905261071c85610975565b9b9a5050505050505050505050565b60005490565b610739610f20565b5060408051808201825260015481528151808301909252600254825260035460208381019190915281019190915290565b610772610f09565b600061077c610f20565b6040805190810160405280866040518082805190602001908083835b602083106107b75780518252601f199092019160209182019101610798565b6001836020036101000a03801982511681845116808217855250505050505090500191505060405180910390206000191681526020016101008152509250836040518082805190602001908083835b602083106108255780518252601f199092019160209182019101610806565b5181516020939093036101000a6000190180199091169216919091179052604051920182900390912089549095501515925061086d91505057602081018390528181526108b0565b6040805180820182526001880154815281518083019092526002880154825260038801546020838101919091528101919091526108ad9087908585610adf565b90505b6108b981610975565b86558051600187015560209081015180516002880155015160039095019490945550505050565b6108e8610f09565b6108f0610f09565b610903846108fe8686610d1c565b610a6b565b915091509250929050565b6000610918610f09565b602083015160001061092957600080fd5b50508051604080518082019091528251600202815260209283015160001901928101929092527f8000000000000000000000000000000000000000000000000000000000000000900491565b8051602080830151808201519051604080518085019590955284810192909252606080850191909152815180850390910181526080909301908190528251600093928291908401908083835b602083106109e05780518252601f1990920191602091820191016109c1565b5181516020939093036101000a6000190180199091169216919091179052604051920182900390912095945050505050565b60008080831515610a2257600080fd5b5082905060805b600160ff821610610a645760001960ff821660020a0182161515610a57579182019160ff811660020a909104905b600260ff90911604610a29565b5050919050565b610a73610f09565b610a7b610f09565b83602001518311158015610a9157506101008311155b1515610a9957fe5b60208201839052821515610ab05760008252610ac2565b835160ff84900360020a600119021682525b60208085015184900390820152925160029290920a909102825291565b610ae7610f20565b610aef610f09565b610af7610f09565b6000610b01610f09565b6000610b0b610ef0565b610b13610ef0565b6020808c0151810151908b01511015610b2857fe5b610b368a8c602001516108e0565b602081015191985096501515610b4e57889250610cf8565b6020808c01518101519088015110610c6c576020860151600110610b6e57fe5b8a51600090815260048d0160209081526040808320815160608101909252909290918391908201908390600290835b82821015610beb576040805180820182526003840286018054825282518084019093526001808201548452600290910154602084810191909152808301939093529083529092019101610b9d565b50505050815250509150610bfe8661090e565b83519196509450610c22908d908760028110610c1657fe5b6020020151868c610adf565b82518660028110610c2f57fe5b602090810291909101919091528b51600090815260048e019091526040812090610c598282610f77565b5050610c658c83610d8e565b9250610cf8565b610c758661090e565b604080518082019091528b8152602081018290528351929750909550908660028110610c9d57fe5b602002018190525060408051908101604052808c60000151600019168152602001610cd38d602001518a60200151600101610df4565b90528151600187900360028110610ce657fe5b6020020152610cf58c82610d8e565b92505b50506040805180820190915290815260208101949094525091979650505050505050565b60008060008360200151856020015110610d3a578360200151610d40565b84602001515b9150811515610d525760009250610d86565b50825184511861010082900360020a60000316801515610d7457819250610d86565b610d7d81610e28565b60ff0360ff1692505b505092915050565b600080610d9a83610e7b565b83515160008281526004968701602090815260409091208251815591810151805160018401558101516002830155945185015180516003830155850151805196820196909655949093015160059094019390935550919050565b610dfc610f09565b6020830151821115610e0d57600080fd5b60208084015183900390820152915160029190910a02815290565b60008080831515610e3857600080fd5b5082905060805b600160ff821610610a645760ff811660020a600019810102821615610e6e579182019160ff811660020a909104905b600260ff90911604610e3f565b8051600090610e9090825b6020020151610975565b8251610e9d906001610e86565b60408051602080820194909452808201929092528051808303820181526060909201908190528151919290918291840190808383602083106109e05780518252601f1990920191602091820191016109c1565b60c060405190810160405280610f04610fa1565b905290565b604080518082019091526000808252602082015290565b60408051606081019091526000815260208101610f04610f09565b61200060405190810160405280610100906020820280388339509192915050565b60408051808201825290600290829080388339509192915050565b50600080825560018201819055600282018190556003820181905560048201819055600590910155565b60c0604051908101604052806002905b610fb9610f20565b815260200190600190039081610fb15790505090565b6000601f82018313610fe057600080fd5b8135610ff3610fee826113a1565b61137a565b9150818183526020840193506020810190508385602084028201111561101857600080fd5b60005b83811015611044578161102e888261104e565b845250602092830192919091019060010161101b565b5050505092915050565b600061105a82356113f0565b9392505050565b6000601f8201831361107257600080fd5b8135611080610fee826113c2565b9150808252602083016020830185838301111561109c57600080fd5b6110a78382846113fd565b50505092915050565b6000602082840312156110c257600080fd5b60006110ce848461104e565b949350505050565b6000602082840312156110e857600080fd5b813567ffffffffffffffff8111156110ff57600080fd5b6110ce84828501611061565b6000806040838503121561111e57600080fd5b823567ffffffffffffffff81111561113557600080fd5b61114185828601611061565b925050602083013567ffffffffffffffff81111561115e57600080fd5b61116a85828601611061565b9150509250929050565b6000806000806080858703121561118a57600080fd5b843567ffffffffffffffff8111156111a157600080fd5b6111ad87828801611061565b945050602085013567ffffffffffffffff8111156111ca57600080fd5b6111d687828801611061565b93505060406111e78782880161104e565b925050606085013567ffffffffffffffff81111561120457600080fd5b61121087828801610fcf565b91505092959194509250565b6000611227826113f3565b808452602084019350611239836113ea565b60005b828110156112695761124f8683516112bc565b611258826113ea565b60209690960195915060010161123c565b5093949350505050565b61127c816113f7565b611285826113f0565b60005b828110156112b55761129b8583516112cb565b6112a4826113ea565b606095909501949150600101611288565b5050505050565b6112c5816113f0565b82525050565b805160608301906112dc84826112bc565b5060208201516112ef60208501826112f5565b50505050565b8051604083019061130684826112bc565b5060208201516112ef60208501826112bc565b805160c08301906112ef8482611273565b6020810161133882846112bc565b92915050565b6060810161133882846112cb565b60c081016113388284611319565b6040810161136882856112bc565b81810360208301526110ce818461121c565b60405181810167ffffffffffffffff8111828210171561139957600080fd5b604052919050565b600067ffffffffffffffff8211156113b857600080fd5b5060209081020190565b600067ffffffffffffffff8211156113d957600080fd5b506020601f91909101601f19160190565b60200190565b90565b5190565b50600290565b828183375060009101525600a265627a7a72305820a7b3914ec037e7cb0f013db5828e9db35f6d4388e8c09fc706097a3e310aa1c66c6578706572696d656e74616cf50037",
  "source": "pragma solidity ^0.4.16;\npragma experimental \"v0.5.0\";\npragma experimental \"ABIEncoderV2\";\n\nimport {Data} from \"./Data.sol\";\nimport {Bits} from \"./Bits.sol\";\nimport \"./IPatriciaTree.sol\";\nimport \"./PatriciaTreeProofs.sol\";\n\n\n/// @title Patricia tree implementation\n/// @notice More info at: https://github.com/chriseth/patricia-trie\ncontract PatriciaTree is IPatriciaTree, PatriciaTreeProofs {\n\n  using Data for Data.Tree;\n  using Data for Data.Edge;\n  using Data for Data.Label;\n  using Bits for uint;\n\n  Data.Tree internal tree;\n\n  function getRootHash() public view returns (bytes32) {\n    return tree.root;\n  }\n\n  function getRootEdge() public view returns (Data.Edge e) {\n    e = tree.rootEdge;\n  }\n\n  function getNode(bytes32 hash) public view returns (Data.Node n) {\n    n = tree.nodes[hash];\n  }\n\n  function getProof(bytes key) public view returns (uint branchMask, bytes32[] _siblings) {\n    require(tree.root != 0);\n    Data.Label memory k = Data.Label(keccak256(key), 256);\n    Data.Edge memory e = tree.rootEdge;\n    bytes32[256] memory siblings;\n    uint length;\n    uint numSiblings;\n    while (true) {\n      Data.Label memory prefix;\n      Data.Label memory suffix;\n      (prefix, suffix) = k.splitCommonPrefix(e.label);\n      assert(prefix.length == e.label.length);\n      if (suffix.length == 0) {\n        // Found it\n        break;\n      }\n      length += prefix.length;\n      branchMask |= uint(1) << 255 - length;\n      length += 1;\n      uint256 head;\n      Data.Label memory tail;\n      (head, tail) = suffix.chopFirstBit();\n      siblings[numSiblings++] = tree.nodes[e.node].children[1 - head].edgeHash();\n      e = tree.nodes[e.node].children[head];\n      k = tail;\n    }\n    if (numSiblings > 0) {\n      _siblings = new bytes32[](numSiblings);\n      for (uint i = 0; i < numSiblings; i++) {\n        _siblings[i] = siblings[i];\n      }\n    }\n  }\n\n  function insert(bytes key, bytes value) public {\n    tree.insert(key, value);\n  }\n}\n",
  "sourcePath": "/root/intuition-machine/colonyNetwork/contracts/PatriciaTree/PatriciaTree.sol",
  "compiler": {
    "name": "solc",
    "version": "0.4.24+commit.e67f0147.Emscripten.clang"
  },
  "schemaVersion": "2.0.0",
  "updatedAt": "2018-06-20T09:03:15.172Z"
}