{
  "contractName": "ReputationMiningCycle",
  "abi": [
    {
      "constant": true,
      "inputs": [],
      "name": "nInvalidatedHashes",
      "outputs": [
        {
          "name": "",
          "type": "uint256"
        }
      ],
      "payable": false,
      "stateMutability": "view",
      "type": "function"
    },
    {
      "constant": true,
      "inputs": [
        {
          "name": "",
          "type": "address"
        }
      ],
      "name": "reputationHashSubmissions",
      "outputs": [
        {
          "name": "proposedNewRootHash",
          "type": "bytes32"
        },
        {
          "name": "nNodes",
          "type": "uint256"
        },
        {
          "name": "lastResponseTimestamp",
          "type": "uint256"
        },
        {
          "name": "challengeStepCompleted",
          "type": "uint256"
        },
        {
          "name": "jrh",
          "type": "bytes32"
        },
        {
          "name": "intermediateReputationHash",
          "type": "bytes32"
        },
        {
          "name": "intermediateReputationNNodes",
          "type": "uint256"
        },
        {
          "name": "jrhNnodes",
          "type": "uint256"
        },
        {
          "name": "lowerBound",
          "type": "uint256"
        },
        {
          "name": "upperBound",
          "type": "uint256"
        },
        {
          "name": "provedPreviousReputationUID",
          "type": "uint256"
        }
      ],
      "payable": false,
      "stateMutability": "view",
      "type": "function"
    },
    {
      "constant": true,
      "inputs": [
        {
          "name": "key",
          "type": "bytes"
        },
        {
          "name": "value",
          "type": "bytes"
        },
        {
          "name": "branchMask",
          "type": "uint256"
        },
        {
          "name": "siblings",
          "type": "bytes32[]"
        }
      ],
      "name": "getImpliedRoot",
      "outputs": [
        {
          "name": "",
          "type": "bytes32"
        }
      ],
      "payable": false,
      "stateMutability": "view",
      "type": "function"
    },
    {
      "constant": true,
      "inputs": [],
      "name": "nSubmittedHashes",
      "outputs": [
        {
          "name": "",
          "type": "uint256"
        }
      ],
      "payable": false,
      "stateMutability": "view",
      "type": "function"
    },
    {
      "constant": true,
      "inputs": [
        {
          "name": "",
          "type": "uint256"
        },
        {
          "name": "",
          "type": "uint256"
        }
      ],
      "name": "disputeRounds",
      "outputs": [
        {
          "name": "proposedNewRootHash",
          "type": "bytes32"
        },
        {
          "name": "nNodes",
          "type": "uint256"
        },
        {
          "name": "lastResponseTimestamp",
          "type": "uint256"
        },
        {
          "name": "challengeStepCompleted",
          "type": "uint256"
        },
        {
          "name": "jrh",
          "type": "bytes32"
        },
        {
          "name": "intermediateReputationHash",
          "type": "bytes32"
        },
        {
          "name": "intermediateReputationNNodes",
          "type": "uint256"
        },
        {
          "name": "jrhNnodes",
          "type": "uint256"
        },
        {
          "name": "lowerBound",
          "type": "uint256"
        },
        {
          "name": "upperBound",
          "type": "uint256"
        },
        {
          "name": "provedPreviousReputationUID",
          "type": "uint256"
        }
      ],
      "payable": false,
      "stateMutability": "view",
      "type": "function"
    },
    {
      "constant": true,
      "inputs": [],
      "name": "reputationMiningWindowOpenTimestamp",
      "outputs": [
        {
          "name": "",
          "type": "uint256"
        }
      ],
      "payable": false,
      "stateMutability": "view",
      "type": "function"
    },
    {
      "constant": true,
      "inputs": [
        {
          "name": "",
          "type": "bytes32"
        },
        {
          "name": "",
          "type": "uint256"
        },
        {
          "name": "",
          "type": "uint256"
        }
      ],
      "name": "submittedHashes",
      "outputs": [
        {
          "name": "",
          "type": "address"
        }
      ],
      "payable": false,
      "stateMutability": "view",
      "type": "function"
    },
    {
      "inputs": [],
      "payable": false,
      "stateMutability": "nonpayable",
      "type": "constructor"
    },
    {
      "constant": true,
      "inputs": [
        {
          "name": "submitter",
          "type": "address"
        },
        {
          "name": "entryIndex",
          "type": "uint256"
        },
        {
          "name": "newHash",
          "type": "bytes32"
        }
      ],
      "name": "getEntryHash",
      "outputs": [
        {
          "name": "",
          "type": "bytes32"
        }
      ],
      "payable": false,
      "stateMutability": "pure",
      "type": "function"
    },
    {
      "constant": false,
      "inputs": [],
      "name": "resetWindow",
      "outputs": [],
      "payable": false,
      "stateMutability": "nonpayable",
      "type": "function"
    },
    {
      "constant": false,
      "inputs": [
        {
          "name": "newHash",
          "type": "bytes32"
        },
        {
          "name": "nNodes",
          "type": "uint256"
        },
        {
          "name": "entryIndex",
          "type": "uint256"
        }
      ],
      "name": "submitRootHash",
      "outputs": [],
      "payable": false,
      "stateMutability": "nonpayable",
      "type": "function"
    },
    {
      "constant": false,
      "inputs": [
        {
          "name": "roundNumber",
          "type": "uint256"
        }
      ],
      "name": "confirmNewHash",
      "outputs": [],
      "payable": false,
      "stateMutability": "nonpayable",
      "type": "function"
    },
    {
      "constant": false,
      "inputs": [
        {
          "name": "round",
          "type": "uint256"
        },
        {
          "name": "idx",
          "type": "uint256"
        }
      ],
      "name": "invalidateHash",
      "outputs": [],
      "payable": false,
      "stateMutability": "nonpayable",
      "type": "function"
    },
    {
      "constant": false,
      "inputs": [
        {
          "name": "round",
          "type": "uint256"
        },
        {
          "name": "idx",
          "type": "uint256"
        },
        {
          "name": "jhIntermediateValue",
          "type": "bytes"
        },
        {
          "name": "branchMask",
          "type": "uint256"
        },
        {
          "name": "siblings",
          "type": "bytes32[]"
        }
      ],
      "name": "respondToBinarySearchForChallenge",
      "outputs": [],
      "payable": false,
      "stateMutability": "nonpayable",
      "type": "function"
    },
    {
      "constant": false,
      "inputs": [
        {
          "name": "u",
          "type": "uint256[9]"
        },
        {
          "name": "_reputationKey",
          "type": "bytes"
        },
        {
          "name": "reputationSiblings",
          "type": "bytes32[]"
        },
        {
          "name": "agreeStateReputationValue",
          "type": "bytes"
        },
        {
          "name": "agreeStateSiblings",
          "type": "bytes32[]"
        },
        {
          "name": "disagreeStateReputationValue",
          "type": "bytes"
        },
        {
          "name": "disagreeStateSiblings",
          "type": "bytes32[]"
        },
        {
          "name": "previousNewReputationKey",
          "type": "bytes"
        },
        {
          "name": "previousNewReputationValue",
          "type": "bytes"
        },
        {
          "name": "previousNewReputationSiblings",
          "type": "bytes32[]"
        }
      ],
      "name": "respondToChallenge",
      "outputs": [],
      "payable": false,
      "stateMutability": "nonpayable",
      "type": "function"
    },
    {
      "constant": false,
      "inputs": [
        {
          "name": "round",
          "type": "uint256"
        },
        {
          "name": "index",
          "type": "uint256"
        },
        {
          "name": "jrh",
          "type": "bytes32"
        },
        {
          "name": "branchMask1",
          "type": "uint256"
        },
        {
          "name": "siblings1",
          "type": "bytes32[]"
        },
        {
          "name": "branchMask2",
          "type": "uint256"
        },
        {
          "name": "siblings2",
          "type": "bytes32[]"
        }
      ],
      "name": "submitJustificationRootHash",
      "outputs": [],
      "payable": false,
      "stateMutability": "nonpayable",
      "type": "function"
    },
    {
      "constant": false,
      "inputs": [
        {
          "name": "_user",
          "type": "address"
        },
        {
          "name": "_amount",
          "type": "int256"
        },
        {
          "name": "_skillId",
          "type": "uint256"
        },
        {
          "name": "_colonyAddress",
          "type": "address"
        },
        {
          "name": "_nParents",
          "type": "uint256"
        },
        {
          "name": "_nChildren",
          "type": "uint256"
        }
      ],
      "name": "appendReputationUpdateLog",
      "outputs": [],
      "payable": false,
      "stateMutability": "nonpayable",
      "type": "function"
    },
    {
      "constant": true,
      "inputs": [],
      "name": "getReputationUpdateLogLength",
      "outputs": [
        {
          "name": "",
          "type": "uint256"
        }
      ],
      "payable": false,
      "stateMutability": "view",
      "type": "function"
    },
    {
      "constant": true,
      "inputs": [
        {
          "name": "_id",
          "type": "uint256"
        }
      ],
      "name": "getReputationUpdateLogEntry",
      "outputs": [
        {
          "name": "",
          "type": "address"
        },
        {
          "name": "",
          "type": "int256"
        },
        {
          "name": "",
          "type": "uint256"
        },
        {
          "name": "",
          "type": "address"
        },
        {
          "name": "",
          "type": "uint256"
        },
        {
          "name": "",
          "type": "uint256"
        }
      ],
      "payable": false,
      "stateMutability": "view",
      "type": "function"
    },
    {
      "constant": false,
      "inputs": [
        {
          "name": "stakers",
          "type": "address[]"
        },
        {
          "name": "commonColonyAddress",
          "type": "address"
        },
        {
          "name": "reward",
          "type": "uint256"
        }
      ],
      "name": "rewardStakersWithReputation",
      "outputs": [],
      "payable": false,
      "stateMutability": "nonpayable",
      "type": "function"
    }
  ],
  "bytecode": "0x60806040526000600755600060085534801561001a57600080fd5b5060018054600160a060020a031916331790556136728061003c6000396000f3006080604052600436106100ed5763ffffffff60e060020a60003504166302952d2881146100f25780631bafc37314610112578063277830501461012a5780633150c0a214610163578063477e3ed8146101785780634c0348ee146101ad57806362837555146101c25780637e5912d7146102285780637f8b94781461029f5780638976597714610376578063938270641461038b57806395c974321461042b5780639deca9ee14610440578063b4f153101461045b578063c28ec9d714610476578063e084d1ea146106d5578063f07e5d81146106ea578063f5ddff9214610791578063faa458f4146107ee575b600080fd5b3480156100fe57600080fd5b50610110600435602435604435610828565b005b34801561011e57600080fd5b50610110600435610ef8565b34801561013657600080fd5b50610151600160a060020a0360043516602435604435611062565b60408051918252519081900360200190f35b34801561016f57600080fd5b5061011061110d565b34801561018457600080fd5b50610110600160a060020a0360043581169060243590604435906064351660843560a43561112a565b3480156101b957600080fd5b50610151611320565b3480156101ce57600080fd5b50604080516020600480358082013583810280860185019096528085526101109536959394602494938501929182918501908490808284375094975050508335600160a060020a0316945050506020909101359050611326565b34801561023457600080fd5b50610249600160a060020a0360043516611439565b604080519b8c5260208c019a909a528a8a019890985260608a0196909652608089019490945260a088019290925260c087015260e086015261010085015261012084015261014083015251908190036101600190f35b3480156102ab57600080fd5b506040805160206004803580820135601f810184900484028501840190955284845261015194369492936024939284019190819084018382808284375050604080516020601f89358b018035918201839004830284018301909452808352979a99988101979196509182019450925082915084018382808284375050604080516020808901358a01803580830284810184018652818552999c8b359c909b909a9501985092965081019450909250829190850190849080828437509497506114939650505050505050565b34801561038257600080fd5b50610151611700565b34801561039757600080fd5b50604080516020600460443581810135601f810184900484028501840190955284845261011094823594602480359536959460649492019190819084018382808284375050604080516020808901358a01803580830284810184018652818552999c8b359c909b909a9501985092965081019450909250829190850190849080828437509497506117069650505050505050565b34801561043757600080fd5b50610151611924565b34801561044c57600080fd5b5061024960043560243561192a565b34801561046757600080fd5b506101106004356024356119a0565b34801561048257600080fd5b50604080516101208181019092526101109136916004916101249190839060099083908390808284375050604080516020601f88358a01803591820183900483028401830190945280835296999897810196919550918201935091508190840183828082843750506040805187358901803560208181028481018201909552818452989b9a99890198929750908201955093508392508501908490808284375050604080516020601f89358b018035918201839004830284018301909452808352979a999881019791965091820194509250829150840183828082843750506040805187358901803560208181028481018201909552818452989b9a99890198929750908201955093508392508501908490808284375050604080516020601f89358b018035918201839004830284018301909452808352979a999881019791965091820194509250829150840183828082843750506040805187358901803560208181028481018201909552818452989b9a99890198929750908201955093508392508501908490808284375050604080516020601f89358b018035918201839004830284018301909452808352979a99988101979196509182019450925082915084018382808284375050604080516020601f89358b018035918201839004830284018301909452808352979a999881019791965091820194509250829150840183828082843750506040805187358901803560208181028481018201909552818452989b9a9989019892975090820195509350839250850190849080828437509497506121ad9650505050505050565b3480156106e157600080fd5b5061015161230f565b3480156106f657600080fd5b50604080516020600460843581810135838102808601850190965280855261011095833595602480359660443596606435963696919560a49594909101928291908501908490808284375050604080516020808901358a01803580830284810184018652818552999c8b359c909b909a9501985092965081019450909250829190850190849080828437509497506123159650505050505050565b34801561079d57600080fd5b506107a9600435612479565b60408051600160a060020a039788168152602081019690965285810194909452919094166060840152608083019390935260a082019290925290519081900360c00190f35b3480156107fa57600080fd5b5061080c6004356024356044356124e1565b60408051600160a060020a039092168252519081900360200190f35b600154604080517f3a02a42d000000000000000000000000000000000000000000000000000000008152336004820152905185928592859266038d7ea4c6800092600160a060020a031691633a02a42d916024808301926020929190829003018186803b15801561089857600080fd5b505afa1580156108ac573d6000803e3d6000fd5b505050506040513d60208110156108c257600080fd5b50518115156108cd57fe5b048111156108da57600080fd5b600081116108e757600080fd5b33600090815260036020526040902054156109645733600090815260036020526040902054831461091757600080fd5b33600090815260036020526040902060010154821461093557600080fd5b6000838152600960209081526040808320338452825280832084845290915290205460ff161561096457600080fd5b8584600080600060045411151561097a57600080fd5b610e1060045442031115156109c95750506004547e123456789abcdf0123456789abcdf0123456789abcdf0123456789abcdf0129042038102806109bf338587611062565b106109c957600080fd5b60008a81526002602090815260408083208c8452909152902054600c116109ef57600080fd5b60008a81526002602090815260408083208c84529091529020541515610cfb5760078054600190810182556005602090815260408051610160810182528e81529182018d81526000918301828152606084018381526080850184815260a0860185815260c0870186815260e0880187815261010089018881526101208a018981526101408b018a81527f05b8ccbb9d4d8fb16ea74ce3c29a41f1b461fbdaff4714a0d9a8eb05499746bc80549d8e018155909a5299517fd08c889a2b804c67887cd70e57ff036e6bc341281711f6587c117607d171d093600b909c029b8c015596517fd08c889a2b804c67887cd70e57ff036e6bc341281711f6587c117607d171d0948b015594517fd08c889a2b804c67887cd70e57ff036e6bc341281711f6587c117607d171d0958a015592517fd08c889a2b804c67887cd70e57ff036e6bc341281711f6587c117607d171d09689015590517fd08c889a2b804c67887cd70e57ff036e6bc341281711f6587c117607d171d097880155517fd08c889a2b804c67887cd70e57ff036e6bc341281711f6587c117607d171d098870155517fd08c889a2b804c67887cd70e57ff036e6bc341281711f6587c117607d171d099860155517fd08c889a2b804c67887cd70e57ff036e6bc341281711f6587c117607d171d09a850155517fd08c889a2b804c67887cd70e57ff036e6bc341281711f6587c117607d171d09b84015590517fd08c889a2b804c67887cd70e57ff036e6bc341281711f6587c117607d171d09c830155517fd08c889a2b804c67887cd70e57ff036e6bc341281711f6587c117607d171d09d9091015554600290061515610cfb576000805260056020526007547f05b8ccbb9d4d8fb16ea74ce3c29a41f1b461fbdaff4714a0d9a8eb05499746bc8054429260001901908110610c9057fe5b600091825260208083206002600b9093020191909101929092558052600590526007547f05b8ccbb9d4d8fb16ea74ce3c29a41f1b461fbdaff4714a0d9a8eb05499746bc8054429260011901908110610ce557fe5b90600052602060002090600b0201600201819055505b610160604051908101604052808b6000191681526020018a81526020016000815260200160008152602001600060010260001916815260200160006001026000191681526020016000815260200160008152602001600081526020016000815260200160008152506003600033600160a060020a0316600160a060020a03168152602001908152602001600020600082015181600001906000191690556020820151816001015560408201518160020155606082015181600301556080820151816004019060001916905560a0820151816005019060001916905560c0820151816006015560e082015181600701556101008201518160080155610120820151816009015561014082015181600a0155905050600260008b6000191660001916815260200190815260200160002060008a81526020019081526020016000203390806001815401808255809150509060018203906000526020600020016000909192909190916101000a815481600160a060020a030219169083600160a060020a03160217905550506001600960008c60001916600019168152602001908152602001600020600033600160a060020a0316600160a060020a0316815260200190815260200160002060008a815260200190815260200160002060006101000a81548160ff02191690831515021790555050505050505050505050565b600081600854600754036001141515610f1057600080fd5b600081815260056020526040902054600114610f2b57600080fd5b600083815260056020526040812080549091908110610f4657fe5b6000918252602080832060018054600b9094029091018054918101548286526002845260408087208288529094529483902092517f743ed4310000000000000000000000000000000000000000000000000000000081526004810183815260248201879052606060448301908152855460648401819052939950600160a060020a039096169663743ed43196949590949093919290916084909101908490801561101957602002820191906000526020600020905b8154600160a060020a03168152600190910190602001808311610ffb575b5050945050505050600060405180830381600087803b15801561103b57600080fd5b505af115801561104f573d6000803e3d6000fd5b5050600154600160a060020a0316915050ff5b604080516c01000000000000000000000000600160a060020a03861602602080830191909152603482018590526054808301859052835180840390910181526074909201928390528151600093918291908401908083835b602083106110d95780518252601f1990920191602091820191016110ba565b5181516020939093036101000a60001901801990911692169190911790526040519201829003909120979650505050505050565b600154600160a060020a0316331461112457600080fd5b42600455565b60015460009081908190600160a060020a0316331461114857600080fd5b6000805493509150818311156111a45760008054600019850190811061116a57fe5b90600052602060002090600602016004015460006001850381548110151561118e57fe5b9060005260206000209060060201600501540191505b506002600185010260008812156111bb5760028402015b6040805160c081018252600160a060020a039a8b16815260208101998a52908101978852958916606087019081526080870191825260a0870192835260008054600181018255908052965160069097027f290decd9548b62a8d60345a988386fc84ba6bc95484008f6362f93160ef3e56381018054988c1673ffffffffffffffffffffffffffffffffffffffff19998a1617905598517f290decd9548b62a8d60345a988386fc84ba6bc95484008f6362f93160ef3e5648a015596517f290decd9548b62a8d60345a988386fc84ba6bc95484008f6362f93160ef3e56589015595517f290decd9548b62a8d60345a988386fc84ba6bc95484008f6362f93160ef3e5668801805491909916951694909417909655505090517f290decd9548b62a8d60345a988386fc84ba6bc95484008f6362f93160ef3e567830155517f290decd9548b62a8d60345a988386fc84ba6bc95484008f6362f93160ef3e5689091015550565b60085481565b600080541561133457600080fd5b600154600160a060020a0316331461134b57600080fd5b5060005b835181101561143357600060c060405190810160405280868481518110151561137457fe5b6020908102909101810151600160a060020a03908116835282820187905260006040808501829052898316606080870191909152600460808088018290528a820260a098890152895460018181018c559a8652948790208951600690960201805495871673ffffffffffffffffffffffffffffffffffffffff1996871617815596890151878b0155928801516002870155908701516003860180549190951693169290921790925590840151908201559101516005909101550161134f565b50505050565b600360205280600052604060002060009150905080600001549080600101549080600201549080600301549080600401549080600501549080600601549080600701549080600801549080600901549080600a015490508b565b600061149d6135f4565b6114a561360b565b60008060006114b261362b565b60408051908101604052808c6040518082805190602001908083835b602083106114ed5780518252601f1990920191602091820191016114ce565b6001836020036101000a03801982511681845116808217855250505050505090500191505060405180910390206000191681526020016101008152509550896040518082805190602001908083835b6020831061155b5780518252601f19909201916020918201910161153c565b5181516020939093036101000a600019018019909116921691909117905260405192018290039091208852506000955050505b88156116e15761159d89612525565b60ff1692508260019060020a0219891698506115c58360ff038761257e90919063ffffffff16565b602087018190529096506115d8906125f2565b602087015291506115e885612659565b8183600281106115f457fe5b6020020152875188908581036000190190811061160d57fe5b90602001906020020151818360010360028110151561162857fe5b6020908102919091019190915260408051839201908190839080838360005b8381101561165f578181015183820152602001611647565b505050509050019150506040516020818303038152906040526040518082805190602001908083835b602083106116a75780518252601f199092019160209182019101611688565b5181516020939093036101000a6000190180199091169216919091179052604051920182900390912088525050506001939093019261158e565b602085018690526116f185612659565b9b9a5050505050505050505050565b60005490565b6000858152600560205260408120805482916060918391908990811061172857fe5b90600052602060002090600b020160090154600560008b81526020019081526020016000208981548110151561175a57fe5b90600052602060002090600b0201600801541415151561177957600080fd5b6000898152600560205260409020805461182791908a90811061179857fe5b90600052602060002090600b0201600801546002611818600560008e81526020019081526020016000208c8154811015156117cf57fe5b90600052602060002090600b020160090154600560008f81526020019081526020016000208d81548110151561180157fe5b90600052602060002090600b0201600801546126f6565b81151561182157fe5b0461270c565b60008a81526005602052604090208054919550908990811061184557fe5b6000918252602091829020600b91909102016004015460408051838152808201909152909450908181016104008038833901905050915083602083015261188e82888888611493565b905082811461190d576040805160e560020a62461bcd02815260206004820152602560248201527f636f6c6f6e792d696e76616c69642d62696e6172792d7365617263682d72657360448201527f706f6e7365000000000000000000000000000000000000000000000000000000606482015290519081900360840190fd5b6119198989898761271c565b505050505050505050565b60075481565b60056020528160005260406000208181548110151561194557fe5b90600052602060002090600b02016000915091505080600001549080600101549080600201549080600301549080600401549080600501549080600601549080600701549080600801549080600901549080600a015490508b565b60008080600284066001146119b857836001016119bd565b600184035b6000868152600560205260409020549093506002900660011480156119ef575060008581526005602052604090205484145b15611ba157600019850160009081526005602090815260408083205460069092529091205414611a1e57600080fd5b600085815260056020526040902054600110611a3957600080fd5b600185016000908152600560205260408082208783529120805485908110611a5d57fe5b60009182526020808320845460018082018755958552828520600b94850290920180549490910290910192835580850154948301949094556002808501549083015560038085015490830155600480850154908301556005808501548184015560068086015490840155600780860154908401556008808601549084015560098086015490840155600a94850154949092019390935587825290915260409020805484908110611b0957fe5b60009182526020808320600b90920290910182815560018082018490556002808301859055600383018590556004830185905560058084018690556006808501879055600785018790556008850187905560098501879055600a9094018690558a86529284526040808620805484019055918a01855291909252912054925082061515611b9c57611b9c8560010161289b565b6121a6565b6000858152600560205260409020548310611bbb57600080fd5b6000858152600560205260409020805484908110611bd557fe5b60009182526020909120600b90910201541515611bf157600080fd5b6000858152600560205260409020805485908110611c0b57fe5b90600052602060002090600b0201600301546005600087815260200190815260200160002084815481101515611c3d57fe5b90600052602060002090600b02016003015410151515611c5c57600080fd5b6000858152600560205260409020805485908110611c7657fe5b90600052602060002090600b0201600a01546005600087815260200190815260200160002084815481101515611ca857fe5b90600052602060002090600b0201600a015410151515611cc757600080fd5b60008581526005602052604090208054610258919086908110611ce657fe5b90600052602060002090600b020160020154420310151515611d0757600080fd5b506000848152600560205260408120805485908110611d2257fe5b90600052602060002090600b0201600301546005600087815260200190815260200160002084815481101515611d5457fe5b90600052602060002090600b020160030154148015611dce57506000858152600560205260409020805485908110611d8857fe5b90600052602060002090600b0201600a01546005600087815260200190815260200160002084815481101515611dba57fe5b90600052602060002090600b0201600a0154145b15611dd7575060015b801515611f3d57600185016000908152600560205260408082208783529120805485908110611e0257fe5b60009182526020808320845460018082018755958552828520600b94850290920180549490910290910192835580850154948301949094556002808501549083015560038085015490830155600480850154908301556005808501548184015560068086015490840155600780860154908401556008808601549084015560098086015490840155600a94850154949092019390935587825290915260409020805484908110611eae57fe5b60009182526020808320600b90920290910182815560018082018490556002808301859055600383018590556004830185905560058084018690556006840186905560078401869055600880850187905560098501879055600a9094018690558354830190935590890184529152604090912054925082061515611f3857611f388560010161289b565b612070565b60088054600290810190915560015460008781526005602052604081208054600160a060020a0390931693635736b732939092919088908110611f7c57fe5b60009182526020808320600b90920290910154835282810193909352604091820181208a82526005909352908120805488908110611fb657fe5b90600052602060002090600b02016001015481526020019081526020016000206040518263ffffffff1660e060020a0281526004018080602001828103825283818154815260200191508054801561203757602002820191906000526020600020905b8154600160a060020a03168152600190910190602001808311612019575b505092505050600060405180830381600087803b15801561205757600080fd5b505af115801561206b573d6000803e3d6000fd5b505050505b60008581526006602090815260408083208054600290810190915560015460059093529083208054600160a060020a0390931693635736b73293909190899081106120b757fe5b60009182526020808320600b90920290910154835282810193909352604091820181208a825260059093529081208054899081106120f157fe5b90600052602060002090600b02016001015481526020019081526020016000206040518263ffffffff1660e060020a0281526004018080602001828103825283818154815260200191508054801561217257602002820191906000526020600020905b8154600160a060020a03168152600190910190602001808311612154575b505092505050600060405180830381600087803b15801561219257600080fd5b505af1158015611919573d6000803e3d6000fd5b5050505050565b89516020808c01516000838152600590925260409091208054829081106121d057fe5b90600052602060002090600b020160090154600560008481526020019081526020016000208281548110151561220257fe5b90600052602060002090600b02016008015414151561222057600080fd5b60006101008d01528b5160208d015161223a91908d6128c9565b6122478c8c8c8c8c6129f7565b6122548c8c8c8a8a612b76565b6122608c8a8987612cfd565b6101008c0151600114156122885761227e8c8c8c8c8c8a8a8a612dc7565b6122888c85612ed5565b8b5160009081526005602052604090206001908d826020020151815481106122ac57fe5b60009182526020808320600b929092029091016003018054939093019092558d51815260059091526040902042908d60016020020151815481106122ec57fe5b90600052602060002090600b020160020181905550505050505050505050505050565b60045481565b600087815260056020526040902080548790811061232f57fe5b600091825260209091206004600b9092020101541561234d57600080fd5b612358858585612f19565b61236587878785856130e7565b600087815260056020526040902080548691908890811061238257fe5b90600052602060002090600b020160040181600019169055504260056000898152602001908152602001600020878154811015156123bc57fe5b90600052602060002090600b020160020181905550600160056000898152602001908152602001600020878154811015156123f357fe5b600091825260208083206003600b9093020191909101805490930190925588815260059091526040902080548790811061242957fe5b90600052602060002090600b020160070154600560008981526020019081526020016000208781548110151561245b57fe5b90600052602060002090600b02016009018190555050505050505050565b6000806000806000806000808881548110151561249257fe5b6000918252602090912060069091020180546001820154600283015460038401546004850154600590950154600160a060020a039485169e939d50919b50929092169850919650945092505050565b60026020528260005260406000206020528160005260406000208181548110151561250857fe5b600091825260209091200154600160a060020a0316925083915050565b6000808083151561253557600080fd5b5082905060805b600160ff8216106125775760001960ff821660020a018216151561256a579182019160ff811660020a909104905b600260ff9091160461253c565b5050919050565b6125866135f4565b61258e6135f4565b836020015183111580156125a457506101008311155b15156125ac57fe5b602082018390528215156125c357600082526125d5565b835160ff84900360020a600119021682525b60208085015184900390820152925160029290920a909102825291565b60006125fc6135f4565b602083015160001061260d57600080fd5b50508051604080518082019091528251600202815260209283015160001901928101929092527f8000000000000000000000000000000000000000000000000000000000000000900491565b8051602080830151808201519051604080518085019590955284810192909252606080850191909152815180850390910181526080909301908190528251600093928291908401908083835b602083106126c45780518252601f1990920191602091820191016126a5565b5181516020939093036101000a6000190180199091169216919091179052604051920182900390912095945050505050565b8082038281111561270657600080fd5b92915050565b8082018281101561270657600080fd5b60008481526005602052604081208054829182914291908890811061273d57fe5b90600052602060002090600b0201600201819055506001600560008981526020019081526020016000208781548110151561277457fe5b90600052602060002090600b02016003016000828254019250508190555060208501519250604085015191508260056000898152602001908152602001600020878154811015156127c157fe5b600091825260208083206005600b90930201820193909355898252909152604090208054839190889081106127f257fe5b600091825260209091206006600b9092020101556002860660011461281a578560010161281f565b600186035b60008881526005602052604090208054919250908790811061283d57fe5b90600052602060002090600b020160030154600560008981526020019081526020016000208281548110151561286f57fe5b90600052602060002090600b02016003015414156128925761289287878661324d565b50505050505050565b6000818152600560205260409020546128b8826000198301613449565b6128c58260028303613449565b5050565b600060606000806000806001600560008b8152602001908152602001600020898154811015156128f557fe5b6000918252602091829020600b909102016008015460408051604880825260808201909252939091039850908201610900803883390190505050506014860151603487015160488801518896509194509092509050600082600160a060020a031660008781548110151561296557fe5b6000918252602090912060069091020154600160a060020a03161461298957600080fd5b83600160a060020a03166000878154811015156129a257fe5b6000918252602090912060036006909202010154600160a060020a0316146129c957600080fd5b816000878154811015156129d957fe5b90600052602060002090600602016002015414151561191957600080fd5b84516000908152600560205260408120819081908190606090819083908c6001602002015181548110612a2657fe5b60009182526020808320600b92909202909101600401548e518352600582526040909220908e015181549299506001928110612a5e57fe5b90600052602060002090600b02016008015403955060208901519450612a998b8a8e6002600981101515612a8e57fe5b60200201518d611493565b6040805181815260608101825291955060208201610800803883395050604080516020808252818301909252929550905080820161040080388339505050602084810186905260608e0151604086015281018790529150612b0382848e600460200201518b611493565b905084158015612b135750808714155b15612b1d57612b68565b808714612b2957600080fd5b8b5160009081526005602052604090206001908d82602002015181548110612b4d57fe5b600091825260209091206003600b9092020101805490910190555b505050505050505050505050565b8451600090815260056020526040812081908190606090819083908b6001602002015181548110612ba357fe5b60009182526020808320600b92909202909101600401548d518352600590915260409091209096508b6001602002015181548110612bdd57fe5b600091825260209091206008600b9092020101549450612c078a898d60025b60200201518c611493565b6040805181815260608101825291955060208201610800803883395050604080516020808252818301909252929550905080820161040080388339505050602084810186905260a08d0151604086015281018690529150612c7182848d600660200201518a611493565b9050858114612cf0576040805160e560020a62461bcd02815260206004820152602560248201527f636f6c6f6e792d696e76616c69642d61667465722d72657075746174696f6e2d60448201527f70726f6f66000000000000000000000000000000000000000000000000000000606482015290519081900360840190fd5b5050505050505050505050565b835160009081526005602052604081208190819081908190819081906001908c82602002015181548110612d2d57fe5b90600052602060002090600b02016008015403965060208a015194506020890151935060408a0151925060408901519150826000141515612d7957828214612d7457600080fd5b612d97565b506040870151600181018214612d8e57600080fd5b60016101008c01525b83600088815481101515612da757fe5b9060005260206000209060060201600101548601141515612cf057600080fd5b875160009081526005602052604081208190606090819083906001908e82602002015181548110612df457fe5b600091825260209091206008600b909202010154039450612e1e88888f6007602002015189611493565b6040805181815260608101825291955060208201610800803883395050604080516020808252818301909252929550905080820161040080388339505050602084810186905260608f0151604086015281018690529150612e8282848f6004612bfc565b8d5160009081526005602052604090209091508d6001602002015181548110612ea757fe5b600091825260209091206004600b9092020101548114612ec657600080fd5b50505050505050505050505050565b604081810151835160009081526005602052919091208190846001602002015181548110612eff57fe5b90600052602060002090600b0201600a0181905550505050565b6000806060806000600160009054906101000a9004600160a060020a0316600160a060020a03166397824c3f6040518163ffffffff1660e060020a02815260040160206040518083038186803b158015612f7257600080fd5b505afa158015612f86573d6000803e3d6000fd5b505050506040513d6020811015612f9c57600080fd5b5051600154604080517f7680150d0000000000000000000000000000000000000000000000000000000081529051929750600160a060020a0390911691637680150d91600480820192602092909190829003018186803b158015612fff57600080fd5b505afa158015613013573d6000803e3d6000fd5b505050506040513d602081101561302957600080fd5b5051604080518181526060810182529195506020820161080080388339505060408051602080825281830190925292955090508082016104008038833901905050915084602084015283604084015261308482848989611493565b90508781146130dd576040805160e560020a62461bcd02815260206004820152601a60248201527f636f6c6f6e792d696e76616c69642d6a72682d70726f6f662d31000000000000604482015290519081900360640190fd5b5050505050505050565b6000805460408051602080825281830190925291926060929091829184918391908082016104008038833950505060008c8152600560205260409020805491965060018801918c90811061313757fe5b90600052602060002090600b020160070181905550600560008c81526020019081526020016000208a81548110151561316c57fe5b90600052602060002090600b0201600001549350600560008c81526020019081526020016000208a8154811015156131a057fe5b600091825260209091206001600b909202010154604080518181526060810182529194508160200160208202803883390190505091508360208301528260408301528560208601526131f485838a8a611493565b9050888114612cf0576040805160e560020a62461bcd02815260206004820152601a60248201527f636f6c6f6e792d696e76616c69642d6a72682d70726f6f662d32000000000000604482015290519081900360640190fd5b6000600283066001146132635782600101613268565b600183035b60008581526005602052604090208054919250908490811061328657fe5b600091825260208083206005600b9093020182015487845291905260409091208054839081106132b257fe5b90600052602060002090600b02016005015460001916148015613330575060008481526005602052604090208054849081106132ea57fe5b90600052602060002090600b020160060154600560008681526020019081526020016000208281548110151561331c57fe5b90600052602060002090600b020160060154145b156133a857600084815260056020526040902080546001840191908590811061335557fe5b90600052602060002090600b02016008018190555081600101600560008681526020019081526020016000208281548110151561338e57fe5b90600052602060002090600b020160080181905550613411565b60008481526005602052604090208054839190859081106133c557fe5b90600052602060002090600b0201600901819055508160056000868152602001908152602001600020828154811015156133fb57fe5b90600052602060002090600b0201600901819055505b600084815260056020526040902080544291908390811061342e57fe5b90600052602060002090600b02016002018190555050505050565b600082815260056020526040902080544291908390811061346657fe5b90600052602060002090600b020160020181905550600560008381526020019081526020016000208181548110151561349b57fe5b90600052602060002090600b02016007015460056000848152602001908152602001600020828154811015156134cd57fe5b90600052602060002090600b0201600901819055506000600560008481526020019081526020016000208281548110151561350457fe5b90600052602060002090600b0201600801819055506000600560008481526020019081526020016000208281548110151561353b57fe5b90600052602060002090600b0201600a0181905550600560008381526020019081526020016000208181548110151561357057fe5b600091825260209091206004600b909202010154156135c1576000828152600560205260409020805460019190839081106135a757fe5b90600052602060002090600b0201600301819055506128c5565b60008281526005602052604081208054839081106135db57fe5b90600052602060002090600b0201600301819055505050565b604080518082019091526000808252602082015290565b604080516060810190915260008152602081016136266135f4565b905290565b604080518082018252906002908290803883395091929150505600a165627a7a723058202e5495e9c685a6ba6d84c02a30c3d6b0ae6537929c4e36d3c05bed35baee91b70029",
  "source": "/*\n  This file is part of The Colony Network.\n\n  The Colony Network is free software: you can redistribute it and/or modify\n  it under the terms of the GNU General Public License as published by\n  the Free Software Foundation, either version 3 of the License, or\n  (at your option) any later version.\n\n  The Colony Network is distributed in the hope that it will be useful,\n  but WITHOUT ANY WARRANTY; without even the implied warranty of\n  MERCHANTABILITY or FITNESS FOR A PARTICULAR PURPOSE.  See the\n  GNU General Public License for more details.\n\n  You should have received a copy of the GNU General Public License\n  along with The Colony Network. If not, see <http://www.gnu.org/licenses/>.\n*/\n\npragma solidity ^0.4.23;\npragma experimental \"v0.5.0\";\n\nimport \"../lib/dappsys/math.sol\";\nimport \"./IColonyNetwork.sol\";\nimport \"./PatriciaTree/PatriciaTreeProofs.sol\";\n\n\n// TODO: Can we handle all possible disputes regarding the very first hash that should be set?\n// Currently, at the very least, we can't handle a dispute if the very first entry is disputed.\n// A possible workaround would be to 'kick off' reputation mining with a known dummy state...\ncontract ReputationMiningCycle is PatriciaTreeProofs, DSMath {\n  ReputationLogEntry[] reputationUpdateLog;\n  struct ReputationLogEntry {\n    address user;\n    int amount;\n    uint256 skillId;\n    address colony;\n    uint256 nUpdates;\n    uint256 nPreviousUpdates;\n  }\n  address colonyNetworkAddress;\n  // TODO: Do we need both these mappings?\n  mapping (bytes32 => mapping( uint256 => address[])) public submittedHashes;\n  mapping (address => Submission) public reputationHashSubmissions;\n  uint256 public reputationMiningWindowOpenTimestamp;\n  mapping (uint256 => Submission[]) public disputeRounds;\n\n  // Tracks the number of submissions in each round that have completed their challenge, one way or the other.\n  // This might be that they passed the challenge, it might be that their opponent passed (and therefore by implication,\n  // they failed), or it might be that they timed out\n  mapping (uint256 => uint256) nHashesCompletedChallengeRound;\n  // A flaw with this is that if someone spams lots of nonsense transactions, then 'good' users still have to come along and\n  // explicitly complete the pairings. But if they get the tokens that were staked in order to make the submission, maybe\n  // that's okay...?\n\n  // Number of unique hashes submitted\n  uint256 public nSubmittedHashes = 0;\n  uint256 public nInvalidatedHashes = 0;\n\n  struct Submission {\n    bytes32 proposedNewRootHash;          // The hash that the submitter is proposing as the next reputation hash\n    uint256 nNodes;                       // The number of nodes in the reputation tree being proposed as the next reputation hash\n    uint256 lastResponseTimestamp;        // If nonzero, the last time that a valid response was received corresponding to this\n                                          // submission during the challenge process - either binary searching for the challenge,\n                                          // responding to the challenge itself or submitting the JRH\n    uint256 challengeStepCompleted;       // How many valid responses have been received corresponding to this submission during\n                                          // the challenge process.\n    bytes32 jrh;                          // The Justification Root Hash corresponding to this submission.\n    bytes32 intermediateReputationHash;   // The hash this submission hash has as a leaf node in the tree the JRH is the root of where\n                                          // this submission and its opponent differ for the first time.\n    uint256 intermediateReputationNNodes; // The number of nodes in the reputation tree in the reputation state where this submission and\n                                          // its opponent first differ.\n    uint256 jrhNnodes;                    // The number of nodes in the tree the JRH is the root of.\n    uint256 lowerBound;                   // During the binary search, the lowest index in the justification tree that might still be the\n                                          // first place where the two submissions differ.\n    uint256 upperBound;                   // During the binary search, the highest index in the justification tree that might still be the\n                                          // first place where the two submissions differ.\n                                          // When the binary search is complete, lowerBound and upperBound are equal\n    uint256 provedPreviousReputationUID;  // If the disagreement between this submission and its opponent is related to the insertion of a\n                                          // new leaf, the submitters also submit proof of a reputation in a state that the two agree on. The\n                                          // UID that reputation has is stored here, and whichever submission proves the higher existing UID is\n                                          // deemed correct, assuming it also matches the UID for the new reputation being inserted.\n  }\n\n  // Records for which hashes, for which addresses, for which entries have been accepted\n  // Otherwise, people could keep submitting the same entry.\n  mapping (bytes32 => mapping(address => mapping(uint256 => bool))) submittedEntries;\n\n  /// @notice A modifier that checks that the supplied `roundNumber` is the final round\n  /// @param roundNumber The `roundNumber` to check if it is the final round\n  modifier finalDisputeRoundCompleted(uint roundNumber) {\n    require (nSubmittedHashes - nInvalidatedHashes == 1);\n    require (disputeRounds[roundNumber].length == 1); //i.e. this is the final round\n    // Note that even if we are passed the penultimate round, which had a length of two, and had one eliminated,\n    // and therefore 'delete' called in `invalidateHash`, the array still has a length of '2' - it's just that one\n    // element is zeroed. If this functionality of 'delete' is ever changed, this will have to change too.\n    _;\n  }\n\n  /// @notice A modifier that checks if the challenge corresponding to the hash in the passed `round` and `id` is open\n  /// @param round The round number of the hash under consideration\n  /// @param idx The index in the round of the hash under consideration\n  modifier challengeOpen(uint256 round, uint256 idx) {\n    // TODO: More checks that this is an appropriate time to respondToChallenge\n    require(disputeRounds[round][idx].lowerBound == disputeRounds[round][idx].upperBound);\n    _;\n  }\n\n  /// @notice A modifier that checks if the proposed entry is eligible. The more CLNY a user stakes, the more\n  /// potential entries they have in a reputation mining cycle. This is effectively restricting the nonce range\n  /// that is allowable from a given user when searching for a submission that will pass `withinTarget`. A user\n  /// is allowed to use multiple entries in a single cycle, but each entry can only be used once per cycle, and\n  /// if there are multiple entries they must all be for the same proposed Reputation State Root Hash with the\n  /// same number of nodes.\n  /// @param newHash The hash being submitted\n  /// @param nNodes The number of nodes in the reputation tree that `newHash` is the root hash of\n  /// @param entryIndex The number of the entry the submitter hash asked us to consider.\n  modifier entryQualifies(bytes32 newHash, uint256 nNodes, uint256 entryIndex) {\n    // TODO: Require minimum stake, that is (much) more than the cost required to defend the valid submission.\n    // Here, the minimum stake is 10**15.\n    require(entryIndex <= IColonyNetwork(colonyNetworkAddress).getStakedBalance(msg.sender) / 10**15);\n    require(entryIndex > 0);\n    if (reputationHashSubmissions[msg.sender].proposedNewRootHash != 0x0) {                // If this user has submitted before during this round...\n      require(newHash == reputationHashSubmissions[msg.sender].proposedNewRootHash);       // ...require that they are submitting the same hash ...\n      require(nNodes == reputationHashSubmissions[msg.sender].nNodes);      // ...require that they are submitting the same number of nodes for that hash ...\n      require (submittedEntries[newHash][msg.sender][entryIndex] == false); // ... but not this exact entry\n    }\n    _;\n  }\n\n  /// @notice A modifier that checks if the proposed entry is within the current allowable submission window\n  /// @dev A submission will only be accepted from a reputation miner if `keccak256(address, N, hash) < target`\n  /// At the beginning of the submission window, the target is set to 0 and slowly increases to 2^256 - 1 after an hour\n  modifier withinTarget(bytes32 newHash, uint256 entryIndex) {\n    require(reputationMiningWindowOpenTimestamp > 0);\n    // Check the ticket is a winning one.\n    // TODO Figure out how to uncomment the next line, but not break tests sporadically.\n    // require((now-reputationMiningWindowOpenTimestamp) <= 3600);\n    // x = floor(uint((2**256 - 1) / 3600)\n    if (now - reputationMiningWindowOpenTimestamp <= 3600) {\n      uint256 x = 32164469232587832062103051391302196625908329073789045566515995557753647122;\n      uint256 target = (now - reputationMiningWindowOpenTimestamp ) * x;\n      require(uint256(getEntryHash(msg.sender, entryIndex, newHash)) < target);\n    }\n    _;\n  }\n\n  function getEntryHash(address submitter, uint256 entryIndex, bytes32 newHash) public pure returns (bytes32) {\n    return keccak256(abi.encodePacked(submitter, entryIndex, newHash));\n  }\n\n  /// @notice Constructor for this contract.\n  constructor() public {\n    colonyNetworkAddress = msg.sender;\n  }\n\n  function resetWindow() public {\n    require(msg.sender == colonyNetworkAddress);\n    reputationMiningWindowOpenTimestamp = now;\n  }\n\n  function submitRootHash(bytes32 newHash, uint256 nNodes, uint256 entryIndex)\n  entryQualifies(newHash, nNodes, entryIndex)\n  withinTarget(newHash, entryIndex)\n  public\n  {\n    // Limit the total number of miners allowed to submit a specific hash to 12\n    require (submittedHashes[newHash][nNodes].length < 12);\n\n    // If this is a new hash, increment nSubmittedHashes as such.\n    if (submittedHashes[newHash][nNodes].length == 0) {\n      nSubmittedHashes += 1;\n      // And add it to the first disputeRound\n      // NB if no other hash is submitted, no dispute resolution will be required.\n      disputeRounds[0].push(Submission({\n        proposedNewRootHash: newHash,\n        jrh: 0x0,\n        nNodes: nNodes,\n        lastResponseTimestamp: 0,\n        challengeStepCompleted: 0,\n        lowerBound: 0,\n        upperBound: 0,\n        jrhNnodes: 0,\n        intermediateReputationHash: 0x0,\n        intermediateReputationNNodes: 0,\n        provedPreviousReputationUID: 0\n      }));\n      // If we've got a pair of submissions to face off, may as well start now.\n      if (nSubmittedHashes % 2 == 0) {\n        disputeRounds[0][nSubmittedHashes-1].lastResponseTimestamp = now;\n        disputeRounds[0][nSubmittedHashes-2].lastResponseTimestamp = now;\n        /* disputeRounds[0][nSubmittedHashes-1].upperBound = disputeRounds[0][nSubmittedHashes-1].jrhNnodes; */\n        /* disputeRounds[0][nSubmittedHashes-2].upperBound = disputeRounds[0][nSubmittedHashes-2].jrhNnodes; */\n      }\n    }\n\n    reputationHashSubmissions[msg.sender] = Submission({\n      proposedNewRootHash: newHash,\n      jrh: 0x0,\n      nNodes: nNodes,\n      lastResponseTimestamp: 0,\n      challengeStepCompleted: 0,\n      lowerBound: 0,\n      upperBound: 0,\n      jrhNnodes: 0,\n      intermediateReputationHash: 0x0,\n      intermediateReputationNNodes: 0,\n      provedPreviousReputationUID: 0\n    });\n    // And add the miner to the array list of submissions here\n    submittedHashes[newHash][nNodes].push(msg.sender);\n    // Note that they submitted it.\n    submittedEntries[newHash][msg.sender][entryIndex] = true;\n  }\n\n  function confirmNewHash(uint256 roundNumber) public\n  finalDisputeRoundCompleted(roundNumber)\n  {\n    // TODO: Require some amount of time to have passed (i.e. people have had a chance to submit other hashes)\n    Submission storage submission = disputeRounds[roundNumber][0];\n    IColonyNetwork(colonyNetworkAddress).setReputationRootHash(submission.proposedNewRootHash, submission.nNodes, submittedHashes[submission.proposedNewRootHash][submission.nNodes]);\n    selfdestruct(colonyNetworkAddress);\n  }\n\n  function invalidateHash(uint256 round, uint256 idx) public {\n    // What we do depends on our opponent, so work out which index it was at in disputeRounds[round]\n    uint256 opponentIdx = (idx % 2 == 1 ? idx-1 : idx + 1);\n    uint256 nInNextRound;\n\n    // We require either\n    // 1. That we actually had an opponent - can't invalidate the last hash.\n    // 2. This cycle had an odd number of submissions, which was larger than 1, and we're giving the last entry a bye to the next round.\n    if (disputeRounds[round].length % 2 == 1 && disputeRounds[round].length == idx) {\n      // This is option two above - note that because arrays are zero-indexed, if idx==length, then\n      // this is the slot after the last entry, and so our opponentIdx will be the last entry\n      // We just move the opponent on, and nothing else happens.\n\n      // Ensure that the previous round is complete, and this entry wouldn't possibly get an opponent later on.\n      require(nHashesCompletedChallengeRound[round-1] == disputeRounds[round-1].length);\n\n      // Prevent us invalidating the final hash\n      require(disputeRounds[round].length > 1);\n      // Move opponent on to next round\n      disputeRounds[round+1].push(disputeRounds[round][opponentIdx]);\n      delete disputeRounds[round][opponentIdx];\n\n      // Note the fact that this round has had another challenge complete\n      nHashesCompletedChallengeRound[round] += 1;\n      // Check if the hash we just moved to the next round is the second of a pairing that should now face off.\n      nInNextRound = disputeRounds[round+1].length;\n\n      if (nInNextRound % 2 == 0) {\n        startPairingInRound(round+1);\n      }\n    } else {\n      require(disputeRounds[round].length > opponentIdx);\n      require(disputeRounds[round][opponentIdx].proposedNewRootHash != \"\");\n\n      // Require that this is not better than its opponent.\n      require(disputeRounds[round][opponentIdx].challengeStepCompleted >= disputeRounds[round][idx].challengeStepCompleted);\n      require(disputeRounds[round][opponentIdx].provedPreviousReputationUID >= disputeRounds[round][idx].provedPreviousReputationUID);\n\n      // Require that it has failed a challenge (i.e. failed to respond in time)\n      require(now - disputeRounds[round][idx].lastResponseTimestamp >= 600); //'In time' is ten minutes here.\n\n      // Work out whether we are invalidating just the supplied idx or its opponent too.\n      bool eliminateOpponent = false;\n      if (disputeRounds[round][opponentIdx].challengeStepCompleted == disputeRounds[round][idx].challengeStepCompleted &&\n      disputeRounds[round][opponentIdx].provedPreviousReputationUID == disputeRounds[round][idx].provedPreviousReputationUID) {\n        eliminateOpponent = true;\n      }\n\n      if (!eliminateOpponent) {\n        // If here, then the opponent completed one more challenge round than the submission being invalidated or\n        // proved a later UID was in the tree, so we don't know if they're valid or not yet. Move them on to the next round.\n        disputeRounds[round+1].push(disputeRounds[round][opponentIdx]);\n        delete disputeRounds[round][opponentIdx];\n        // TODO Delete the hash(es) being invalidated?\n        nInvalidatedHashes += 1;\n        // Check if the hash we just moved to the next round is the second of a pairing that should now face off.\n        nInNextRound = disputeRounds[round+1].length;\n        if (nInNextRound % 2 == 0) {\n          startPairingInRound(round+1);\n        }\n      } else {\n        // Our opponent completed the same number of challenge rounds, and both have now timed out.\n        nInvalidatedHashes += 2;\n        // Punish the people who proposed our opponent\n        IColonyNetwork(colonyNetworkAddress).punishStakers(submittedHashes[disputeRounds[round][opponentIdx].proposedNewRootHash][disputeRounds[round][opponentIdx].nNodes]);\n      }\n\n      // Note that two hashes have completed this challenge round (either one accepted for now and one rejected, or two rejected)\n      nHashesCompletedChallengeRound[round] += 2;\n\n      // Punish the people who proposed the hash that was rejected\n      IColonyNetwork(colonyNetworkAddress).punishStakers(submittedHashes[disputeRounds[round][idx].proposedNewRootHash][disputeRounds[round][idx].nNodes]);\n    }\n    //TODO: Can we do some deleting to make calling this as cheap as possible for people?\n  }\n\n  function respondToBinarySearchForChallenge(uint256 round, uint256 idx, bytes jhIntermediateValue, uint branchMask, bytes32[] siblings) public {\n    // TODO: Check this challenge is active.\n    // This require is necessary, but not a sufficient check (need to check we have an opponent, at least).\n    require(disputeRounds[round][idx].lowerBound!=disputeRounds[round][idx].upperBound);\n\n    uint256 targetNode = add(disputeRounds[round][idx].lowerBound, sub(disputeRounds[round][idx].upperBound, disputeRounds[round][idx].lowerBound) / 2);\n    bytes32 jrh = disputeRounds[round][idx].jrh;\n\n    bytes memory targetNodeBytes = new bytes(32);\n    assembly {\n      mstore(add(targetNodeBytes, 0x20), targetNode)\n    }\n\n    bytes32 impliedRoot = getImpliedRoot(targetNodeBytes, jhIntermediateValue, branchMask, siblings);\n    require(impliedRoot==jrh, \"colony-invalid-binary-search-response\");\n    // If require hasn't thrown, proof is correct.\n    // Process the consequences\n    processBinaryChallengeSearchResponse(round, idx, jhIntermediateValue, targetNode);\n  }\n\n  uint constant U_ROUND = 0;\n  uint constant U_IDX = 1;\n  uint constant U_REPUTATION_BRANCH_MASK = 2;\n  uint constant U_AGREE_STATE_NNODES = 3;\n  uint constant U_AGREE_STATE_BRANCH_MASK = 4;\n  uint constant U_DISAGREE_STATE_NNODES = 5;\n  uint constant U_DISAGREE_STATE_BRANCH_MASK = 6;\n  uint constant U_PREVIOUS_NEW_REPUTATION_BRANCH_MASK = 7;\n  uint constant U_REQUIRE_REPUTATION_CHECK = 8;\n\n  function respondToChallenge(\n    uint256[9] u, //An array of 9 UINT Params, ordered as given above.\n    bytes _reputationKey,\n    bytes32[] reputationSiblings,\n    bytes agreeStateReputationValue,\n    bytes32[] agreeStateSiblings,\n    bytes disagreeStateReputationValue,\n    bytes32[] disagreeStateSiblings,\n    bytes previousNewReputationKey,\n    bytes previousNewReputationValue,\n    bytes32[] previousNewReputationSiblings\n  ) public\n    challengeOpen(u[U_ROUND], u[U_IDX])\n  {\n    u[U_REQUIRE_REPUTATION_CHECK] = 0;\n    // TODO: More checks that this is an appropriate time to respondToChallenge (maybe in modifier);\n    /* bytes32 jrh = disputeRounds[round][idx].jrh; */\n    // The contract knows\n    // 1. the jrh for this submission\n    // 2. The first index where this submission and its opponent differ.\n    // Need to prove\n    // 1. The reputation that is updated that we disagree on's value, before the first index\n    //    where we differ, and in the first index where we differ.\n    // 2. That no other changes are made to the reputation state. The proof for those\n    //    two reputations in (1) is therefore required to be the same.\n    // 3. That our 'after' value is correct. This is done by doing the calculation on-chain, perhaps\n    //    after looking up the corresponding entry in the reputation update log (the alternative is\n    //    that it's a decay calculation - not yet implemented.)\n\n    // Check the supplied key is appropriate.\n    checkKey(u[U_ROUND], u[U_IDX], _reputationKey);\n\n    // Prove the reputation's starting value is in some state, and that state is in the appropriate index in our JRH\n    proveBeforeReputationValue(u, _reputationKey, reputationSiblings, agreeStateReputationValue, agreeStateSiblings);\n\n    // Prove the reputation's final value is in a particular state, and that state is in our JRH in the appropriate index (corresponding to the first disagreement between these miners)\n    // By using the same branchMask and siblings, we know that no other changes to the reputation state tree have been slipped in.\n    proveAfterReputationValue(u, _reputationKey, reputationSiblings, disagreeStateReputationValue, disagreeStateSiblings);\n\n    // Perform the reputation calculation ourselves.\n    performReputationCalculation(u, agreeStateReputationValue, disagreeStateReputationValue, previousNewReputationValue);\n\n    // If necessary, check the supplied previousNewRepuation is, in fact, in the same reputation state as the agreeState\n    if (u[U_REQUIRE_REPUTATION_CHECK]==1) {\n      checkPreviousReputationInState(\n        u,\n        _reputationKey,\n        reputationSiblings,\n        agreeStateReputationValue,\n        agreeStateSiblings,\n        previousNewReputationKey,\n        previousNewReputationValue,\n        previousNewReputationSiblings);\n      saveProvedReputation(u, previousNewReputationValue);\n    }\n\n    // If everthing checked out, note that we've responded to the challenge.\n    disputeRounds[u[U_ROUND]][u[U_IDX]].challengeStepCompleted += 1;\n    disputeRounds[u[U_ROUND]][u[U_IDX]].lastResponseTimestamp = now;\n\n    // Safety net?\n    /* if (disputeRounds[round][idx].challengeStepCompleted==disputeRounds[round][opponentIdx].challengeStepCompleted){\n      // Freeze the reputation mining system.\n    } */\n\n  }\n\n  function submitJustificationRootHash(\n    uint256 round,\n    uint256 index,\n    bytes32 jrh,\n    uint branchMask1,\n    bytes32[] siblings1,\n    uint branchMask2,\n    bytes32[] siblings2\n  ) public\n  {\n    // Require we've not submitted already.\n    require(disputeRounds[round][index].jrh == 0x0);\n\n    // Check the proofs for the JRH\n    checkJRHProof1(jrh, branchMask1, siblings1);\n    checkJRHProof2(round, index, jrh, branchMask2, siblings2);\n\n    // Store their JRH\n    disputeRounds[round][index].jrh = jrh;\n    disputeRounds[round][index].lastResponseTimestamp = now;\n    disputeRounds[round][index].challengeStepCompleted += 1;\n\n    // Set bounds for first binary search if it's going to be needed\n    disputeRounds[round][index].upperBound = disputeRounds[round][index].jrhNnodes;\n  }\n\n  function appendReputationUpdateLog(address _user, int _amount, uint _skillId, address _colonyAddress, uint _nParents, uint _nChildren) public {\n    require(colonyNetworkAddress == msg.sender);\n    uint reputationUpdateLogLength = reputationUpdateLog.length;\n    uint nPreviousUpdates = 0;\n    if (reputationUpdateLogLength > 0) {\n      nPreviousUpdates = reputationUpdateLog[reputationUpdateLogLength-1].nPreviousUpdates + reputationUpdateLog[reputationUpdateLogLength-1].nUpdates;\n    }\n    uint nUpdates = (_nParents + 1) * 2;\n    if (_amount < 0) {\n      //TODO: Never true currently. _amount needs to be an int.\n      nUpdates += 2 * _nChildren;\n    }\n    reputationUpdateLog.push(ReputationLogEntry(\n      _user,\n      _amount,\n      _skillId,\n      _colonyAddress,\n      nUpdates,\n      nPreviousUpdates));\n  }\n\n  function getReputationUpdateLogLength() public view returns (uint) {\n    return reputationUpdateLog.length;\n  }\n\n  function getReputationUpdateLogEntry(uint256 _id) public view returns (address, int256, uint256, address, uint256, uint256) {\n    ReputationLogEntry storage x = reputationUpdateLog[_id];\n    return (x.user, x.amount, x.skillId, x.colony, x.nUpdates, x.nPreviousUpdates);\n  }\n\n  function rewardStakersWithReputation(address[] stakers, address commonColonyAddress, uint reward) public {\n    require(reputationUpdateLog.length==0);\n    require(msg.sender == colonyNetworkAddress);\n    for (uint256 i = 0; i < stakers.length; i++) {\n      // We *know* we're the first entries in this reputation update log, so we don't need all the bookkeeping in\n      // the AppendReputationUpdateLog function\n      reputationUpdateLog.push(ReputationLogEntry(\n        stakers[i],\n        int256(reward),\n        0, //TODO: Work out what skill this should be. This should be a special 'mining' skill.\n        commonColonyAddress, // They earn this reputation in the common colony.\n        4, // Updates the user's skill, and the colony's skill, both globally and for the special 'mining' skill\n        i*4 //We're zero indexed, so this is the number of updates that came before in the reputation log.\n      ));\n    }\n  }\n\n  /////////////////////////\n  // Internal functions\n  /////////////////////////\n\n  function processBinaryChallengeSearchResponse(uint256 round, uint256 idx, bytes jhIntermediateValue, uint256 targetNode) internal {\n    disputeRounds[round][idx].lastResponseTimestamp = now;\n    disputeRounds[round][idx].challengeStepCompleted += 1;\n    // Save our intermediate hash\n    bytes32 intermediateReputationHash;\n    uint256 intermediateReputationNNodes;\n    assembly {\n      intermediateReputationHash := mload(add(jhIntermediateValue, 0x20))\n      intermediateReputationNNodes := mload(add(jhIntermediateValue, 0x40))\n    }\n    disputeRounds[round][idx].intermediateReputationHash = intermediateReputationHash;\n    disputeRounds[round][idx].intermediateReputationNNodes = intermediateReputationNNodes;\n\n    uint256 opponentIdx = (idx % 2 == 1 ? idx-1 : idx + 1);\n    if (disputeRounds[round][opponentIdx].challengeStepCompleted == disputeRounds[round][idx].challengeStepCompleted ) {\n      // Our opponent answered this challenge already.\n      // Compare our intermediateReputationHash to theirs to establish how to move the bounds.\n      processBinaryChallengeSearchStep(round, idx, targetNode);\n    }\n  }\n\n  function processBinaryChallengeSearchStep(uint256 round, uint256 idx, uint256 targetNode) internal {\n    uint256 opponentIdx = (idx % 2 == 1 ? idx-1 : idx + 1);\n    if (\n      disputeRounds[round][opponentIdx].intermediateReputationHash == disputeRounds[round][idx].intermediateReputationHash &&\n      disputeRounds[round][opponentIdx].intermediateReputationNNodes == disputeRounds[round][idx].intermediateReputationNNodes\n      )\n    {\n      disputeRounds[round][idx].lowerBound = targetNode + 1;\n      disputeRounds[round][opponentIdx].lowerBound = targetNode + 1;\n    } else {\n      // NB no '-1' to mirror the '+1' above in the other bound, because\n      // we're looking for the first index where these two submissions differ\n      // in their calculations - they disagreed for this index, so this might\n      // be the first index they disagree about\n      disputeRounds[round][idx].upperBound = targetNode;\n      disputeRounds[round][opponentIdx].upperBound = targetNode;\n    }\n    // We need to keep the intermediate hashes so that we can figure out what type of dispute we are resolving later\n    // If the number of nodes in the reputation state are different, then we are disagreeing on whether this log entry\n    // corresponds to an existing reputation entry or not.\n    // If the hashes are different, then it's a calculation error.\n\n    // Our opponent responded to this step of the challenge before we did, so we should\n    // reset their 'last response' time to now, as they aren't able to respond\n    // to the next challenge before they know what it is!\n    disputeRounds[round][opponentIdx].lastResponseTimestamp = now;\n  }\n\n  function checkKey( uint256 round, uint256 idx, bytes memory _reputationKey) internal {\n    // If the state transition we're checking is less than the number of nodes in the currently accepted state, it's a decay transition (TODO: not implemented)\n    // Otherwise, look up the corresponding entry in the reputation log.\n    uint256 updateNumber = disputeRounds[round][idx].lowerBound - 1;\n    bytes memory reputationKey = new bytes(20+32+20);\n    reputationKey = _reputationKey;\n    address colonyAddress;\n    address userAddress;\n    uint256 skillId;\n    assembly {\n        colonyAddress := mload(add(reputationKey,20)) // 20, not 32, because we're copying in to a slot that will be interpreted as an address.\n                                              // which will truncate the leftmost 12 bytes\n        skillId := mload(add(reputationKey, 52))\n        userAddress := mload(add(reputationKey,72))   // 72, not 84, for the same reason as above. Is this being too clever? I don't think there are\n                                              // any unintended side effects here, but I'm not quite confortable enough with EVM's stack to be sure.\n                                              // Not sure what the alternative would be anyway.\n    }\n    bool decayCalculation = false;\n    if (decayCalculation) {\n    } else {\n      require(reputationUpdateLog[updateNumber].user == userAddress);\n      require(reputationUpdateLog[updateNumber].colony == colonyAddress);\n      require(reputationUpdateLog[updateNumber].skillId == skillId);\n    }\n  }\n\n  function proveBeforeReputationValue(uint256[9] u, bytes _reputationKey, bytes32[] reputationSiblings, bytes agreeStateReputationValue, bytes32[] agreeStateSiblings) internal {\n    bytes32 jrh = disputeRounds[u[U_ROUND]][u[U_IDX]].jrh;\n    uint256 lastAgreeIdx = disputeRounds[u[U_ROUND]][u[U_IDX]].lowerBound - 1; // We binary searched to the first disagreement, so the last agreement is the one before.\n    uint256 reputationValue;\n    assembly {\n        reputationValue := mload(add(agreeStateReputationValue, 32))\n    }\n\n    bytes32 reputationRootHash = getImpliedRoot(_reputationKey, agreeStateReputationValue, u[U_REPUTATION_BRANCH_MASK], reputationSiblings);\n    bytes memory jhLeafValue = new bytes(64);\n    bytes memory lastAgreeIdxBytes = new bytes(32);\n    assembly {\n      mstore(add(jhLeafValue, 0x20), reputationRootHash)\n      let x := mload(add(u, mul(32,3))) // 3 = U_AGREE_STATE_NNODES. Constants not supported by inline solidity\n      mstore(add(jhLeafValue, 0x40), x)\n      mstore(add(lastAgreeIdxBytes, 0x20), lastAgreeIdx)\n    }\n    // Prove that state is in our JRH, in the index corresponding to the last state that the two submissions\n    // agree on.\n    bytes32 impliedRoot = getImpliedRoot(lastAgreeIdxBytes, jhLeafValue, u[U_AGREE_STATE_BRANCH_MASK], agreeStateSiblings);\n\n    if (reputationValue == 0 && impliedRoot != jrh) {\n      // This implies they are claiming that this is a new hash.\n      return;\n    }\n    require(impliedRoot == jrh);\n    // They've actually verified whatever they claimed. We increment their challengeStepCompleted by one to indicate this.\n    // In the event that our opponent lied about this reputation not existing yet in the tree, they will both complete\n    // a call to respondToChallenge, but we will have a higher challengeStepCompleted value, and so they will be the ones\n    // eliminated.\n    disputeRounds[u[U_ROUND]][u[U_IDX]].challengeStepCompleted += 1;\n    // I think this trick can be used exactly once, and only because this is the last function to be called in the challege,\n    // and I'm choosing to use it here. I *think* this is okay, because the only situation\n    // where we don't prove anything with merkle proofs in this whole dance is here.\n  }\n\n  function proveAfterReputationValue(uint256[9] u, bytes _reputationKey, bytes32[] reputationSiblings, bytes disagreeStateReputationValue, bytes32[] disagreeStateSiblings) internal {\n    bytes32 jrh = disputeRounds[u[U_ROUND]][u[U_IDX]].jrh;\n    uint256 firstDisagreeIdx = disputeRounds[u[U_ROUND]][u[U_IDX]].lowerBound;\n    bytes32 reputationRootHash = getImpliedRoot(_reputationKey, disagreeStateReputationValue, u[U_REPUTATION_BRANCH_MASK], reputationSiblings);\n    // Prove that state is in our JRH, in the index corresponding to the last state that the two submissions\n    // agree on.\n    bytes memory jhLeafValue = new bytes(64);\n    bytes memory firstDisagreeIdxBytes = new bytes(32);\n\n    assembly {\n      mstore(add(jhLeafValue, 0x20), reputationRootHash)\n      let x := mload(add(u, mul(32,5))) // 5 = U_DISAGREE_STATE_NNODES. Constants not supported by inline solidity.\n      mstore(add(jhLeafValue, 0x40), x)\n      mstore(add(firstDisagreeIdxBytes, 0x20), firstDisagreeIdx)\n    }\n\n    bytes32 impliedRoot = getImpliedRoot(firstDisagreeIdxBytes, jhLeafValue, u[U_DISAGREE_STATE_BRANCH_MASK], disagreeStateSiblings);\n    require(jrh==impliedRoot, \"colony-invalid-after-reputation-proof\");\n  }\n\n  function performReputationCalculation(uint256[9] u, bytes agreeStateReputationValueBytes, bytes disagreeStateReputationValueBytes, bytes previousNewReputationValueBytes) internal {\n    // TODO: Possibility of decay calculation\n    uint reputationTransitionIdx = disputeRounds[u[U_ROUND]][u[U_IDX]].lowerBound - 1;\n    int256 amount;\n    uint256 agreeStateReputationValue;\n    uint256 disagreeStateReputationValue;\n    uint256 agreeStateReputationUID;\n    uint256 disagreeStateReputationUID;\n\n    assembly {\n        agreeStateReputationValue := mload(add(agreeStateReputationValueBytes, 32))\n        disagreeStateReputationValue := mload(add(disagreeStateReputationValueBytes, 32))\n        agreeStateReputationUID := mload(add(agreeStateReputationValueBytes, 64))\n        disagreeStateReputationUID := mload(add(disagreeStateReputationValueBytes, 64))\n    }\n\n    if (agreeStateReputationUID != 0) {\n      // i.e. if this was an existing reputation, then require that the ID hasn't changed.\n      // TODO: Situation where it is not an existing reputation\n      require(agreeStateReputationUID==disagreeStateReputationUID);\n    } else {\n      uint256 previousNewReputationUID;\n      assembly {\n        previousNewReputationUID := mload(add(previousNewReputationValueBytes, 64))\n      }\n      require(previousNewReputationUID+1 == disagreeStateReputationUID);\n      // Flag that we need to check that the reputation they supplied is in the 'agree' state.\n      // This feels like it might be being a bit clever, using this array to pass a 'return' value out of\n      // this function, without adding a new variable to the stack in the parent function...\n      u[U_REQUIRE_REPUTATION_CHECK] = 1;\n    }\n\n    // TODO: Is this safe? I think so, because even if there's over/underflows, they should\n    // still be the same number.\n    require(int(agreeStateReputationValue)+reputationUpdateLog[reputationTransitionIdx].amount == int(disagreeStateReputationValue));\n  }\n\n  function checkPreviousReputationInState(\n    uint256[9] u,\n    bytes _reputationKey,\n    bytes32[] reputationSiblings,\n    bytes agreeStateReputationValue,\n    bytes32[] agreeStateSiblings,\n    bytes previousNewReputationKey,\n    bytes previousNewReputationValue,\n    bytes32[] previousNewReputationSiblings)\n  internal\n  {\n    uint256 lastAgreeIdx = disputeRounds[u[U_ROUND]][u[U_IDX]].lowerBound - 1; // We binary searched to the first disagreement, so the last agreement is the one before\n\n    bytes32 reputationRootHash = getImpliedRoot(previousNewReputationKey, previousNewReputationValue, u[U_PREVIOUS_NEW_REPUTATION_BRANCH_MASK], previousNewReputationSiblings);\n    bytes memory jhLeafValue = new bytes(64);\n    bytes memory lastAgreeIdxBytes = new bytes(32);\n    assembly {\n      mstore(add(jhLeafValue, 0x20), reputationRootHash)\n      let x := mload(add(u, mul(32,3))) // 3 = U_AGREE_STATE_NNODES. Constants not supported by inline assembly\n      mstore(add(jhLeafValue, 0x40), x)\n      mstore(add(lastAgreeIdxBytes, 0x20), lastAgreeIdx)\n    }\n    // Prove that state is in our JRH, in the index corresponding to the last state that the two submissions agree on\n    bytes32 impliedRoot = getImpliedRoot(lastAgreeIdxBytes, jhLeafValue, u[U_AGREE_STATE_BRANCH_MASK], agreeStateSiblings);\n    require(impliedRoot == disputeRounds[u[U_ROUND]][u[U_IDX]].jrh);\n  }\n\n  function saveProvedReputation(uint256[9] u, bytes previousNewReputationValue) internal {\n    uint256 previousReputationUID;\n    assembly {\n      previousReputationUID := mload(add(previousNewReputationValue,0x40))\n    }\n    // Save the index for tiebreak scenarios later.\n    disputeRounds[u[U_ROUND]][u[U_IDX]].provedPreviousReputationUID = previousReputationUID;\n  }\n\n  function checkJRHProof1(bytes32 jrh, uint branchMask1, bytes32[] siblings1) internal {\n    // Proof 1 needs to prove that they started with the current reputation root hash\n    bytes32 reputationRootHash = IColonyNetwork(colonyNetworkAddress).getReputationRootHash();\n    uint256 reputationRootHashNNodes = IColonyNetwork(colonyNetworkAddress).getReputationRootHashNNodes();\n    bytes memory jhLeafValue = new bytes(64);\n    bytes memory zero = new bytes(32);\n    assembly {\n      mstore(add(jhLeafValue, 0x20), reputationRootHash)\n      mstore(add(jhLeafValue, 0x40), reputationRootHashNNodes)\n    }\n    bytes32 impliedRoot = getImpliedRoot(zero, jhLeafValue, branchMask1, siblings1);\n    require(jrh==impliedRoot, \"colony-invalid-jrh-proof-1\");\n  }\n\n  function checkJRHProof2(uint round, uint index, bytes32 jrh, uint branchMask2, bytes32[] siblings2) internal {\n    // Proof 2 needs to prove that they finished with the reputation root hash they submitted, and the\n    // key is the number of updates in the reputation update log (implemented)\n    // plus the number of nodes in the last accepted update, each of which will have decayed once (not implemented)\n    // TODO: Account for decay calculations\n    uint256 nUpdates = reputationUpdateLog.length;\n    bytes memory nUpdatesBytes = new bytes(32);\n    disputeRounds[round][index].jrhNnodes = nUpdates + 1;\n    bytes32 submittedHash = disputeRounds[round][index].proposedNewRootHash;\n    uint256 submittedHashNNodes = disputeRounds[round][index].nNodes;\n    bytes memory jhLeafValue = new bytes(64);\n    assembly {\n      mstore(add(jhLeafValue, 0x20), submittedHash)\n      mstore(add(jhLeafValue, 0x40), submittedHashNNodes)\n      mstore(add(nUpdatesBytes, 0x20), nUpdates)\n    }\n    bytes32 impliedRoot = getImpliedRoot(nUpdatesBytes, jhLeafValue, branchMask2, siblings2);\n    require(jrh==impliedRoot, \"colony-invalid-jrh-proof-2\");\n\n  }\n\n  function startMemberOfPair(uint256 roundNumber, uint256 index) internal {\n    disputeRounds[roundNumber][index].lastResponseTimestamp = now;\n    disputeRounds[roundNumber][index].upperBound = disputeRounds[roundNumber][index].jrhNnodes;\n    disputeRounds[roundNumber][index].lowerBound = 0;\n    disputeRounds[roundNumber][index].provedPreviousReputationUID = 0;\n    if (disputeRounds[roundNumber][index].jrh != 0x0) {\n      // If this submission has a JRH, we give ourselves credit for it in the next round - it's possible\n      // that a submission got a bye without submitting a JRH, which will not have this starting '1'.\n      disputeRounds[roundNumber][index].challengeStepCompleted = 1;\n    } else {\n      disputeRounds[roundNumber][index].challengeStepCompleted = 0;\n    }\n  }\n\n  function startPairingInRound(uint256 roundNumber) internal {\n    uint256 nInRound = disputeRounds[roundNumber].length;\n    startMemberOfPair(roundNumber, nInRound-1);\n    startMemberOfPair(roundNumber, nInRound-2);\n  }\n}\n",
  "sourcePath": "/root/intuition-machine/colonyNetwork/contracts/ReputationMiningCycle.sol",
  "compiler": {
    "name": "solc",
    "version": "0.4.24+commit.e67f0147.Emscripten.clang"
  },
  "schemaVersion": "2.0.0",
  "updatedAt": "2018-06-20T09:03:18.831Z"
}