{
  "contractName": "Resolver",
  "abi": [
    {
      "constant": false,
      "inputs": [
        {
          "name": "owner_",
          "type": "address"
        }
      ],
      "name": "setOwner",
      "outputs": [],
      "payable": false,
      "stateMutability": "nonpayable",
      "type": "function"
    },
    {
      "constant": false,
      "inputs": [
        {
          "name": "authority_",
          "type": "address"
        }
      ],
      "name": "setAuthority",
      "outputs": [],
      "payable": false,
      "stateMutability": "nonpayable",
      "type": "function"
    },
    {
      "constant": true,
      "inputs": [],
      "name": "owner",
      "outputs": [
        {
          "name": "",
          "type": "address"
        }
      ],
      "payable": false,
      "stateMutability": "view",
      "type": "function"
    },
    {
      "constant": true,
      "inputs": [
        {
          "name": "",
          "type": "bytes4"
        }
      ],
      "name": "pointers",
      "outputs": [
        {
          "name": "",
          "type": "address"
        }
      ],
      "payable": false,
      "stateMutability": "view",
      "type": "function"
    },
    {
      "constant": true,
      "inputs": [],
      "name": "authority",
      "outputs": [
        {
          "name": "",
          "type": "address"
        }
      ],
      "payable": false,
      "stateMutability": "view",
      "type": "function"
    },
    {
      "anonymous": false,
      "inputs": [
        {
          "indexed": true,
          "name": "authority",
          "type": "address"
        }
      ],
      "name": "LogSetAuthority",
      "type": "event"
    },
    {
      "anonymous": false,
      "inputs": [
        {
          "indexed": true,
          "name": "owner",
          "type": "address"
        }
      ],
      "name": "LogSetOwner",
      "type": "event"
    },
    {
      "constant": false,
      "inputs": [
        {
          "name": "signature",
          "type": "string"
        },
        {
          "name": "destination",
          "type": "address"
        }
      ],
      "name": "register",
      "outputs": [],
      "payable": false,
      "stateMutability": "nonpayable",
      "type": "function"
    },
    {
      "constant": true,
      "inputs": [
        {
          "name": "sig",
          "type": "bytes4"
        }
      ],
      "name": "lookup",
      "outputs": [
        {
          "name": "",
          "type": "address"
        }
      ],
      "payable": false,
      "stateMutability": "view",
      "type": "function"
    },
    {
      "constant": true,
      "inputs": [
        {
          "name": "signature",
          "type": "string"
        }
      ],
      "name": "stringToSig",
      "outputs": [
        {
          "name": "",
          "type": "bytes4"
        }
      ],
      "payable": false,
      "stateMutability": "pure",
      "type": "function"
    }
  ],
  "bytecode": "0x6080604081905260018054600160a060020a03191633908117909155907fce241d7ca1f669fee44b6fc00b8eba2df3bb514eed0f6f668f8f89096e81ed9490600090a2610602806100516000396000f30060806040526004361061008d5763ffffffff7c010000000000000000000000000000000000000000000000000000000060003504166313af403581146100925780631e59c529146100b55780636f68e8d2146101195780637a9e5e4b146101575780637c34752f146101785780638da5cb5b146101ee578063b5d7ccc314610203578063bf7e214f14610225575b600080fd5b34801561009e57600080fd5b506100b3600160a060020a036004351661023a565b005b3480156100c157600080fd5b506040805160206004803580820135601f81018490048402850184019095528484526100b394369492936024939284019190819084018382808284375094975050509235600160a060020a031693506102b892505050565b34801561012557600080fd5b5061013b600160e060020a031960043516610330565b60408051600160a060020a039092168252519081900360200190f35b34801561016357600080fd5b506100b3600160a060020a0360043516610355565b34801561018457600080fd5b506040805160206004803580820135601f81018490048402850184019095528484526101d19436949293602493928401919081908401838280828437509497506103cf9650505050505050565b60408051600160e060020a03199092168252519081900360200190f35b3480156101fa57600080fd5b5061013b610499565b34801561020f57600080fd5b5061013b600160e060020a0319600435166104a8565b34801561023157600080fd5b5061013b6104c3565b61025033600035600160e060020a0319166104d2565b151561025b57600080fd5b6001805473ffffffffffffffffffffffffffffffffffffffff1916600160a060020a0383811691909117918290556040519116907fce241d7ca1f669fee44b6fc00b8eba2df3bb514eed0f6f668f8f89096e81ed9490600090a250565b6102ce33600035600160e060020a0319166104d2565b15156102d957600080fd5b80600260006102e7856103cf565b600160e060020a03191681526020810191909152604001600020805473ffffffffffffffffffffffffffffffffffffffff1916600160a060020a03929092169190911790555050565b600160e060020a031916600090815260026020526040902054600160a060020a031690565b61036b33600035600160e060020a0319166104d2565b151561037657600080fd5b6000805473ffffffffffffffffffffffffffffffffffffffff1916600160a060020a03838116919091178083556040519116917f1abebea81bfa2637f28358c371278fb15ede7ea8dd28d2e03b112ff6d936ada491a250565b6000816040516020018082805190602001908083835b602083106104045780518252601f1990920191602091820191016103e5565b6001836020036101000a0380198251168184511680821785525050505050509050019150506040516020818303038152906040526040518082805190602001908083835b602083106104675780518252601f199092019160209182019101610448565b5181516020939093036101000a6000190180199091169216919091179052604051920182900390912095945050505050565b600154600160a060020a031681565b600260205260009081526040902054600160a060020a031681565b600054600160a060020a031681565b6000600160a060020a0383163014156104ed575060016105d0565b600154600160a060020a038481169116141561050b575060016105d0565b600054600160a060020a03161515610525575060006105d0565b600054604080517fb7009613000000000000000000000000000000000000000000000000000000008152600160a060020a038681166004830152306024830152600160e060020a0319861660448301529151919092169163b7009613916064808301926020929190829003018186803b1580156105a157600080fd5b505afa1580156105b5573d6000803e3d6000fd5b505050506040513d60208110156105cb57600080fd5b505190505b929150505600a165627a7a72305820ff9c5de16f4d86575f09465179122359daa855668b5ba95b66aa4f09e01467d10029",
  "source": "/*\n  This file is part of The Colony Network.\n\n  The Colony Network is free software: you can redistribute it and/or modify\n  it under the terms of the GNU General Public License as published by\n  the Free Software Foundation, either version 3 of the License, or\n  (at your option) any later version.\n\n  The Colony Network is distributed in the hope that it will be useful,\n  but WITHOUT ANY WARRANTY; without even the implied warranty of\n  MERCHANTABILITY or FITNESS FOR A PARTICULAR PURPOSE.  See the\n  GNU General Public License for more details.\n\n  You should have received a copy of the GNU General Public License\n  along with The Colony Network. If not, see <http://www.gnu.org/licenses/>.\n*/\n\npragma solidity ^0.4.23;\npragma experimental \"v0.5.0\";\n\nimport \"../lib/dappsys/auth.sol\";\n\n\ncontract Resolver is DSAuth {\n  mapping (bytes4 => address) public pointers;\n\n  function register(string signature, address destination) public\n  auth\n  {\n    pointers[stringToSig(signature)] = destination;\n  }\n\n  function lookup(bytes4 sig) public view returns(address) {\n    return pointers[sig];\n  }\n\n  function stringToSig(string signature) public pure returns(bytes4) {\n    return bytes4(keccak256(abi.encodePacked(signature)));\n  }\n}\n",
  "sourcePath": "/root/intuition-machine/colonyNetwork/contracts/Resolver.sol",
  "compiler": {
    "name": "solc",
    "version": "0.4.24+commit.e67f0147.Emscripten.clang"
  },
  "schemaVersion": "2.0.0",
  "updatedAt": "2018-06-20T09:03:26.435Z"
}