{
  "contractName": "SafeMath",
  "abi": [
    {
      "constant": true,
      "inputs": [
        {
          "name": "a",
          "type": "int256"
        },
        {
          "name": "b",
          "type": "int256"
        }
      ],
      "name": "safeToAddInt",
      "outputs": [
        {
          "name": "",
          "type": "bool"
        }
      ],
      "payable": false,
      "stateMutability": "pure",
      "type": "function"
    },
    {
      "constant": true,
      "inputs": [
        {
          "name": "a",
          "type": "int256"
        },
        {
          "name": "b",
          "type": "int256"
        }
      ],
      "name": "safeToSubInt",
      "outputs": [
        {
          "name": "",
          "type": "bool"
        }
      ],
      "payable": false,
      "stateMutability": "pure",
      "type": "function"
    },
    {
      "constant": true,
      "inputs": [
        {
          "name": "a",
          "type": "int256"
        },
        {
          "name": "b",
          "type": "int256"
        }
      ],
      "name": "safeToMulInt",
      "outputs": [
        {
          "name": "",
          "type": "bool"
        }
      ],
      "payable": false,
      "stateMutability": "pure",
      "type": "function"
    },
    {
      "constant": true,
      "inputs": [
        {
          "name": "a",
          "type": "int256"
        },
        {
          "name": "b",
          "type": "int256"
        }
      ],
      "name": "addInt",
      "outputs": [
        {
          "name": "",
          "type": "int256"
        }
      ],
      "payable": false,
      "stateMutability": "pure",
      "type": "function"
    },
    {
      "constant": true,
      "inputs": [
        {
          "name": "a",
          "type": "int256"
        },
        {
          "name": "b",
          "type": "int256"
        }
      ],
      "name": "subInt",
      "outputs": [
        {
          "name": "",
          "type": "int256"
        }
      ],
      "payable": false,
      "stateMutability": "pure",
      "type": "function"
    },
    {
      "constant": true,
      "inputs": [
        {
          "name": "a",
          "type": "int256"
        },
        {
          "name": "b",
          "type": "int256"
        }
      ],
      "name": "mulInt",
      "outputs": [
        {
          "name": "",
          "type": "int256"
        }
      ],
      "payable": false,
      "stateMutability": "pure",
      "type": "function"
    }
  ],
  "bytecode": "0x61020d610030600b82828239805160001a6073146000811461002057610022565bfe5b5030600052607381538281f300730000000000000000000000000000000000000000301460806040526004361061008e5763ffffffff7c01000000000000000000000000000000000000000000000000000000006000350416630dd11c7481146100935780631f0cd67b146100b35780631f49da09146100d55780634dad5d1e146100e357806395e0488c146100f1578063c7f62b91146100ff575b600080fd5b6100a160043560243561010d565b60408051918252519081900360200190f35b6100c1600435602435610129565b604080519115158252519081900360200190f35b6100c160043560243561015b565b6100a160043560243561017c565b6100c1600435602435610198565b6100a16004356024356101c4565b6000610119838361015b565b151561012457600080fd5b500290565b600080821215801561013d57508282840313155b806101545750600082128015610154575082828403135b9392505050565b60008115806101545750828283850281151561017357fe5b05149392505050565b60006101888383610198565b151561019357600080fd5b500190565b60008082121580156101ac57508282840112155b80610154575060008212801561015457505081011290565b60006101d08383610129565b15156101db57600080fd5b509003905600a165627a7a72305820bb9277cea2b4a6e27b78829e2d7de99504e162699a0aa8e1c8561909d28c3a970029",
  "source": "/*\n  This file is part of The Colony Network.\n\n  The Colony Network is free software: you can redistribute it and/or modify\n  it under the terms of the GNU General Public License as published by\n  the Free Software Foundation, either version 3 of the License, or\n  (at your option) any later version.\n\n  The Colony Network is distributed in the hope that it will be useful,\n  but WITHOUT ANY WARRANTY; without even the implied warranty of\n  MERCHANTABILITY or FITNESS FOR A PARTICULAR PURPOSE.  See the\n  GNU General Public License for more details.\n\n  You should have received a copy of the GNU General Public License\n  along with The Colony Network. If not, see <http://www.gnu.org/licenses/>.\n*/\n\npragma solidity ^0.4.23;\npragma experimental \"v0.5.0\";\n\n\nlibrary SafeMath {\n  function safeToAddInt(int a, int b) public pure returns (bool) {\n    return (b >= 0 && a + b >= a) || (b < 0 && a + b < a);\n  }\n\n  function safeToSubInt(int a, int b) public pure returns (bool) {\n    return (b >= 0 && a - b <= a) || (b < 0 && a - b > a);\n  }\n\n  function safeToMulInt(int a, int b) public pure returns (bool) {\n    return (b == 0) || (a * b / b == a);\n  }\n\n  function addInt(int a, int b) public pure returns (int) {\n    require(safeToAddInt(a, b));\n    return a + b;\n  }\n\n  function subInt(int a, int b) public pure returns (int) {\n    require(safeToSubInt(a, b));\n    return a - b;\n  }\n\n  function mulInt(int a, int b) public pure returns (int) {\n    require(safeToMulInt(a, b));\n    return a * b;\n  }\n}",
  "sourcePath": "/root/intuition-machine/colonyNetwork/contracts/SafeMath.sol",
  "compiler": {
    "name": "solc",
    "version": "0.4.24+commit.e67f0147.Emscripten.clang"
  },
  "schemaVersion": "2.0.0",
  "updatedAt": "2018-06-20T09:03:18.738Z"
}