{
  "contractName": "Token",
  "abi": [
    {
      "constant": true,
      "inputs": [],
      "name": "name",
      "outputs": [
        {
          "name": "",
          "type": "bytes32"
        }
      ],
      "payable": false,
      "stateMutability": "view",
      "type": "function"
    },
    {
      "constant": false,
      "inputs": [
        {
          "name": "guy",
          "type": "address"
        },
        {
          "name": "wad",
          "type": "uint256"
        }
      ],
      "name": "approve",
      "outputs": [
        {
          "name": "",
          "type": "bool"
        }
      ],
      "payable": false,
      "stateMutability": "nonpayable",
      "type": "function"
    },
    {
      "constant": false,
      "inputs": [
        {
          "name": "owner_",
          "type": "address"
        }
      ],
      "name": "setOwner",
      "outputs": [],
      "payable": false,
      "stateMutability": "nonpayable",
      "type": "function"
    },
    {
      "constant": true,
      "inputs": [],
      "name": "totalSupply",
      "outputs": [
        {
          "name": "",
          "type": "uint256"
        }
      ],
      "payable": false,
      "stateMutability": "view",
      "type": "function"
    },
    {
      "constant": false,
      "inputs": [
        {
          "name": "src",
          "type": "address"
        },
        {
          "name": "dst",
          "type": "address"
        },
        {
          "name": "wad",
          "type": "uint256"
        }
      ],
      "name": "transferFrom",
      "outputs": [
        {
          "name": "",
          "type": "bool"
        }
      ],
      "payable": false,
      "stateMutability": "nonpayable",
      "type": "function"
    },
    {
      "constant": true,
      "inputs": [],
      "name": "decimals",
      "outputs": [
        {
          "name": "",
          "type": "uint256"
        }
      ],
      "payable": false,
      "stateMutability": "view",
      "type": "function"
    },
    {
      "constant": true,
      "inputs": [
        {
          "name": "src",
          "type": "address"
        }
      ],
      "name": "balanceOf",
      "outputs": [
        {
          "name": "",
          "type": "uint256"
        }
      ],
      "payable": false,
      "stateMutability": "view",
      "type": "function"
    },
    {
      "constant": false,
      "inputs": [
        {
          "name": "authority_",
          "type": "address"
        }
      ],
      "name": "setAuthority",
      "outputs": [],
      "payable": false,
      "stateMutability": "nonpayable",
      "type": "function"
    },
    {
      "constant": true,
      "inputs": [],
      "name": "owner",
      "outputs": [
        {
          "name": "",
          "type": "address"
        }
      ],
      "payable": false,
      "stateMutability": "view",
      "type": "function"
    },
    {
      "constant": true,
      "inputs": [],
      "name": "symbol",
      "outputs": [
        {
          "name": "",
          "type": "bytes32"
        }
      ],
      "payable": false,
      "stateMutability": "view",
      "type": "function"
    },
    {
      "constant": false,
      "inputs": [
        {
          "name": "dst",
          "type": "address"
        },
        {
          "name": "wad",
          "type": "uint256"
        }
      ],
      "name": "transfer",
      "outputs": [
        {
          "name": "",
          "type": "bool"
        }
      ],
      "payable": false,
      "stateMutability": "nonpayable",
      "type": "function"
    },
    {
      "constant": true,
      "inputs": [],
      "name": "authority",
      "outputs": [
        {
          "name": "",
          "type": "address"
        }
      ],
      "payable": false,
      "stateMutability": "view",
      "type": "function"
    },
    {
      "constant": true,
      "inputs": [
        {
          "name": "src",
          "type": "address"
        },
        {
          "name": "guy",
          "type": "address"
        }
      ],
      "name": "allowance",
      "outputs": [
        {
          "name": "",
          "type": "uint256"
        }
      ],
      "payable": false,
      "stateMutability": "view",
      "type": "function"
    },
    {
      "inputs": [
        {
          "name": "_name",
          "type": "bytes32"
        },
        {
          "name": "_symbol",
          "type": "bytes32"
        },
        {
          "name": "_decimals",
          "type": "uint256"
        }
      ],
      "payable": false,
      "stateMutability": "nonpayable",
      "type": "constructor"
    },
    {
      "anonymous": false,
      "inputs": [
        {
          "indexed": true,
          "name": "guy",
          "type": "address"
        },
        {
          "indexed": false,
          "name": "wad",
          "type": "uint256"
        }
      ],
      "name": "Mint",
      "type": "event"
    },
    {
      "anonymous": false,
      "inputs": [
        {
          "indexed": true,
          "name": "guy",
          "type": "address"
        },
        {
          "indexed": false,
          "name": "wad",
          "type": "uint256"
        }
      ],
      "name": "Burn",
      "type": "event"
    },
    {
      "anonymous": false,
      "inputs": [
        {
          "indexed": true,
          "name": "authority",
          "type": "address"
        }
      ],
      "name": "LogSetAuthority",
      "type": "event"
    },
    {
      "anonymous": false,
      "inputs": [
        {
          "indexed": true,
          "name": "owner",
          "type": "address"
        }
      ],
      "name": "LogSetOwner",
      "type": "event"
    },
    {
      "anonymous": false,
      "inputs": [
        {
          "indexed": true,
          "name": "src",
          "type": "address"
        },
        {
          "indexed": true,
          "name": "guy",
          "type": "address"
        },
        {
          "indexed": false,
          "name": "wad",
          "type": "uint256"
        }
      ],
      "name": "Approval",
      "type": "event"
    },
    {
      "anonymous": false,
      "inputs": [
        {
          "indexed": true,
          "name": "src",
          "type": "address"
        },
        {
          "indexed": true,
          "name": "dst",
          "type": "address"
        },
        {
          "indexed": false,
          "name": "wad",
          "type": "uint256"
        }
      ],
      "name": "Transfer",
      "type": "event"
    },
    {
      "constant": false,
      "inputs": [
        {
          "name": "wad",
          "type": "uint256"
        }
      ],
      "name": "mint",
      "outputs": [],
      "payable": false,
      "stateMutability": "nonpayable",
      "type": "function"
    },
    {
      "constant": false,
      "inputs": [
        {
          "name": "wad",
          "type": "uint256"
        }
      ],
      "name": "burn",
      "outputs": [],
      "payable": false,
      "stateMutability": "nonpayable",
      "type": "function"
    }
  ],
  "bytecode": "0x608060405234801561001057600080fd5b506040516060806108c9833981016040818152825160208085015194830151336000818152600190935293822082905581805560048054600160a060020a031916851790559194939192917fce241d7ca1f669fee44b6fc00b8eba2df3bb514eed0f6f668f8f89096e81ed949190a260079290925560055560065561082f8061009a6000396000f3006080604052600436106100da5763ffffffff7c010000000000000000000000000000000000000000000000000000000060003504166306fdde0381146100df578063095ea7b31461010657806313af40351461013e57806318160ddd1461016157806323b872dd14610176578063313ce567146101a057806342966c68146101b557806370a08231146101cd5780637a9e5e4b146101ee5780638da5cb5b1461020f57806395d89b4114610240578063a0712d6814610255578063a9059cbb1461026d578063bf7e214f14610291578063dd62ed3e146102a6575b600080fd5b3480156100eb57600080fd5b506100f46102cd565b60408051918252519081900360200190f35b34801561011257600080fd5b5061012a600160a060020a03600435166024356102d3565b604080519115158252519081900360200190f35b34801561014a57600080fd5b5061015f600160a060020a036004351661033a565b005b34801561016d57600080fd5b506100f46103b8565b34801561018257600080fd5b5061012a600160a060020a03600435811690602435166044356103be565b3480156101ac57600080fd5b506100f46104d6565b3480156101c157600080fd5b5061015f6004356104dc565b3480156101d957600080fd5b506100f4600160a060020a0360043516610550565b3480156101fa57600080fd5b5061015f600160a060020a036004351661056b565b34801561021b57600080fd5b506102246105e9565b60408051600160a060020a039092168252519081900360200190f35b34801561024c57600080fd5b506100f46105f8565b34801561026157600080fd5b5061015f6004356105fe565b34801561027957600080fd5b5061012a600160a060020a0360043516602435610693565b34801561029d57600080fd5b506102246106a7565b3480156102b257600080fd5b506100f4600160a060020a03600435811690602435166106b6565b60075481565b336000818152600260209081526040808320600160a060020a038716808552908352818420869055815186815291519394909390927f8c5be1e5ebec7d5bd14f71427d1e84f3dd0314c0f7b2291e5b200ac8c7c3b925928290030190a35060015b92915050565b61035033600035600160e060020a0319166106e1565b151561035b57600080fd5b6004805473ffffffffffffffffffffffffffffffffffffffff1916600160a060020a0383811691909117918290556040519116907fce241d7ca1f669fee44b6fc00b8eba2df3bb514eed0f6f668f8f89096e81ed9490600090a250565b60005490565b6000600160a060020a038416331461042357600160a060020a03841660009081526002602090815260408083203384529091529020546103fe90836107e3565b600160a060020a03851660009081526002602090815260408083203384529091529020555b600160a060020a03841660009081526001602052604090205461044690836107e3565b600160a060020a03808616600090815260016020526040808220939093559085168152205461047590836107f3565b600160a060020a0380851660008181526001602090815260409182902094909455805186815290519193928816927fddf252ad1be2c89b69c2b068fc378daa952ba7f163c4a11628f55a4df523b3ef92918290030190a35060019392505050565b60065481565b336000908152600160205260409020546104f690826107e3565b336000908152600160205260408120919091555461051490826107e3565b60005560408051828152905133917fcc16f5dbb4873280815c1ee09dbd06736cffcc184412cf7a71a0fdb75d397ca5919081900360200190a250565b600160a060020a031660009081526001602052604090205490565b61058133600035600160e060020a0319166106e1565b151561058c57600080fd5b6003805473ffffffffffffffffffffffffffffffffffffffff1916600160a060020a0383811691909117918290556040519116907f1abebea81bfa2637f28358c371278fb15ede7ea8dd28d2e03b112ff6d936ada490600090a250565b600454600160a060020a031681565b60055481565b61061433600035600160e060020a0319166106e1565b151561061f57600080fd5b3360009081526001602052604090205461063990826107f3565b336000908152600160205260408120919091555461065790826107f3565b60005560408051828152905133917f0f6798a560793a54c3bcfe86a93cde1e73087d944c0ea20544137d4121396885919081900360200190a250565b60006106a03384846103be565b9392505050565b600354600160a060020a031681565b600160a060020a03918216600090815260026020908152604080832093909416825291909152205490565b6000600160a060020a0383163014156106fc57506001610334565b600454600160a060020a038481169116141561071a57506001610334565b600354600160a060020a0316151561073457506000610334565b600354604080517fb7009613000000000000000000000000000000000000000000000000000000008152600160a060020a038681166004830152306024830152600160e060020a0319861660448301529151919092169163b7009613916064808301926020929190829003018186803b1580156107b057600080fd5b505afa1580156107c4573d6000803e3d6000fd5b505050506040513d60208110156107da57600080fd5b50519050610334565b8082038281111561033457600080fd5b8082018281101561033457600080fd00a165627a7a72305820786fc10045d03a3cca6a78817a8c136bc17c3ae2237a02e8aeeafce40664662d0029",
  "source": "/*\n  This file is part of The Colony Network.\n\n  The Colony Network is free software: you can redistribute it and/or modify\n  it under the terms of the GNU General Public License as published by\n  the Free Software Foundation, either version 3 of the License, or\n  (at your option) any later version.\n\n  The Colony Network is distributed in the hope that it will be useful,\n  but WITHOUT ANY WARRANTY; without even the implied warranty of\n  MERCHANTABILITY or FITNESS FOR A PARTICULAR PURPOSE.  See the\n  GNU General Public License for more details.\n\n  You should have received a copy of the GNU General Public License\n  along with The Colony Network. If not, see <http://www.gnu.org/licenses/>.\n*/\n\npragma solidity ^0.4.23;\npragma experimental \"v0.5.0\";\n\n\nimport \"../lib/dappsys/auth.sol\";\nimport \"../lib/dappsys/base.sol\";\nimport \"./ERC20Extended.sol\";\n\n\ncontract Token is DSTokenBase(0), DSAuth, ERC20Extended {\n  bytes32 public symbol;\n  uint256 public decimals;\n  bytes32 public name;\n\n  constructor(bytes32 _name, bytes32 _symbol, uint256 _decimals) public {\n    name = _name;\n    symbol = _symbol;\n    decimals = _decimals;\n  }\n\n  function mint(uint wad) public\n  auth\n  {\n    _balances[msg.sender] = add(_balances[msg.sender], wad);\n    _supply = add(_supply, wad);\n\n    emit Mint(msg.sender, wad);\n  }\n\n  function burn(uint wad) public {\n    _balances[msg.sender] = sub(_balances[msg.sender], wad);\n    _supply = sub(_supply, wad);\n    \n    emit Burn(msg.sender, wad);\n  }\n}",
  "sourcePath": "/root/intuition-machine/colonyNetwork/contracts/Token.sol",
  "compiler": {
    "name": "solc",
    "version": "0.4.24+commit.e67f0147.Emscripten.clang"
  },
  "schemaVersion": "2.0.0",
  "updatedAt": "2018-06-20T09:03:27.565Z"
}